{"contracts/JourneyPlanner.sol":{"JourneyPlanner":{"abi":[{"inputs":[{"internalType":"address","name":"_vehicleRegistry","type":"address"},{"internalType":"address","name":"_chargingStationManager","type":"address"}],"stateMutability":"nonpayable","type":"constructor"},{"anonymous":false,"inputs":[{"indexed":true,"internalType":"uint256","name":"journeyId","type":"uint256"},{"indexed":true,"internalType":"uint256","name":"stationId","type":"uint256"}],"name":"ChargingStopAdded","type":"event"},{"anonymous":false,"inputs":[{"indexed":true,"internalType":"uint256","name":"journeyId","type":"uint256"}],"name":"JourneyCompleted","type":"event"},{"anonymous":false,"inputs":[{"indexed":true,"internalType":"uint256","name":"journeyId","type":"uint256"},{"indexed":true,"internalType":"address","name":"user","type":"address"},{"indexed":false,"internalType":"string","name":"origin","type":"string"},{"indexed":false,"internalType":"string","name":"destination","type":"string"}],"name":"JourneyPlanned","type":"event"},{"anonymous":false,"inputs":[{"indexed":true,"internalType":"uint256","name":"journeyId","type":"uint256"}],"name":"JourneyStarted","type":"event"},{"inputs":[{"internalType":"uint256","name":"_vehicleId","type":"uint256"},{"internalType":"uint256","name":"_currentBatteryLevel","type":"uint256"},{"internalType":"uint256","name":"_totalDistance","type":"uint256"}],"name":"calculateOptimalRoute","outputs":[{"internalType":"uint256[]","name":"recommendedStations","type":"uint256[]"}],"stateMutability":"view","type":"function"},{"inputs":[],"name":"chargingStationManager","outputs":[{"internalType":"contract ChargingStationManager","name":"","type":"address"}],"stateMutability":"view","type":"function"},{"inputs":[{"internalType":"uint256","name":"_journeyId","type":"uint256"}],"name":"completeJourney","outputs":[],"stateMutability":"nonpayable","type":"function"},{"inputs":[],"name":"getCurrentJourneyId","outputs":[{"internalType":"uint256","name":"","type":"uint256"}],"stateMutability":"view","type":"function"},{"inputs":[{"internalType":"uint256","name":"_journeyId","type":"uint256"}],"name":"getJourney","outputs":[{"components":[{"internalType":"uint256","name":"id","type":"uint256"},{"internalType":"address","name":"user","type":"address"},{"internalType":"string","name":"origin","type":"string"},{"internalType":"string","name":"destination","type":"string"},{"internalType":"uint256","name":"vehicleId","type":"uint256"},{"internalType":"uint256","name":"userVehicleIndex","type":"uint256"},{"internalType":"uint256","name":"initialBatteryLevel","type":"uint256"},{"internalType":"uint256","name":"totalDistance","type":"uint256"},{"internalType":"uint256","name":"estimatedTotalTime","type":"uint256"},{"internalType":"uint256","name":"departureTime","type":"uint256"},{"internalType":"uint256","name":"estimatedArrivalTime","type":"uint256"},{"internalType":"uint256[]","name":"chargingStationIds","type":"uint256[]"},{"internalType":"uint256","name":"createdAt","type":"uint256"},{"internalType":"enum JourneyPlanner.JourneyStatus","name":"status","type":"uint8"}],"internalType":"struct JourneyPlanner.Journey","name":"","type":"tuple"},{"components":[{"internalType":"uint256","name":"stationId","type":"uint256"},{"internalType":"uint256","name":"estimatedArrivalTime","type":"uint256"},{"internalType":"uint256","name":"estimatedDepartureTime","type":"uint256"},{"internalType":"uint256","name":"chargingDuration","type":"uint256"},{"internalType":"uint256","name":"expectedChargeAmount","type":"uint256"},{"internalType":"bool","name":"isCompleted","type":"bool"}],"internalType":"struct JourneyPlanner.ChargingStop[]","name":"","type":"tuple[]"}],"stateMutability":"view","type":"function"},{"inputs":[{"internalType":"address","name":"_user","type":"address"}],"name":"getUserJourneys","outputs":[{"internalType":"uint256[]","name":"","type":"uint256[]"}],"stateMutability":"view","type":"function"},{"inputs":[{"internalType":"uint256","name":"","type":"uint256"},{"internalType":"uint256","name":"","type":"uint256"}],"name":"journeyChargingStops","outputs":[{"internalType":"uint256","name":"stationId","type":"uint256"},{"internalType":"uint256","name":"estimatedArrivalTime","type":"uint256"},{"internalType":"uint256","name":"estimatedDepartureTime","type":"uint256"},{"internalType":"uint256","name":"chargingDuration","type":"uint256"},{"internalType":"uint256","name":"expectedChargeAmount","type":"uint256"},{"internalType":"bool","name":"isCompleted","type":"bool"}],"stateMutability":"view","type":"function"},{"inputs":[{"internalType":"uint256","name":"","type":"uint256"}],"name":"journeys","outputs":[{"internalType":"uint256","name":"id","type":"uint256"},{"internalType":"address","name":"user","type":"address"},{"internalType":"string","name":"origin","type":"string"},{"internalType":"string","name":"destination","type":"string"},{"internalType":"uint256","name":"vehicleId","type":"uint256"},{"internalType":"uint256","name":"userVehicleIndex","type":"uint256"},{"internalType":"uint256","name":"initialBatteryLevel","type":"uint256"},{"internalType":"uint256","name":"totalDistance","type":"uint256"},{"internalType":"uint256","name":"estimatedTotalTime","type":"uint256"},{"internalType":"uint256","name":"departureTime","type":"uint256"},{"internalType":"uint256","name":"estimatedArrivalTime","type":"uint256"},{"internalType":"uint256","name":"createdAt","type":"uint256"},{"internalType":"enum JourneyPlanner.JourneyStatus","name":"status","type":"uint8"}],"stateMutability":"view","type":"function"},{"inputs":[{"internalType":"string","name":"_origin","type":"string"},{"internalType":"string","name":"_destination","type":"string"},{"internalType":"uint256","name":"_userVehicleIndex","type":"uint256"},{"internalType":"uint256","name":"_totalDistance","type":"uint256"},{"internalType":"uint256","name":"_estimatedTotalTime","type":"uint256"},{"internalType":"uint256","name":"_departureTime","type":"uint256"},{"internalType":"uint256[]","name":"_chargingStationIds","type":"uint256[]"},{"components":[{"internalType":"uint256","name":"stationId","type":"uint256"},{"internalType":"uint256","name":"estimatedArrivalTime","type":"uint256"},{"internalType":"uint256","name":"estimatedDepartureTime","type":"uint256"},{"internalType":"uint256","name":"chargingDuration","type":"uint256"},{"internalType":"uint256","name":"expectedChargeAmount","type":"uint256"},{"internalType":"bool","name":"isCompleted","type":"bool"}],"internalType":"struct JourneyPlanner.ChargingStop[]","name":"_chargingStops","type":"tuple[]"}],"name":"planJourney","outputs":[],"stateMutability":"nonpayable","type":"function"},{"inputs":[{"internalType":"uint256","name":"_journeyId","type":"uint256"}],"name":"startJourney","outputs":[],"stateMutability":"nonpayable","type":"function"},{"inputs":[{"internalType":"address","name":"","type":"address"},{"internalType":"uint256","name":"","type":"uint256"}],"name":"userJourneys","outputs":[{"internalType":"uint256","name":"","type":"uint256"}],"stateMutability":"view","type":"function"},{"inputs":[],"name":"vehicleRegistry","outputs":[{"internalType":"contract VehicleRegistry","name":"","type":"address"}],"stateMutability":"view","type":"function"}],"evm":{"bytecode":{"linkReferences":{},"object":"608034608a57601f611b5f38819003918201601f19168301916001600160401b03831184841017608f578084926040948552833981010312608a57604b602060458360a5565b920160a5565b600180546001600160a01b039384166001600160a01b0319918216179091556002805492909316911617905560008055604051611aa690816100b98239f35b600080fd5b634e487b7160e01b600052604160045260246000fd5b51906001600160a01b0382168203608a5756fe608080604052600436101561001357600080fd5b60003560e01c90816328da68851461168d5750806338fdf9fc14610df85780635fd999b314610dcf57806369abfa5d14610cea5780636cf773ae14610ca45780638df5a9fa14610bb3578063979b01ff14610b345780639d56f08514610b0b5780639d89037414610578578063a8cf7c691461048a578063b5443038146101015763e0a7a737146100a357600080fd5b346100fc5760403660031901126100fc576100bc611779565b6001600160a01b03166000908152600560205260409020805460243591908210156100fc576020916100ed9161192e565b90549060031b1c604051908152f35b600080fd5b346100fc5760203660031901126100fc5760043560006101a0604051610126816116c3565b828152826020820152606060408201526060808201528260808201528260a08201528260c08201528260e082015282610100820152826101208201528261014082015260606101608201528261018082015201528060005260036020526040600020906000526004602052604060002060ff600d604051936101a7856116c3565b8054855260018101546001600160a01b031660208601526101ca60028201611803565b60408601526101db60038201611803565b606086015260048101546080860152600581015460a0860152600681015460c0860152600781015460e086015260088101546101008601526009810154610120860152600a810154610140860152610235600b8201611a18565b610160860152600c8101546101808601520154166004811015610474576101a083015280549061026482611762565b9161027260405193846116df565b80835260208301809260005260206000206000915b8383106104125750505050604051928392604084528151604085015260018060a01b0360208301511660608501526102e96102d360408401516101c060808801526102008701906118ca565b6060840151868203603f190160a08801526118ca565b91608081015160c086015260a081015160e086015260c081015161010086015260e081015161012086015261010081015161014086015261012081015161016086015261014081015161018086015261016081015192603f19868203016101a08701526020808551928381520194019060005b8181106103f957505050906103896101a08361018060209501516101c089015201516101e08701906118ef565b84830382860152519182815201919060005b8181106103a9575050500390f35b91935091602060c060019260a087518051835284810151858401526040810151604084015260608101516060840152608081015160808401520151151560a082015201940191019184939261039b565b825186528897506020958601959092019160010161035c565b6006602060019260409997989951610429816116a8565b85548152848601548382015260028601546040820152600386015460608201526004860154608082015260ff600587015416151560a082015281520192019201919095949395610287565b634e487b7160e01b600052602160045260246000fd5b346100fc5760203660031901126100fc576004358060005260036020526104c260018060a01b036001604060002001541633146119d9565b80600052600360205260ff600d604060002001541660048110156104745761052757806000526003602052600d604060002001600160ff198254161790557f51080e1e0ff4243ef33a67df8d74ccd0d67719b9a9929834949bb336e9471396600080a2005b60405162461bcd60e51b8152602060048201526024808201527f4a6f75726e657920616c72656164792073746172746564206f7220636f6d706c604482015263195d195960e21b6064820152608490fd5b346100fc5760603660031901126100fc5760015460405163df7ebb7b60e01b81526004803590820152606091602480359291600091839182906001600160a01b03165afa9081156109ea57600091610a0c575b50608001518181029181830414901517156109f657606490046050810290808204605014901517156109f6576064900460443511610618575b610614906040519182918261178f565b0390f35b6002546040516308414f9d60e31b815290600090829060049082906001600160a01b03165afa9182156109ea5760009261078a575b50506000805b8251811080610780575b156106b95761014061066f82856119ae565b5101511515806106a2575b61068d575b6106889061199f565b610653565b9061069a6106889161199f565b91905061067f565b5060c06106af82856119ae565b510151151561067a565b506106c381611762565b906106d160405192836116df565b8082526106e0601f1991611762565b0136602083013780600092835b8151811080610776575b1561076a5761014061070982846119ae565b510151151580610753575b610727575b6107229061199f565b6106ed565b9361074b6107229161073987856119ae565b515161074582876119ae565b5261199f565b949050610719565b5060c061076082846119ae565b5101511515610714565b50919250610604915050565b50600285106106f7565b506002821061065d565b3d8084843e61079981846116df565b8201916020818403126109de578051906001600160401b0382116109e657019082601f830112156109de578151926107d084611762565b946107de60405196876116df565b84865260208087019560051b850101938285116109e25760208101955b8587106108105750505050505050818061064d565b86516001600160401b0381116109de5782016101a0818603601f1901126109de57604051906101a082018281106001600160401b038211176109ca576040526020810151825260408101516001600160401b0381116109c6578660206108789284010161195a565b6020830152868101516001600160401b0381116109c65786602061089e9284010161195a565b604083015260808101518783015260a0810151608083015260c081015160a083015260e081015160c083015261010081015160e08301526101208101516101008301526101408101516001600160401b0381116109c65760209082010186601f820112156109c65780519061091282611762565b9161092060405193846116df565b80835260208084019160051b830101918983116109c25760208101915b8383106109915750505050916101a06020949285946101208401526109656101608201611a63565b6101408401526109786101808201611946565b61016084015201516101808201528152019601956107fb565b82516001600160401b0381116109be576020916109b38d84809487010161195a565b81520192019161093d565b8a80fd5b8880fd5b8580fd5b634e487b7160e01b86526041600452602486fd5b8380fd5b5080fd5b8480fd5b6040513d6000823e3d90fd5b634e487b7160e01b600052601160045260246000fd5b3d8083833e610a1b81836116df565b810190602081830312610b07578051906001600160401b0382116109de57019061010082820312610b07576040519261010084018481106001600160401b03821117610af3576040528251845260208301516001600160401b0381116109e25782610a8791850161195a565b60208501526040830151906001600160401b038211610af0575091610ab360e09260809594830161195a565b60408401528581015186840152838101518484015260a081015160a0840152610ade60c08201611a63565b60c0840152015160e0820152906105cb565b80fd5b634e487b7160e01b82526041600452602482fd5b8280fd5b346100fc5760003660031901126100fc576001546040516001600160a01b039091168152602090f35b346100fc5760403660031901126100fc576024356004356000526004602052604060002080548210156100fc5760c091610b6d916118fc565b50805490600181015490600281015460038201549060ff6005600485015494015416936040519586526020860152604085015260608401526080830152151560a0820152f35b346100fc5760203660031901126100fc576004356000908152600360205260409020805460018201546001600160a01b031691610bf260028201611803565b610bfe60038301611803565b91600481015492600582015460068301546007840154600885015491600986015493600a87015495600c88015497600d015460ff16986040519c8d9c8d5260208d015260408c016101a090526101a08c01610c58916118ca565b8b810360608d0152610c69916118ca565b9860808b015260a08a015260c089015260e08801526101008701526101208601526101408501526101608401526101808301610614916118ef565b346100fc5760203660031901126100fc576001600160a01b03610cc5611779565b166000526005602052610614610cde6040600020611a18565b6040519182918261178f565b346100fc5760203660031901126100fc57600435806000526003602052610d2260018060a01b036001604060002001541633146119d9565b80600052600360205260ff600d6040600020015416600481101561047457600103610d8a57806000526003602052600d604060002001600260ff198254161790557f59554e552a32c114e5a089a4be2d29479b0f8fdb596321bcc6b8d64ad1f7dffa600080a2005b60405162461bcd60e51b815260206004820152601760248201527f4a6f75726e6579206e6f7420696e2070726f67726573730000000000000000006044820152606490fd5b346100fc5760003660031901126100fc576002546040516001600160a01b039091168152602090f35b346100fc576101003660031901126100fc576004356001600160401b0381116100fc57610e2990369060040161171b565b6024356001600160401b0381116100fc57610e4890369060040161171b565b604435916084359160c4359060a4356001600160401b0383116100fc57366023840112156100fc57826004013592610e7f84611762565b93610e8d60405195866116df565b8085526024602086019160051b830101913683116100fc57602401905b82821061167d5750505060e435946001600160401b0386116100fc57366023870112156100fc57856004013596610ee088611762565b96610eee60405198896116df565b888852602460c060208a019a02820101903682116100fc57602401985b818a1061161557505060015460405163043b522b60e41b81523360048201529493929190600090869060249082906001600160a01b03165afa9485156109ea576000956114eb575b5084518110156114ae57610f7681610f6c60005461199f565b96876000556119ae565b516060815191015192808501948581116109f65760405198610f978a6116c3565b888a5260208a019633885260408b01928c845260608c01948a865260808d0196875260a08d0197885260c08d019889528c60e06064359101526101008d01526101208c01526101408b01526101608a0152426101808a015260006101a08a015287600052600360205260406000209589518755600187019060018060a01b039051166bffffffffffffffffffffffff60a01b8254161790556002860190518051906001600160401b03821161134957819061105284546117c9565b601f811161147c575b50602090601f83116001146114175760009261140c575b50508160011b916000199060031b1c19161790555b51805160038601916001600160401b0382116113495781906110a984546117c9565b601f81116113cf575b50602090601f831160011461136a5760009261135f575b50508160011b916000199060031b1c19161790555b51600484015551600583015551600682015560e0840151600782015561010084015160088201556101208401516009820155610140840151600a820155600b8101610160850151908151916001600160401b03831161134957600160401b831161134957602090825484845580851061132c575b500190600052602060002060005b8381106113185750505050600d6101a091610180860151600c820155019301519260048410156104745760009360ff80198354169116179055825b8551811015611284578284526004602052604084206111ba82886119ae565b5190805490600160401b82101561127057906111db916001820181556118fc565b61125c579060a06005600194938351815560208401518682015560408401516002820155606084015160038201556080840151600482015501910151151560ff8019835416911617905561122f81886119ae565b5151847fb390323c7dfaa63a94a3dbe696b212e752be9643b95951469ab742e1f64460b68780a30161119b565b634e487b7160e01b86526004869052602486fd5b634e487b7160e01b87526041600452602487fd5b509192338452600560205260408420805490600160401b8210156109ca57916112d7827f3146413260740ce695cbd0c01a78d9b499f329040bbe946820cdf0aa746b495c9460016113039501815561192e565b81549060031b9086821b91600019901b19161790556113126040519283926040845260408401906118ca565b828103602084015233966118ca565b0390a380f35b600190602084519401938184015501611160565b6113439084600052858460002091820191016119c2565b8a611152565b634e487b7160e01b600052604160045260246000fd5b015190508c806110c9565b60008581528281209350601f198516905b8181106113b7575090846001959493921061139e575b505050811b0190556110de565b015160001960f88460031b161c191690558c8080611391565b9293602060018192878601518155019501930161137b565b6113fc90856000526020600020601f850160051c81019160208610611402575b601f0160051c01906119c2565b8d6110b2565b90915081906113ef565b015190508d80611072565b60008581528281209350601f198516905b818110611464575090846001959493921061144b575b505050811b019055611087565b015160001960f88460031b161c191690558d808061143e565b92936020600181928786015181550195019301611428565b6114a890856000526020600020601f850160051c8101916020861061140257601f0160051c01906119c2565b8e61105b565b60405162461bcd60e51b8152602060048201526015602482015274092dcecc2d8d2c840eccad0d2c6d8ca40d2dcc8caf605b1b6044820152606490fd5b90943d8082843e6114fc81846116df565b8201916020818403126109e2578051906001600160401b038211610b07570182601f820112156109e25780519161153283611762565b9361154060405195866116df565b83855260208086019460051b84010192818411610b075760208101945b848610611571575050505050509388610f53565b85516001600160401b0381116109e657820160a0818503601f1901126109e6576040519060a082018281106001600160401b0382111761127057604052602081015182526115c160408201611946565b602083015260608101516001600160401b038111611611579160a0826115f0886020809896978198010161195a565b6040840152608081015160608401520151608082015281520195019461155d565b8680fd5b60c08a3603126100fc576040519061162c826116a8565b8a35825260208b0135602083015260408b0135604083015260608b0135606083015260808b0135608083015260a08b01359081151582036100fc578260209260a060c0950152815201990198610f0b565b8135815260209182019101610eaa565b346100fc5760003660031901126100fc576020906000548152f35b60c081019081106001600160401b0382111761134957604052565b6101c081019081106001600160401b0382111761134957604052565b90601f801991011681019081106001600160401b0382111761134957604052565b6001600160401b03811161134957601f01601f191660200190565b81601f820112156100fc5780359061173282611700565b9261174060405194856116df565b828452602083830101116100fc57816000926020809301838601378301015290565b6001600160401b0381116113495760051b60200190565b600435906001600160a01b03821682036100fc57565b602060408183019282815284518094520192019060005b8181106117b35750505090565b82518452602093840193909201916001016117a6565b90600182811c921680156117f9575b60208310146117e357565b634e487b7160e01b600052602260045260246000fd5b91607f16916117d8565b9060405191826000825492611817846117c9565b8084529360018116908115611885575060011461183e575b5061183c925003836116df565b565b90506000929192526020600020906000915b81831061186957505090602061183c928201013861182f565b6020919350806001915483858901015201910190918492611850565b90506020925061183c94915060ff191682840152151560051b8201013861182f565b60005b8381106118ba5750506000910152565b81810151838201526020016118aa565b906020916118e3815180928185528580860191016118a7565b601f01601f1916010190565b9060048210156104745752565b8054821015611918576000526006602060002091020190600090565b634e487b7160e01b600052603260045260246000fd5b80548210156119185760005260206000200190600090565b51906001600160a01b03821682036100fc57565b81601f820112156100fc57805161197081611700565b9261197e60405194856116df565b818452602082840101116100fc5761199c91602080850191016118a7565b90565b60001981146109f65760010190565b80518210156119185760209160051b010190565b8181106119cd575050565b600081556001016119c2565b156119e057565b60405162461bcd60e51b815260206004820152601060248201526f4e6f7420796f7572206a6f75726e657960801b6044820152606490fd5b906040519182815491828252602082019060005260206000209260005b818110611a4a57505061183c925003836116df565b8454835260019485019487945060209093019201611a35565b519081151582036100fc5756fea26469706673582212205a4f20c03a7e44310d037821e628a0e8e0d7e6fd9e06ce49694c7145c79b608564736f6c634300081c0033","opcodes":"PUSH1 0x80 CALLVALUE PUSH1 0x8A JUMPI PUSH1 0x1F PUSH2 0x1B5F CODESIZE DUP2 SWAP1 SUB SWAP2 DUP3 ADD PUSH1 0x1F NOT AND DUP4 ADD SWAP2 PUSH1 0x1 PUSH1 0x1 PUSH1 0x40 SHL SUB DUP4 GT DUP5 DUP5 LT OR PUSH1 0x8F JUMPI DUP1 DUP5 SWAP3 PUSH1 0x40 SWAP5 DUP6 MSTORE DUP4 CODECOPY DUP2 ADD SUB SLT PUSH1 0x8A JUMPI PUSH1 0x4B PUSH1 0x20 PUSH1 0x45 DUP4 PUSH1 0xA5 JUMP JUMPDEST SWAP3 ADD PUSH1 0xA5 JUMP JUMPDEST PUSH1 0x1 DUP1 SLOAD PUSH1 0x1 PUSH1 0x1 PUSH1 0xA0 SHL SUB SWAP4 DUP5 AND PUSH1 0x1 PUSH1 0x1 PUSH1 0xA0 SHL SUB NOT SWAP2 DUP3 AND OR SWAP1 SWAP2 SSTORE PUSH1 0x2 DUP1 SLOAD SWAP3 SWAP1 SWAP4 AND SWAP2 AND OR SWAP1 SSTORE PUSH1 0x0 DUP1 SSTORE PUSH1 0x40 MLOAD PUSH2 0x1AA6 SWAP1 DUP2 PUSH2 0xB9 DUP3 CODECOPY RETURN JUMPDEST PUSH1 0x0 DUP1 REVERT JUMPDEST PUSH4 0x4E487B71 PUSH1 0xE0 SHL PUSH1 0x0 MSTORE PUSH1 0x41 PUSH1 0x4 MSTORE PUSH1 0x24 PUSH1 0x0 REVERT JUMPDEST MLOAD SWAP1 PUSH1 0x1 PUSH1 0x1 PUSH1 0xA0 SHL SUB DUP3 AND DUP3 SUB PUSH1 0x8A JUMPI JUMP INVALID PUSH1 0x80 DUP1 PUSH1 0x40 MSTORE PUSH1 0x4 CALLDATASIZE LT ISZERO PUSH2 0x13 JUMPI PUSH1 0x0 DUP1 REVERT JUMPDEST PUSH1 0x0 CALLDATALOAD PUSH1 0xE0 SHR SWAP1 DUP2 PUSH4 0x28DA6885 EQ PUSH2 0x168D JUMPI POP DUP1 PUSH4 0x38FDF9FC EQ PUSH2 0xDF8 JUMPI DUP1 PUSH4 0x5FD999B3 EQ PUSH2 0xDCF JUMPI DUP1 PUSH4 0x69ABFA5D EQ PUSH2 0xCEA JUMPI DUP1 PUSH4 0x6CF773AE EQ PUSH2 0xCA4 JUMPI DUP1 PUSH4 0x8DF5A9FA EQ PUSH2 0xBB3 JUMPI DUP1 PUSH4 0x979B01FF EQ PUSH2 0xB34 JUMPI DUP1 PUSH4 0x9D56F085 EQ PUSH2 0xB0B JUMPI DUP1 PUSH4 0x9D890374 EQ PUSH2 0x578 JUMPI DUP1 PUSH4 0xA8CF7C69 EQ PUSH2 0x48A JUMPI DUP1 PUSH4 0xB5443038 EQ PUSH2 0x101 JUMPI PUSH4 0xE0A7A737 EQ PUSH2 0xA3 JUMPI PUSH1 0x0 DUP1 REVERT JUMPDEST CALLVALUE PUSH2 0xFC JUMPI PUSH1 0x40 CALLDATASIZE PUSH1 0x3 NOT ADD SLT PUSH2 0xFC JUMPI PUSH2 0xBC PUSH2 0x1779 JUMP JUMPDEST PUSH1 0x1 PUSH1 0x1 PUSH1 0xA0 SHL SUB AND PUSH1 0x0 SWAP1 DUP2 MSTORE PUSH1 0x5 PUSH1 0x20 MSTORE PUSH1 0x40 SWAP1 KECCAK256 DUP1 SLOAD PUSH1 0x24 CALLDATALOAD SWAP2 SWAP1 DUP3 LT ISZERO PUSH2 0xFC JUMPI PUSH1 0x20 SWAP2 PUSH2 0xED SWAP2 PUSH2 0x192E JUMP JUMPDEST SWAP1 SLOAD SWAP1 PUSH1 0x3 SHL SHR PUSH1 0x40 MLOAD SWAP1 DUP2 MSTORE RETURN JUMPDEST PUSH1 0x0 DUP1 REVERT JUMPDEST CALLVALUE PUSH2 0xFC JUMPI PUSH1 0x20 CALLDATASIZE PUSH1 0x3 NOT ADD SLT PUSH2 0xFC JUMPI PUSH1 0x4 CALLDATALOAD PUSH1 0x0 PUSH2 0x1A0 PUSH1 0x40 MLOAD PUSH2 0x126 DUP2 PUSH2 0x16C3 JUMP JUMPDEST DUP3 DUP2 MSTORE DUP3 PUSH1 0x20 DUP3 ADD MSTORE PUSH1 0x60 PUSH1 0x40 DUP3 ADD MSTORE PUSH1 0x60 DUP1 DUP3 ADD MSTORE DUP3 PUSH1 0x80 DUP3 ADD MSTORE DUP3 PUSH1 0xA0 DUP3 ADD MSTORE DUP3 PUSH1 0xC0 DUP3 ADD MSTORE DUP3 PUSH1 0xE0 DUP3 ADD MSTORE DUP3 PUSH2 0x100 DUP3 ADD MSTORE DUP3 PUSH2 0x120 DUP3 ADD MSTORE DUP3 PUSH2 0x140 DUP3 ADD MSTORE PUSH1 0x60 PUSH2 0x160 DUP3 ADD MSTORE DUP3 PUSH2 0x180 DUP3 ADD MSTORE ADD MSTORE DUP1 PUSH1 0x0 MSTORE PUSH1 0x3 PUSH1 0x20 MSTORE PUSH1 0x40 PUSH1 0x0 KECCAK256 SWAP1 PUSH1 0x0 MSTORE PUSH1 0x4 PUSH1 0x20 MSTORE PUSH1 0x40 PUSH1 0x0 KECCAK256 PUSH1 0xFF PUSH1 0xD PUSH1 0x40 MLOAD SWAP4 PUSH2 0x1A7 DUP6 PUSH2 0x16C3 JUMP JUMPDEST DUP1 SLOAD DUP6 MSTORE PUSH1 0x1 DUP2 ADD SLOAD PUSH1 0x1 PUSH1 0x1 PUSH1 0xA0 SHL SUB AND PUSH1 0x20 DUP7 ADD MSTORE PUSH2 0x1CA PUSH1 0x2 DUP3 ADD PUSH2 0x1803 JUMP JUMPDEST PUSH1 0x40 DUP7 ADD MSTORE PUSH2 0x1DB PUSH1 0x3 DUP3 ADD PUSH2 0x1803 JUMP JUMPDEST PUSH1 0x60 DUP7 ADD MSTORE PUSH1 0x4 DUP2 ADD SLOAD PUSH1 0x80 DUP7 ADD MSTORE PUSH1 0x5 DUP2 ADD SLOAD PUSH1 0xA0 DUP7 ADD MSTORE PUSH1 0x6 DUP2 ADD SLOAD PUSH1 0xC0 DUP7 ADD MSTORE PUSH1 0x7 DUP2 ADD SLOAD PUSH1 0xE0 DUP7 ADD MSTORE PUSH1 0x8 DUP2 ADD SLOAD PUSH2 0x100 DUP7 ADD MSTORE PUSH1 0x9 DUP2 ADD SLOAD PUSH2 0x120 DUP7 ADD MSTORE PUSH1 0xA DUP2 ADD SLOAD PUSH2 0x140 DUP7 ADD MSTORE PUSH2 0x235 PUSH1 0xB DUP3 ADD PUSH2 0x1A18 JUMP JUMPDEST PUSH2 0x160 DUP7 ADD MSTORE PUSH1 0xC DUP2 ADD SLOAD PUSH2 0x180 DUP7 ADD MSTORE ADD SLOAD AND PUSH1 0x4 DUP2 LT ISZERO PUSH2 0x474 JUMPI PUSH2 0x1A0 DUP4 ADD MSTORE DUP1 SLOAD SWAP1 PUSH2 0x264 DUP3 PUSH2 0x1762 JUMP JUMPDEST SWAP2 PUSH2 0x272 PUSH1 0x40 MLOAD SWAP4 DUP5 PUSH2 0x16DF JUMP JUMPDEST DUP1 DUP4 MSTORE PUSH1 0x20 DUP4 ADD DUP1 SWAP3 PUSH1 0x0 MSTORE PUSH1 0x20 PUSH1 0x0 KECCAK256 PUSH1 0x0 SWAP2 JUMPDEST DUP4 DUP4 LT PUSH2 0x412 JUMPI POP POP POP POP PUSH1 0x40 MLOAD SWAP3 DUP4 SWAP3 PUSH1 0x40 DUP5 MSTORE DUP2 MLOAD PUSH1 0x40 DUP6 ADD MSTORE PUSH1 0x1 DUP1 PUSH1 0xA0 SHL SUB PUSH1 0x20 DUP4 ADD MLOAD AND PUSH1 0x60 DUP6 ADD MSTORE PUSH2 0x2E9 PUSH2 0x2D3 PUSH1 0x40 DUP5 ADD MLOAD PUSH2 0x1C0 PUSH1 0x80 DUP9 ADD MSTORE PUSH2 0x200 DUP8 ADD SWAP1 PUSH2 0x18CA JUMP JUMPDEST PUSH1 0x60 DUP5 ADD MLOAD DUP7 DUP3 SUB PUSH1 0x3F NOT ADD PUSH1 0xA0 DUP9 ADD MSTORE PUSH2 0x18CA JUMP JUMPDEST SWAP2 PUSH1 0x80 DUP2 ADD MLOAD PUSH1 0xC0 DUP7 ADD MSTORE PUSH1 0xA0 DUP2 ADD MLOAD PUSH1 0xE0 DUP7 ADD MSTORE PUSH1 0xC0 DUP2 ADD MLOAD PUSH2 0x100 DUP7 ADD MSTORE PUSH1 0xE0 DUP2 ADD MLOAD PUSH2 0x120 DUP7 ADD MSTORE PUSH2 0x100 DUP2 ADD MLOAD PUSH2 0x140 DUP7 ADD MSTORE PUSH2 0x120 DUP2 ADD MLOAD PUSH2 0x160 DUP7 ADD MSTORE PUSH2 0x140 DUP2 ADD MLOAD PUSH2 0x180 DUP7 ADD MSTORE PUSH2 0x160 DUP2 ADD MLOAD SWAP3 PUSH1 0x3F NOT DUP7 DUP3 SUB ADD PUSH2 0x1A0 DUP8 ADD MSTORE PUSH1 0x20 DUP1 DUP6 MLOAD SWAP3 DUP4 DUP2 MSTORE ADD SWAP5 ADD SWAP1 PUSH1 0x0 JUMPDEST DUP2 DUP2 LT PUSH2 0x3F9 JUMPI POP POP POP SWAP1 PUSH2 0x389 PUSH2 0x1A0 DUP4 PUSH2 0x180 PUSH1 0x20 SWAP6 ADD MLOAD PUSH2 0x1C0 DUP10 ADD MSTORE ADD MLOAD PUSH2 0x1E0 DUP8 ADD SWAP1 PUSH2 0x18EF JUMP JUMPDEST DUP5 DUP4 SUB DUP3 DUP7 ADD MSTORE MLOAD SWAP2 DUP3 DUP2 MSTORE ADD SWAP2 SWAP1 PUSH1 0x0 JUMPDEST DUP2 DUP2 LT PUSH2 0x3A9 JUMPI POP POP POP SUB SWAP1 RETURN JUMPDEST SWAP2 SWAP4 POP SWAP2 PUSH1 0x20 PUSH1 0xC0 PUSH1 0x1 SWAP3 PUSH1 0xA0 DUP8 MLOAD DUP1 MLOAD DUP4 MSTORE DUP5 DUP2 ADD MLOAD DUP6 DUP5 ADD MSTORE PUSH1 0x40 DUP2 ADD MLOAD PUSH1 0x40 DUP5 ADD MSTORE PUSH1 0x60 DUP2 ADD MLOAD PUSH1 0x60 DUP5 ADD MSTORE PUSH1 0x80 DUP2 ADD MLOAD PUSH1 0x80 DUP5 ADD MSTORE ADD MLOAD ISZERO ISZERO PUSH1 0xA0 DUP3 ADD MSTORE ADD SWAP5 ADD SWAP2 ADD SWAP2 DUP5 SWAP4 SWAP3 PUSH2 0x39B JUMP JUMPDEST DUP3 MLOAD DUP7 MSTORE DUP9 SWAP8 POP PUSH1 0x20 SWAP6 DUP7 ADD SWAP6 SWAP1 SWAP3 ADD SWAP2 PUSH1 0x1 ADD PUSH2 0x35C JUMP JUMPDEST PUSH1 0x6 PUSH1 0x20 PUSH1 0x1 SWAP3 PUSH1 0x40 SWAP10 SWAP8 SWAP9 SWAP10 MLOAD PUSH2 0x429 DUP2 PUSH2 0x16A8 JUMP JUMPDEST DUP6 SLOAD DUP2 MSTORE DUP5 DUP7 ADD SLOAD DUP4 DUP3 ADD MSTORE PUSH1 0x2 DUP7 ADD SLOAD PUSH1 0x40 DUP3 ADD MSTORE PUSH1 0x3 DUP7 ADD SLOAD PUSH1 0x60 DUP3 ADD MSTORE PUSH1 0x4 DUP7 ADD SLOAD PUSH1 0x80 DUP3 ADD MSTORE PUSH1 0xFF PUSH1 0x5 DUP8 ADD SLOAD AND ISZERO ISZERO PUSH1 0xA0 DUP3 ADD MSTORE DUP2 MSTORE ADD SWAP3 ADD SWAP3 ADD SWAP2 SWAP1 SWAP6 SWAP5 SWAP4 SWAP6 PUSH2 0x287 JUMP JUMPDEST PUSH4 0x4E487B71 PUSH1 0xE0 SHL PUSH1 0x0 MSTORE PUSH1 0x21 PUSH1 0x4 MSTORE PUSH1 0x24 PUSH1 0x0 REVERT JUMPDEST CALLVALUE PUSH2 0xFC JUMPI PUSH1 0x20 CALLDATASIZE PUSH1 0x3 NOT ADD SLT PUSH2 0xFC JUMPI PUSH1 0x4 CALLDATALOAD DUP1 PUSH1 0x0 MSTORE PUSH1 0x3 PUSH1 0x20 MSTORE PUSH2 0x4C2 PUSH1 0x1 DUP1 PUSH1 0xA0 SHL SUB PUSH1 0x1 PUSH1 0x40 PUSH1 0x0 KECCAK256 ADD SLOAD AND CALLER EQ PUSH2 0x19D9 JUMP JUMPDEST DUP1 PUSH1 0x0 MSTORE PUSH1 0x3 PUSH1 0x20 MSTORE PUSH1 0xFF PUSH1 0xD PUSH1 0x40 PUSH1 0x0 KECCAK256 ADD SLOAD AND PUSH1 0x4 DUP2 LT ISZERO PUSH2 0x474 JUMPI PUSH2 0x527 JUMPI DUP1 PUSH1 0x0 MSTORE PUSH1 0x3 PUSH1 0x20 MSTORE PUSH1 0xD PUSH1 0x40 PUSH1 0x0 KECCAK256 ADD PUSH1 0x1 PUSH1 0xFF NOT DUP3 SLOAD AND OR SWAP1 SSTORE PUSH32 0x51080E1E0FF4243EF33A67DF8D74CCD0D67719B9A9929834949BB336E9471396 PUSH1 0x0 DUP1 LOG2 STOP JUMPDEST PUSH1 0x40 MLOAD PUSH3 0x461BCD PUSH1 0xE5 SHL DUP2 MSTORE PUSH1 0x20 PUSH1 0x4 DUP3 ADD MSTORE PUSH1 0x24 DUP1 DUP3 ADD MSTORE PUSH32 0x4A6F75726E657920616C72656164792073746172746564206F7220636F6D706C PUSH1 0x44 DUP3 ADD MSTORE PUSH4 0x195D1959 PUSH1 0xE2 SHL PUSH1 0x64 DUP3 ADD MSTORE PUSH1 0x84 SWAP1 REVERT JUMPDEST CALLVALUE PUSH2 0xFC JUMPI PUSH1 0x60 CALLDATASIZE PUSH1 0x3 NOT ADD SLT PUSH2 0xFC JUMPI PUSH1 0x1 SLOAD PUSH1 0x40 MLOAD PUSH4 0xDF7EBB7B PUSH1 0xE0 SHL DUP2 MSTORE PUSH1 0x4 DUP1 CALLDATALOAD SWAP1 DUP3 ADD MSTORE PUSH1 0x60 SWAP2 PUSH1 0x24 DUP1 CALLDATALOAD SWAP3 SWAP2 PUSH1 0x0 SWAP2 DUP4 SWAP2 DUP3 SWAP1 PUSH1 0x1 PUSH1 0x1 PUSH1 0xA0 SHL SUB AND GAS STATICCALL SWAP1 DUP2 ISZERO PUSH2 0x9EA JUMPI PUSH1 0x0 SWAP2 PUSH2 0xA0C JUMPI JUMPDEST POP PUSH1 0x80 ADD MLOAD DUP2 DUP2 MUL SWAP2 DUP2 DUP4 DIV EQ SWAP1 ISZERO OR ISZERO PUSH2 0x9F6 JUMPI PUSH1 0x64 SWAP1 DIV PUSH1 0x50 DUP2 MUL SWAP1 DUP1 DUP3 DIV PUSH1 0x50 EQ SWAP1 ISZERO OR ISZERO PUSH2 0x9F6 JUMPI PUSH1 0x64 SWAP1 DIV PUSH1 0x44 CALLDATALOAD GT PUSH2 0x618 JUMPI JUMPDEST PUSH2 0x614 SWAP1 PUSH1 0x40 MLOAD SWAP2 DUP3 SWAP2 DUP3 PUSH2 0x178F JUMP JUMPDEST SUB SWAP1 RETURN JUMPDEST PUSH1 0x2 SLOAD PUSH1 0x40 MLOAD PUSH4 0x8414F9D PUSH1 0xE3 SHL DUP2 MSTORE SWAP1 PUSH1 0x0 SWAP1 DUP3 SWAP1 PUSH1 0x4 SWAP1 DUP3 SWAP1 PUSH1 0x1 PUSH1 0x1 PUSH1 0xA0 SHL SUB AND GAS STATICCALL SWAP2 DUP3 ISZERO PUSH2 0x9EA JUMPI PUSH1 0x0 SWAP3 PUSH2 0x78A JUMPI JUMPDEST POP POP PUSH1 0x0 DUP1 JUMPDEST DUP3 MLOAD DUP2 LT DUP1 PUSH2 0x780 JUMPI JUMPDEST ISZERO PUSH2 0x6B9 JUMPI PUSH2 0x140 PUSH2 0x66F DUP3 DUP6 PUSH2 0x19AE JUMP JUMPDEST MLOAD ADD MLOAD ISZERO ISZERO DUP1 PUSH2 0x6A2 JUMPI JUMPDEST PUSH2 0x68D JUMPI JUMPDEST PUSH2 0x688 SWAP1 PUSH2 0x199F JUMP JUMPDEST PUSH2 0x653 JUMP JUMPDEST SWAP1 PUSH2 0x69A PUSH2 0x688 SWAP2 PUSH2 0x199F JUMP JUMPDEST SWAP2 SWAP1 POP PUSH2 0x67F JUMP JUMPDEST POP PUSH1 0xC0 PUSH2 0x6AF DUP3 DUP6 PUSH2 0x19AE JUMP JUMPDEST MLOAD ADD MLOAD ISZERO ISZERO PUSH2 0x67A JUMP JUMPDEST POP PUSH2 0x6C3 DUP2 PUSH2 0x1762 JUMP JUMPDEST SWAP1 PUSH2 0x6D1 PUSH1 0x40 MLOAD SWAP3 DUP4 PUSH2 0x16DF JUMP JUMPDEST DUP1 DUP3 MSTORE PUSH2 0x6E0 PUSH1 0x1F NOT SWAP2 PUSH2 0x1762 JUMP JUMPDEST ADD CALLDATASIZE PUSH1 0x20 DUP4 ADD CALLDATACOPY DUP1 PUSH1 0x0 SWAP3 DUP4 JUMPDEST DUP2 MLOAD DUP2 LT DUP1 PUSH2 0x776 JUMPI JUMPDEST ISZERO PUSH2 0x76A JUMPI PUSH2 0x140 PUSH2 0x709 DUP3 DUP5 PUSH2 0x19AE JUMP JUMPDEST MLOAD ADD MLOAD ISZERO ISZERO DUP1 PUSH2 0x753 JUMPI JUMPDEST PUSH2 0x727 JUMPI JUMPDEST PUSH2 0x722 SWAP1 PUSH2 0x199F JUMP JUMPDEST PUSH2 0x6ED JUMP JUMPDEST SWAP4 PUSH2 0x74B PUSH2 0x722 SWAP2 PUSH2 0x739 DUP8 DUP6 PUSH2 0x19AE JUMP JUMPDEST MLOAD MLOAD PUSH2 0x745 DUP3 DUP8 PUSH2 0x19AE JUMP JUMPDEST MSTORE PUSH2 0x199F JUMP JUMPDEST SWAP5 SWAP1 POP PUSH2 0x719 JUMP JUMPDEST POP PUSH1 0xC0 PUSH2 0x760 DUP3 DUP5 PUSH2 0x19AE JUMP JUMPDEST MLOAD ADD MLOAD ISZERO ISZERO PUSH2 0x714 JUMP JUMPDEST POP SWAP2 SWAP3 POP PUSH2 0x604 SWAP2 POP POP JUMP JUMPDEST POP PUSH1 0x2 DUP6 LT PUSH2 0x6F7 JUMP JUMPDEST POP PUSH1 0x2 DUP3 LT PUSH2 0x65D JUMP JUMPDEST RETURNDATASIZE DUP1 DUP5 DUP5 RETURNDATACOPY PUSH2 0x799 DUP2 DUP5 PUSH2 0x16DF JUMP JUMPDEST DUP3 ADD SWAP2 PUSH1 0x20 DUP2 DUP5 SUB SLT PUSH2 0x9DE JUMPI DUP1 MLOAD SWAP1 PUSH1 0x1 PUSH1 0x1 PUSH1 0x40 SHL SUB DUP3 GT PUSH2 0x9E6 JUMPI ADD SWAP1 DUP3 PUSH1 0x1F DUP4 ADD SLT ISZERO PUSH2 0x9DE JUMPI DUP2 MLOAD SWAP3 PUSH2 0x7D0 DUP5 PUSH2 0x1762 JUMP JUMPDEST SWAP5 PUSH2 0x7DE PUSH1 0x40 MLOAD SWAP7 DUP8 PUSH2 0x16DF JUMP JUMPDEST DUP5 DUP7 MSTORE PUSH1 0x20 DUP1 DUP8 ADD SWAP6 PUSH1 0x5 SHL DUP6 ADD ADD SWAP4 DUP3 DUP6 GT PUSH2 0x9E2 JUMPI PUSH1 0x20 DUP2 ADD SWAP6 JUMPDEST DUP6 DUP8 LT PUSH2 0x810 JUMPI POP POP POP POP POP POP POP DUP2 DUP1 PUSH2 0x64D JUMP JUMPDEST DUP7 MLOAD PUSH1 0x1 PUSH1 0x1 PUSH1 0x40 SHL SUB DUP2 GT PUSH2 0x9DE JUMPI DUP3 ADD PUSH2 0x1A0 DUP2 DUP7 SUB PUSH1 0x1F NOT ADD SLT PUSH2 0x9DE JUMPI PUSH1 0x40 MLOAD SWAP1 PUSH2 0x1A0 DUP3 ADD DUP3 DUP2 LT PUSH1 0x1 PUSH1 0x1 PUSH1 0x40 SHL SUB DUP3 GT OR PUSH2 0x9CA JUMPI PUSH1 0x40 MSTORE PUSH1 0x20 DUP2 ADD MLOAD DUP3 MSTORE PUSH1 0x40 DUP2 ADD MLOAD PUSH1 0x1 PUSH1 0x1 PUSH1 0x40 SHL SUB DUP2 GT PUSH2 0x9C6 JUMPI DUP7 PUSH1 0x20 PUSH2 0x878 SWAP3 DUP5 ADD ADD PUSH2 0x195A JUMP JUMPDEST PUSH1 0x20 DUP4 ADD MSTORE DUP7 DUP2 ADD MLOAD PUSH1 0x1 PUSH1 0x1 PUSH1 0x40 SHL SUB DUP2 GT PUSH2 0x9C6 JUMPI DUP7 PUSH1 0x20 PUSH2 0x89E SWAP3 DUP5 ADD ADD PUSH2 0x195A JUMP JUMPDEST PUSH1 0x40 DUP4 ADD MSTORE PUSH1 0x80 DUP2 ADD MLOAD DUP8 DUP4 ADD MSTORE PUSH1 0xA0 DUP2 ADD MLOAD PUSH1 0x80 DUP4 ADD MSTORE PUSH1 0xC0 DUP2 ADD MLOAD PUSH1 0xA0 DUP4 ADD MSTORE PUSH1 0xE0 DUP2 ADD MLOAD PUSH1 0xC0 DUP4 ADD MSTORE PUSH2 0x100 DUP2 ADD MLOAD PUSH1 0xE0 DUP4 ADD MSTORE PUSH2 0x120 DUP2 ADD MLOAD PUSH2 0x100 DUP4 ADD MSTORE PUSH2 0x140 DUP2 ADD MLOAD PUSH1 0x1 PUSH1 0x1 PUSH1 0x40 SHL SUB DUP2 GT PUSH2 0x9C6 JUMPI PUSH1 0x20 SWAP1 DUP3 ADD ADD DUP7 PUSH1 0x1F DUP3 ADD SLT ISZERO PUSH2 0x9C6 JUMPI DUP1 MLOAD SWAP1 PUSH2 0x912 DUP3 PUSH2 0x1762 JUMP JUMPDEST SWAP2 PUSH2 0x920 PUSH1 0x40 MLOAD SWAP4 DUP5 PUSH2 0x16DF JUMP JUMPDEST DUP1 DUP4 MSTORE PUSH1 0x20 DUP1 DUP5 ADD SWAP2 PUSH1 0x5 SHL DUP4 ADD ADD SWAP2 DUP10 DUP4 GT PUSH2 0x9C2 JUMPI PUSH1 0x20 DUP2 ADD SWAP2 JUMPDEST DUP4 DUP4 LT PUSH2 0x991 JUMPI POP POP POP POP SWAP2 PUSH2 0x1A0 PUSH1 0x20 SWAP5 SWAP3 DUP6 SWAP5 PUSH2 0x120 DUP5 ADD MSTORE PUSH2 0x965 PUSH2 0x160 DUP3 ADD PUSH2 0x1A63 JUMP JUMPDEST PUSH2 0x140 DUP5 ADD MSTORE PUSH2 0x978 PUSH2 0x180 DUP3 ADD PUSH2 0x1946 JUMP JUMPDEST PUSH2 0x160 DUP5 ADD MSTORE ADD MLOAD PUSH2 0x180 DUP3 ADD MSTORE DUP2 MSTORE ADD SWAP7 ADD SWAP6 PUSH2 0x7FB JUMP JUMPDEST DUP3 MLOAD PUSH1 0x1 PUSH1 0x1 PUSH1 0x40 SHL SUB DUP2 GT PUSH2 0x9BE JUMPI PUSH1 0x20 SWAP2 PUSH2 0x9B3 DUP14 DUP5 DUP1 SWAP5 DUP8 ADD ADD PUSH2 0x195A JUMP JUMPDEST DUP2 MSTORE ADD SWAP3 ADD SWAP2 PUSH2 0x93D JUMP JUMPDEST DUP11 DUP1 REVERT JUMPDEST DUP9 DUP1 REVERT JUMPDEST DUP6 DUP1 REVERT JUMPDEST PUSH4 0x4E487B71 PUSH1 0xE0 SHL DUP7 MSTORE PUSH1 0x41 PUSH1 0x4 MSTORE PUSH1 0x24 DUP7 REVERT JUMPDEST DUP4 DUP1 REVERT JUMPDEST POP DUP1 REVERT JUMPDEST DUP5 DUP1 REVERT JUMPDEST PUSH1 0x40 MLOAD RETURNDATASIZE PUSH1 0x0 DUP3 RETURNDATACOPY RETURNDATASIZE SWAP1 REVERT JUMPDEST PUSH4 0x4E487B71 PUSH1 0xE0 SHL PUSH1 0x0 MSTORE PUSH1 0x11 PUSH1 0x4 MSTORE PUSH1 0x24 PUSH1 0x0 REVERT JUMPDEST RETURNDATASIZE DUP1 DUP4 DUP4 RETURNDATACOPY PUSH2 0xA1B DUP2 DUP4 PUSH2 0x16DF JUMP JUMPDEST DUP2 ADD SWAP1 PUSH1 0x20 DUP2 DUP4 SUB SLT PUSH2 0xB07 JUMPI DUP1 MLOAD SWAP1 PUSH1 0x1 PUSH1 0x1 PUSH1 0x40 SHL SUB DUP3 GT PUSH2 0x9DE JUMPI ADD SWAP1 PUSH2 0x100 DUP3 DUP3 SUB SLT PUSH2 0xB07 JUMPI PUSH1 0x40 MLOAD SWAP3 PUSH2 0x100 DUP5 ADD DUP5 DUP2 LT PUSH1 0x1 PUSH1 0x1 PUSH1 0x40 SHL SUB DUP3 GT OR PUSH2 0xAF3 JUMPI PUSH1 0x40 MSTORE DUP3 MLOAD DUP5 MSTORE PUSH1 0x20 DUP4 ADD MLOAD PUSH1 0x1 PUSH1 0x1 PUSH1 0x40 SHL SUB DUP2 GT PUSH2 0x9E2 JUMPI DUP3 PUSH2 0xA87 SWAP2 DUP6 ADD PUSH2 0x195A JUMP JUMPDEST PUSH1 0x20 DUP6 ADD MSTORE PUSH1 0x40 DUP4 ADD MLOAD SWAP1 PUSH1 0x1 PUSH1 0x1 PUSH1 0x40 SHL SUB DUP3 GT PUSH2 0xAF0 JUMPI POP SWAP2 PUSH2 0xAB3 PUSH1 0xE0 SWAP3 PUSH1 0x80 SWAP6 SWAP5 DUP4 ADD PUSH2 0x195A JUMP JUMPDEST PUSH1 0x40 DUP5 ADD MSTORE DUP6 DUP2 ADD MLOAD DUP7 DUP5 ADD MSTORE DUP4 DUP2 ADD MLOAD DUP5 DUP5 ADD MSTORE PUSH1 0xA0 DUP2 ADD MLOAD PUSH1 0xA0 DUP5 ADD MSTORE PUSH2 0xADE PUSH1 0xC0 DUP3 ADD PUSH2 0x1A63 JUMP JUMPDEST PUSH1 0xC0 DUP5 ADD MSTORE ADD MLOAD PUSH1 0xE0 DUP3 ADD MSTORE SWAP1 PUSH2 0x5CB JUMP JUMPDEST DUP1 REVERT JUMPDEST PUSH4 0x4E487B71 PUSH1 0xE0 SHL DUP3 MSTORE PUSH1 0x41 PUSH1 0x4 MSTORE PUSH1 0x24 DUP3 REVERT JUMPDEST DUP3 DUP1 REVERT JUMPDEST CALLVALUE PUSH2 0xFC JUMPI PUSH1 0x0 CALLDATASIZE PUSH1 0x3 NOT ADD SLT PUSH2 0xFC JUMPI PUSH1 0x1 SLOAD PUSH1 0x40 MLOAD PUSH1 0x1 PUSH1 0x1 PUSH1 0xA0 SHL SUB SWAP1 SWAP2 AND DUP2 MSTORE PUSH1 0x20 SWAP1 RETURN JUMPDEST CALLVALUE PUSH2 0xFC JUMPI PUSH1 0x40 CALLDATASIZE PUSH1 0x3 NOT ADD SLT PUSH2 0xFC JUMPI PUSH1 0x24 CALLDATALOAD PUSH1 0x4 CALLDATALOAD PUSH1 0x0 MSTORE PUSH1 0x4 PUSH1 0x20 MSTORE PUSH1 0x40 PUSH1 0x0 KECCAK256 DUP1 SLOAD DUP3 LT ISZERO PUSH2 0xFC JUMPI PUSH1 0xC0 SWAP2 PUSH2 0xB6D SWAP2 PUSH2 0x18FC JUMP JUMPDEST POP DUP1 SLOAD SWAP1 PUSH1 0x1 DUP2 ADD SLOAD SWAP1 PUSH1 0x2 DUP2 ADD SLOAD PUSH1 0x3 DUP3 ADD SLOAD SWAP1 PUSH1 0xFF PUSH1 0x5 PUSH1 0x4 DUP6 ADD SLOAD SWAP5 ADD SLOAD AND SWAP4 PUSH1 0x40 MLOAD SWAP6 DUP7 MSTORE PUSH1 0x20 DUP7 ADD MSTORE PUSH1 0x40 DUP6 ADD MSTORE PUSH1 0x60 DUP5 ADD MSTORE PUSH1 0x80 DUP4 ADD MSTORE ISZERO ISZERO PUSH1 0xA0 DUP3 ADD MSTORE RETURN JUMPDEST CALLVALUE PUSH2 0xFC JUMPI PUSH1 0x20 CALLDATASIZE PUSH1 0x3 NOT ADD SLT PUSH2 0xFC JUMPI PUSH1 0x4 CALLDATALOAD PUSH1 0x0 SWAP1 DUP2 MSTORE PUSH1 0x3 PUSH1 0x20 MSTORE PUSH1 0x40 SWAP1 KECCAK256 DUP1 SLOAD PUSH1 0x1 DUP3 ADD SLOAD PUSH1 0x1 PUSH1 0x1 PUSH1 0xA0 SHL SUB AND SWAP2 PUSH2 0xBF2 PUSH1 0x2 DUP3 ADD PUSH2 0x1803 JUMP JUMPDEST PUSH2 0xBFE PUSH1 0x3 DUP4 ADD PUSH2 0x1803 JUMP JUMPDEST SWAP2 PUSH1 0x4 DUP2 ADD SLOAD SWAP3 PUSH1 0x5 DUP3 ADD SLOAD PUSH1 0x6 DUP4 ADD SLOAD PUSH1 0x7 DUP5 ADD SLOAD PUSH1 0x8 DUP6 ADD SLOAD SWAP2 PUSH1 0x9 DUP7 ADD SLOAD SWAP4 PUSH1 0xA DUP8 ADD SLOAD SWAP6 PUSH1 0xC DUP9 ADD SLOAD SWAP8 PUSH1 0xD ADD SLOAD PUSH1 0xFF AND SWAP9 PUSH1 0x40 MLOAD SWAP13 DUP14 SWAP13 DUP14 MSTORE PUSH1 0x20 DUP14 ADD MSTORE PUSH1 0x40 DUP13 ADD PUSH2 0x1A0 SWAP1 MSTORE PUSH2 0x1A0 DUP13 ADD PUSH2 0xC58 SWAP2 PUSH2 0x18CA JUMP JUMPDEST DUP12 DUP2 SUB PUSH1 0x60 DUP14 ADD MSTORE PUSH2 0xC69 SWAP2 PUSH2 0x18CA JUMP JUMPDEST SWAP9 PUSH1 0x80 DUP12 ADD MSTORE PUSH1 0xA0 DUP11 ADD MSTORE PUSH1 0xC0 DUP10 ADD MSTORE PUSH1 0xE0 DUP9 ADD MSTORE PUSH2 0x100 DUP8 ADD MSTORE PUSH2 0x120 DUP7 ADD MSTORE PUSH2 0x140 DUP6 ADD MSTORE PUSH2 0x160 DUP5 ADD MSTORE PUSH2 0x180 DUP4 ADD PUSH2 0x614 SWAP2 PUSH2 0x18EF JUMP JUMPDEST CALLVALUE PUSH2 0xFC JUMPI PUSH1 0x20 CALLDATASIZE PUSH1 0x3 NOT ADD SLT PUSH2 0xFC JUMPI PUSH1 0x1 PUSH1 0x1 PUSH1 0xA0 SHL SUB PUSH2 0xCC5 PUSH2 0x1779 JUMP JUMPDEST AND PUSH1 0x0 MSTORE PUSH1 0x5 PUSH1 0x20 MSTORE PUSH2 0x614 PUSH2 0xCDE PUSH1 0x40 PUSH1 0x0 KECCAK256 PUSH2 0x1A18 JUMP JUMPDEST PUSH1 0x40 MLOAD SWAP2 DUP3 SWAP2 DUP3 PUSH2 0x178F JUMP JUMPDEST CALLVALUE PUSH2 0xFC JUMPI PUSH1 0x20 CALLDATASIZE PUSH1 0x3 NOT ADD SLT PUSH2 0xFC JUMPI PUSH1 0x4 CALLDATALOAD DUP1 PUSH1 0x0 MSTORE PUSH1 0x3 PUSH1 0x20 MSTORE PUSH2 0xD22 PUSH1 0x1 DUP1 PUSH1 0xA0 SHL SUB PUSH1 0x1 PUSH1 0x40 PUSH1 0x0 KECCAK256 ADD SLOAD AND CALLER EQ PUSH2 0x19D9 JUMP JUMPDEST DUP1 PUSH1 0x0 MSTORE PUSH1 0x3 PUSH1 0x20 MSTORE PUSH1 0xFF PUSH1 0xD PUSH1 0x40 PUSH1 0x0 KECCAK256 ADD SLOAD AND PUSH1 0x4 DUP2 LT ISZERO PUSH2 0x474 JUMPI PUSH1 0x1 SUB PUSH2 0xD8A JUMPI DUP1 PUSH1 0x0 MSTORE PUSH1 0x3 PUSH1 0x20 MSTORE PUSH1 0xD PUSH1 0x40 PUSH1 0x0 KECCAK256 ADD PUSH1 0x2 PUSH1 0xFF NOT DUP3 SLOAD AND OR SWAP1 SSTORE PUSH32 0x59554E552A32C114E5A089A4BE2D29479B0F8FDB596321BCC6B8D64AD1F7DFFA PUSH1 0x0 DUP1 LOG2 STOP JUMPDEST PUSH1 0x40 MLOAD PUSH3 0x461BCD PUSH1 0xE5 SHL DUP2 MSTORE PUSH1 0x20 PUSH1 0x4 DUP3 ADD MSTORE PUSH1 0x17 PUSH1 0x24 DUP3 ADD MSTORE PUSH32 0x4A6F75726E6579206E6F7420696E2070726F6772657373000000000000000000 PUSH1 0x44 DUP3 ADD MSTORE PUSH1 0x64 SWAP1 REVERT JUMPDEST CALLVALUE PUSH2 0xFC JUMPI PUSH1 0x0 CALLDATASIZE PUSH1 0x3 NOT ADD SLT PUSH2 0xFC JUMPI PUSH1 0x2 SLOAD PUSH1 0x40 MLOAD PUSH1 0x1 PUSH1 0x1 PUSH1 0xA0 SHL SUB SWAP1 SWAP2 AND DUP2 MSTORE PUSH1 0x20 SWAP1 RETURN JUMPDEST CALLVALUE PUSH2 0xFC JUMPI PUSH2 0x100 CALLDATASIZE PUSH1 0x3 NOT ADD SLT PUSH2 0xFC JUMPI PUSH1 0x4 CALLDATALOAD PUSH1 0x1 PUSH1 0x1 PUSH1 0x40 SHL SUB DUP2 GT PUSH2 0xFC JUMPI PUSH2 0xE29 SWAP1 CALLDATASIZE SWAP1 PUSH1 0x4 ADD PUSH2 0x171B JUMP JUMPDEST PUSH1 0x24 CALLDATALOAD PUSH1 0x1 PUSH1 0x1 PUSH1 0x40 SHL SUB DUP2 GT PUSH2 0xFC JUMPI PUSH2 0xE48 SWAP1 CALLDATASIZE SWAP1 PUSH1 0x4 ADD PUSH2 0x171B JUMP JUMPDEST PUSH1 0x44 CALLDATALOAD SWAP2 PUSH1 0x84 CALLDATALOAD SWAP2 PUSH1 0xC4 CALLDATALOAD SWAP1 PUSH1 0xA4 CALLDATALOAD PUSH1 0x1 PUSH1 0x1 PUSH1 0x40 SHL SUB DUP4 GT PUSH2 0xFC JUMPI CALLDATASIZE PUSH1 0x23 DUP5 ADD SLT ISZERO PUSH2 0xFC JUMPI DUP3 PUSH1 0x4 ADD CALLDATALOAD SWAP3 PUSH2 0xE7F DUP5 PUSH2 0x1762 JUMP JUMPDEST SWAP4 PUSH2 0xE8D PUSH1 0x40 MLOAD SWAP6 DUP7 PUSH2 0x16DF JUMP JUMPDEST DUP1 DUP6 MSTORE PUSH1 0x24 PUSH1 0x20 DUP7 ADD SWAP2 PUSH1 0x5 SHL DUP4 ADD ADD SWAP2 CALLDATASIZE DUP4 GT PUSH2 0xFC JUMPI PUSH1 0x24 ADD SWAP1 JUMPDEST DUP3 DUP3 LT PUSH2 0x167D JUMPI POP POP POP PUSH1 0xE4 CALLDATALOAD SWAP5 PUSH1 0x1 PUSH1 0x1 PUSH1 0x40 SHL SUB DUP7 GT PUSH2 0xFC JUMPI CALLDATASIZE PUSH1 0x23 DUP8 ADD SLT ISZERO PUSH2 0xFC JUMPI DUP6 PUSH1 0x4 ADD CALLDATALOAD SWAP7 PUSH2 0xEE0 DUP9 PUSH2 0x1762 JUMP JUMPDEST SWAP7 PUSH2 0xEEE PUSH1 0x40 MLOAD SWAP9 DUP10 PUSH2 0x16DF JUMP JUMPDEST DUP9 DUP9 MSTORE PUSH1 0x24 PUSH1 0xC0 PUSH1 0x20 DUP11 ADD SWAP11 MUL DUP3 ADD ADD SWAP1 CALLDATASIZE DUP3 GT PUSH2 0xFC JUMPI PUSH1 0x24 ADD SWAP9 JUMPDEST DUP2 DUP11 LT PUSH2 0x1615 JUMPI POP POP PUSH1 0x1 SLOAD PUSH1 0x40 MLOAD PUSH4 0x43B522B PUSH1 0xE4 SHL DUP2 MSTORE CALLER PUSH1 0x4 DUP3 ADD MSTORE SWAP5 SWAP4 SWAP3 SWAP2 SWAP1 PUSH1 0x0 SWAP1 DUP7 SWAP1 PUSH1 0x24 SWAP1 DUP3 SWAP1 PUSH1 0x1 PUSH1 0x1 PUSH1 0xA0 SHL SUB AND GAS STATICCALL SWAP5 DUP6 ISZERO PUSH2 0x9EA JUMPI PUSH1 0x0 SWAP6 PUSH2 0x14EB JUMPI JUMPDEST POP DUP5 MLOAD DUP2 LT ISZERO PUSH2 0x14AE JUMPI PUSH2 0xF76 DUP2 PUSH2 0xF6C PUSH1 0x0 SLOAD PUSH2 0x199F JUMP JUMPDEST SWAP7 DUP8 PUSH1 0x0 SSTORE PUSH2 0x19AE JUMP JUMPDEST MLOAD PUSH1 0x60 DUP2 MLOAD SWAP2 ADD MLOAD SWAP3 DUP1 DUP6 ADD SWAP5 DUP6 DUP2 GT PUSH2 0x9F6 JUMPI PUSH1 0x40 MLOAD SWAP9 PUSH2 0xF97 DUP11 PUSH2 0x16C3 JUMP JUMPDEST DUP9 DUP11 MSTORE PUSH1 0x20 DUP11 ADD SWAP7 CALLER DUP9 MSTORE PUSH1 0x40 DUP12 ADD SWAP3 DUP13 DUP5 MSTORE PUSH1 0x60 DUP13 ADD SWAP5 DUP11 DUP7 MSTORE PUSH1 0x80 DUP14 ADD SWAP7 DUP8 MSTORE PUSH1 0xA0 DUP14 ADD SWAP8 DUP9 MSTORE PUSH1 0xC0 DUP14 ADD SWAP9 DUP10 MSTORE DUP13 PUSH1 0xE0 PUSH1 0x64 CALLDATALOAD SWAP2 ADD MSTORE PUSH2 0x100 DUP14 ADD MSTORE PUSH2 0x120 DUP13 ADD MSTORE PUSH2 0x140 DUP12 ADD MSTORE PUSH2 0x160 DUP11 ADD MSTORE TIMESTAMP PUSH2 0x180 DUP11 ADD MSTORE PUSH1 0x0 PUSH2 0x1A0 DUP11 ADD MSTORE DUP8 PUSH1 0x0 MSTORE PUSH1 0x3 PUSH1 0x20 MSTORE PUSH1 0x40 PUSH1 0x0 KECCAK256 SWAP6 DUP10 MLOAD DUP8 SSTORE PUSH1 0x1 DUP8 ADD SWAP1 PUSH1 0x1 DUP1 PUSH1 0xA0 SHL SUB SWAP1 MLOAD AND PUSH12 0xFFFFFFFFFFFFFFFFFFFFFFFF PUSH1 0xA0 SHL DUP3 SLOAD AND OR SWAP1 SSTORE PUSH1 0x2 DUP7 ADD SWAP1 MLOAD DUP1 MLOAD SWAP1 PUSH1 0x1 PUSH1 0x1 PUSH1 0x40 SHL SUB DUP3 GT PUSH2 0x1349 JUMPI DUP2 SWAP1 PUSH2 0x1052 DUP5 SLOAD PUSH2 0x17C9 JUMP JUMPDEST PUSH1 0x1F DUP2 GT PUSH2 0x147C JUMPI JUMPDEST POP PUSH1 0x20 SWAP1 PUSH1 0x1F DUP4 GT PUSH1 0x1 EQ PUSH2 0x1417 JUMPI PUSH1 0x0 SWAP3 PUSH2 0x140C JUMPI JUMPDEST POP POP DUP2 PUSH1 0x1 SHL SWAP2 PUSH1 0x0 NOT SWAP1 PUSH1 0x3 SHL SHR NOT AND OR SWAP1 SSTORE JUMPDEST MLOAD DUP1 MLOAD PUSH1 0x3 DUP7 ADD SWAP2 PUSH1 0x1 PUSH1 0x1 PUSH1 0x40 SHL SUB DUP3 GT PUSH2 0x1349 JUMPI DUP2 SWAP1 PUSH2 0x10A9 DUP5 SLOAD PUSH2 0x17C9 JUMP JUMPDEST PUSH1 0x1F DUP2 GT PUSH2 0x13CF JUMPI JUMPDEST POP PUSH1 0x20 SWAP1 PUSH1 0x1F DUP4 GT PUSH1 0x1 EQ PUSH2 0x136A JUMPI PUSH1 0x0 SWAP3 PUSH2 0x135F JUMPI JUMPDEST POP POP DUP2 PUSH1 0x1 SHL SWAP2 PUSH1 0x0 NOT SWAP1 PUSH1 0x3 SHL SHR NOT AND OR SWAP1 SSTORE JUMPDEST MLOAD PUSH1 0x4 DUP5 ADD SSTORE MLOAD PUSH1 0x5 DUP4 ADD SSTORE MLOAD PUSH1 0x6 DUP3 ADD SSTORE PUSH1 0xE0 DUP5 ADD MLOAD PUSH1 0x7 DUP3 ADD SSTORE PUSH2 0x100 DUP5 ADD MLOAD PUSH1 0x8 DUP3 ADD SSTORE PUSH2 0x120 DUP5 ADD MLOAD PUSH1 0x9 DUP3 ADD SSTORE PUSH2 0x140 DUP5 ADD MLOAD PUSH1 0xA DUP3 ADD SSTORE PUSH1 0xB DUP2 ADD PUSH2 0x160 DUP6 ADD MLOAD SWAP1 DUP2 MLOAD SWAP2 PUSH1 0x1 PUSH1 0x1 PUSH1 0x40 SHL SUB DUP4 GT PUSH2 0x1349 JUMPI PUSH1 0x1 PUSH1 0x40 SHL DUP4 GT PUSH2 0x1349 JUMPI PUSH1 0x20 SWAP1 DUP3 SLOAD DUP5 DUP5 SSTORE DUP1 DUP6 LT PUSH2 0x132C JUMPI JUMPDEST POP ADD SWAP1 PUSH1 0x0 MSTORE PUSH1 0x20 PUSH1 0x0 KECCAK256 PUSH1 0x0 JUMPDEST DUP4 DUP2 LT PUSH2 0x1318 JUMPI POP POP POP POP PUSH1 0xD PUSH2 0x1A0 SWAP2 PUSH2 0x180 DUP7 ADD MLOAD PUSH1 0xC DUP3 ADD SSTORE ADD SWAP4 ADD MLOAD SWAP3 PUSH1 0x4 DUP5 LT ISZERO PUSH2 0x474 JUMPI PUSH1 0x0 SWAP4 PUSH1 0xFF DUP1 NOT DUP4 SLOAD AND SWAP2 AND OR SWAP1 SSTORE DUP3 JUMPDEST DUP6 MLOAD DUP2 LT ISZERO PUSH2 0x1284 JUMPI DUP3 DUP5 MSTORE PUSH1 0x4 PUSH1 0x20 MSTORE PUSH1 0x40 DUP5 KECCAK256 PUSH2 0x11BA DUP3 DUP9 PUSH2 0x19AE JUMP JUMPDEST MLOAD SWAP1 DUP1 SLOAD SWAP1 PUSH1 0x1 PUSH1 0x40 SHL DUP3 LT ISZERO PUSH2 0x1270 JUMPI SWAP1 PUSH2 0x11DB SWAP2 PUSH1 0x1 DUP3 ADD DUP2 SSTORE PUSH2 0x18FC JUMP JUMPDEST PUSH2 0x125C JUMPI SWAP1 PUSH1 0xA0 PUSH1 0x5 PUSH1 0x1 SWAP5 SWAP4 DUP4 MLOAD DUP2 SSTORE PUSH1 0x20 DUP5 ADD MLOAD DUP7 DUP3 ADD SSTORE PUSH1 0x40 DUP5 ADD MLOAD PUSH1 0x2 DUP3 ADD SSTORE PUSH1 0x60 DUP5 ADD MLOAD PUSH1 0x3 DUP3 ADD SSTORE PUSH1 0x80 DUP5 ADD MLOAD PUSH1 0x4 DUP3 ADD SSTORE ADD SWAP2 ADD MLOAD ISZERO ISZERO PUSH1 0xFF DUP1 NOT DUP4 SLOAD AND SWAP2 AND OR SWAP1 SSTORE PUSH2 0x122F DUP2 DUP9 PUSH2 0x19AE JUMP JUMPDEST MLOAD MLOAD DUP5 PUSH32 0xB390323C7DFAA63A94A3DBE696B212E752BE9643B95951469AB742E1F64460B6 DUP8 DUP1 LOG3 ADD PUSH2 0x119B JUMP JUMPDEST PUSH4 0x4E487B71 PUSH1 0xE0 SHL DUP7 MSTORE PUSH1 0x4 DUP7 SWAP1 MSTORE PUSH1 0x24 DUP7 REVERT JUMPDEST PUSH4 0x4E487B71 PUSH1 0xE0 SHL DUP8 MSTORE PUSH1 0x41 PUSH1 0x4 MSTORE PUSH1 0x24 DUP8 REVERT JUMPDEST POP SWAP2 SWAP3 CALLER DUP5 MSTORE PUSH1 0x5 PUSH1 0x20 MSTORE PUSH1 0x40 DUP5 KECCAK256 DUP1 SLOAD SWAP1 PUSH1 0x1 PUSH1 0x40 SHL DUP3 LT ISZERO PUSH2 0x9CA JUMPI SWAP2 PUSH2 0x12D7 DUP3 PUSH32 0x3146413260740CE695CBD0C01A78D9B499F329040BBE946820CDF0AA746B495C SWAP5 PUSH1 0x1 PUSH2 0x1303 SWAP6 ADD DUP2 SSTORE PUSH2 0x192E JUMP JUMPDEST DUP2 SLOAD SWAP1 PUSH1 0x3 SHL SWAP1 DUP7 DUP3 SHL SWAP2 PUSH1 0x0 NOT SWAP1 SHL NOT AND OR SWAP1 SSTORE PUSH2 0x1312 PUSH1 0x40 MLOAD SWAP3 DUP4 SWAP3 PUSH1 0x40 DUP5 MSTORE PUSH1 0x40 DUP5 ADD SWAP1 PUSH2 0x18CA JUMP JUMPDEST DUP3 DUP2 SUB PUSH1 0x20 DUP5 ADD MSTORE CALLER SWAP7 PUSH2 0x18CA JUMP JUMPDEST SUB SWAP1 LOG3 DUP1 RETURN JUMPDEST PUSH1 0x1 SWAP1 PUSH1 0x20 DUP5 MLOAD SWAP5 ADD SWAP4 DUP2 DUP5 ADD SSTORE ADD PUSH2 0x1160 JUMP JUMPDEST PUSH2 0x1343 SWAP1 DUP5 PUSH1 0x0 MSTORE DUP6 DUP5 PUSH1 0x0 KECCAK256 SWAP2 DUP3 ADD SWAP2 ADD PUSH2 0x19C2 JUMP JUMPDEST DUP11 PUSH2 0x1152 JUMP JUMPDEST PUSH4 0x4E487B71 PUSH1 0xE0 SHL PUSH1 0x0 MSTORE PUSH1 0x41 PUSH1 0x4 MSTORE PUSH1 0x24 PUSH1 0x0 REVERT JUMPDEST ADD MLOAD SWAP1 POP DUP13 DUP1 PUSH2 0x10C9 JUMP JUMPDEST PUSH1 0x0 DUP6 DUP2 MSTORE DUP3 DUP2 KECCAK256 SWAP4 POP PUSH1 0x1F NOT DUP6 AND SWAP1 JUMPDEST DUP2 DUP2 LT PUSH2 0x13B7 JUMPI POP SWAP1 DUP5 PUSH1 0x1 SWAP6 SWAP5 SWAP4 SWAP3 LT PUSH2 0x139E JUMPI JUMPDEST POP POP POP DUP2 SHL ADD SWAP1 SSTORE PUSH2 0x10DE JUMP JUMPDEST ADD MLOAD PUSH1 0x0 NOT PUSH1 0xF8 DUP5 PUSH1 0x3 SHL AND SHR NOT AND SWAP1 SSTORE DUP13 DUP1 DUP1 PUSH2 0x1391 JUMP JUMPDEST SWAP3 SWAP4 PUSH1 0x20 PUSH1 0x1 DUP2 SWAP3 DUP8 DUP7 ADD MLOAD DUP2 SSTORE ADD SWAP6 ADD SWAP4 ADD PUSH2 0x137B JUMP JUMPDEST PUSH2 0x13FC SWAP1 DUP6 PUSH1 0x0 MSTORE PUSH1 0x20 PUSH1 0x0 KECCAK256 PUSH1 0x1F DUP6 ADD PUSH1 0x5 SHR DUP2 ADD SWAP2 PUSH1 0x20 DUP7 LT PUSH2 0x1402 JUMPI JUMPDEST PUSH1 0x1F ADD PUSH1 0x5 SHR ADD SWAP1 PUSH2 0x19C2 JUMP JUMPDEST DUP14 PUSH2 0x10B2 JUMP JUMPDEST SWAP1 SWAP2 POP DUP2 SWAP1 PUSH2 0x13EF JUMP JUMPDEST ADD MLOAD SWAP1 POP DUP14 DUP1 PUSH2 0x1072 JUMP JUMPDEST PUSH1 0x0 DUP6 DUP2 MSTORE DUP3 DUP2 KECCAK256 SWAP4 POP PUSH1 0x1F NOT DUP6 AND SWAP1 JUMPDEST DUP2 DUP2 LT PUSH2 0x1464 JUMPI POP SWAP1 DUP5 PUSH1 0x1 SWAP6 SWAP5 SWAP4 SWAP3 LT PUSH2 0x144B JUMPI JUMPDEST POP POP POP DUP2 SHL ADD SWAP1 SSTORE PUSH2 0x1087 JUMP JUMPDEST ADD MLOAD PUSH1 0x0 NOT PUSH1 0xF8 DUP5 PUSH1 0x3 SHL AND SHR NOT AND SWAP1 SSTORE DUP14 DUP1 DUP1 PUSH2 0x143E JUMP JUMPDEST SWAP3 SWAP4 PUSH1 0x20 PUSH1 0x1 DUP2 SWAP3 DUP8 DUP7 ADD MLOAD DUP2 SSTORE ADD SWAP6 ADD SWAP4 ADD PUSH2 0x1428 JUMP JUMPDEST PUSH2 0x14A8 SWAP1 DUP6 PUSH1 0x0 MSTORE PUSH1 0x20 PUSH1 0x0 KECCAK256 PUSH1 0x1F DUP6 ADD PUSH1 0x5 SHR DUP2 ADD SWAP2 PUSH1 0x20 DUP7 LT PUSH2 0x1402 JUMPI PUSH1 0x1F ADD PUSH1 0x5 SHR ADD SWAP1 PUSH2 0x19C2 JUMP JUMPDEST DUP15 PUSH2 0x105B JUMP JUMPDEST PUSH1 0x40 MLOAD PUSH3 0x461BCD PUSH1 0xE5 SHL DUP2 MSTORE PUSH1 0x20 PUSH1 0x4 DUP3 ADD MSTORE PUSH1 0x15 PUSH1 0x24 DUP3 ADD MSTORE PUSH21 0x92DCECC2D8D2C840ECCAD0D2C6D8CA40D2DCC8CAF PUSH1 0x5B SHL PUSH1 0x44 DUP3 ADD MSTORE PUSH1 0x64 SWAP1 REVERT JUMPDEST SWAP1 SWAP5 RETURNDATASIZE DUP1 DUP3 DUP5 RETURNDATACOPY PUSH2 0x14FC DUP2 DUP5 PUSH2 0x16DF JUMP JUMPDEST DUP3 ADD SWAP2 PUSH1 0x20 DUP2 DUP5 SUB SLT PUSH2 0x9E2 JUMPI DUP1 MLOAD SWAP1 PUSH1 0x1 PUSH1 0x1 PUSH1 0x40 SHL SUB DUP3 GT PUSH2 0xB07 JUMPI ADD DUP3 PUSH1 0x1F DUP3 ADD SLT ISZERO PUSH2 0x9E2 JUMPI DUP1 MLOAD SWAP2 PUSH2 0x1532 DUP4 PUSH2 0x1762 JUMP JUMPDEST SWAP4 PUSH2 0x1540 PUSH1 0x40 MLOAD SWAP6 DUP7 PUSH2 0x16DF JUMP JUMPDEST DUP4 DUP6 MSTORE PUSH1 0x20 DUP1 DUP7 ADD SWAP5 PUSH1 0x5 SHL DUP5 ADD ADD SWAP3 DUP2 DUP5 GT PUSH2 0xB07 JUMPI PUSH1 0x20 DUP2 ADD SWAP5 JUMPDEST DUP5 DUP7 LT PUSH2 0x1571 JUMPI POP POP POP POP POP POP SWAP4 DUP9 PUSH2 0xF53 JUMP JUMPDEST DUP6 MLOAD PUSH1 0x1 PUSH1 0x1 PUSH1 0x40 SHL SUB DUP2 GT PUSH2 0x9E6 JUMPI DUP3 ADD PUSH1 0xA0 DUP2 DUP6 SUB PUSH1 0x1F NOT ADD SLT PUSH2 0x9E6 JUMPI PUSH1 0x40 MLOAD SWAP1 PUSH1 0xA0 DUP3 ADD DUP3 DUP2 LT PUSH1 0x1 PUSH1 0x1 PUSH1 0x40 SHL SUB DUP3 GT OR PUSH2 0x1270 JUMPI PUSH1 0x40 MSTORE PUSH1 0x20 DUP2 ADD MLOAD DUP3 MSTORE PUSH2 0x15C1 PUSH1 0x40 DUP3 ADD PUSH2 0x1946 JUMP JUMPDEST PUSH1 0x20 DUP4 ADD MSTORE PUSH1 0x60 DUP2 ADD MLOAD PUSH1 0x1 PUSH1 0x1 PUSH1 0x40 SHL SUB DUP2 GT PUSH2 0x1611 JUMPI SWAP2 PUSH1 0xA0 DUP3 PUSH2 0x15F0 DUP9 PUSH1 0x20 DUP1 SWAP9 SWAP7 SWAP8 DUP2 SWAP9 ADD ADD PUSH2 0x195A JUMP JUMPDEST PUSH1 0x40 DUP5 ADD MSTORE PUSH1 0x80 DUP2 ADD MLOAD PUSH1 0x60 DUP5 ADD MSTORE ADD MLOAD PUSH1 0x80 DUP3 ADD MSTORE DUP2 MSTORE ADD SWAP6 ADD SWAP5 PUSH2 0x155D JUMP JUMPDEST DUP7 DUP1 REVERT JUMPDEST PUSH1 0xC0 DUP11 CALLDATASIZE SUB SLT PUSH2 0xFC JUMPI PUSH1 0x40 MLOAD SWAP1 PUSH2 0x162C DUP3 PUSH2 0x16A8 JUMP JUMPDEST DUP11 CALLDATALOAD DUP3 MSTORE PUSH1 0x20 DUP12 ADD CALLDATALOAD PUSH1 0x20 DUP4 ADD MSTORE PUSH1 0x40 DUP12 ADD CALLDATALOAD PUSH1 0x40 DUP4 ADD MSTORE PUSH1 0x60 DUP12 ADD CALLDATALOAD PUSH1 0x60 DUP4 ADD MSTORE PUSH1 0x80 DUP12 ADD CALLDATALOAD PUSH1 0x80 DUP4 ADD MSTORE PUSH1 0xA0 DUP12 ADD CALLDATALOAD SWAP1 DUP2 ISZERO ISZERO DUP3 SUB PUSH2 0xFC JUMPI DUP3 PUSH1 0x20 SWAP3 PUSH1 0xA0 PUSH1 0xC0 SWAP6 ADD MSTORE DUP2 MSTORE ADD SWAP10 ADD SWAP9 PUSH2 0xF0B JUMP JUMPDEST DUP2 CALLDATALOAD DUP2 MSTORE PUSH1 0x20 SWAP2 DUP3 ADD SWAP2 ADD PUSH2 0xEAA JUMP JUMPDEST CALLVALUE PUSH2 0xFC JUMPI PUSH1 0x0 CALLDATASIZE PUSH1 0x3 NOT ADD SLT PUSH2 0xFC JUMPI PUSH1 0x20 SWAP1 PUSH1 0x0 SLOAD DUP2 MSTORE RETURN JUMPDEST PUSH1 0xC0 DUP2 ADD SWAP1 DUP2 LT PUSH1 0x1 PUSH1 0x1 PUSH1 0x40 SHL SUB DUP3 GT OR PUSH2 0x1349 JUMPI PUSH1 0x40 MSTORE JUMP JUMPDEST PUSH2 0x1C0 DUP2 ADD SWAP1 DUP2 LT PUSH1 0x1 PUSH1 0x1 PUSH1 0x40 SHL SUB DUP3 GT OR PUSH2 0x1349 JUMPI PUSH1 0x40 MSTORE JUMP JUMPDEST SWAP1 PUSH1 0x1F DUP1 NOT SWAP2 ADD AND DUP2 ADD SWAP1 DUP2 LT PUSH1 0x1 PUSH1 0x1 PUSH1 0x40 SHL SUB DUP3 GT OR PUSH2 0x1349 JUMPI PUSH1 0x40 MSTORE JUMP JUMPDEST PUSH1 0x1 PUSH1 0x1 PUSH1 0x40 SHL SUB DUP2 GT PUSH2 0x1349 JUMPI PUSH1 0x1F ADD PUSH1 0x1F NOT AND PUSH1 0x20 ADD SWAP1 JUMP JUMPDEST DUP2 PUSH1 0x1F DUP3 ADD SLT ISZERO PUSH2 0xFC JUMPI DUP1 CALLDATALOAD SWAP1 PUSH2 0x1732 DUP3 PUSH2 0x1700 JUMP JUMPDEST SWAP3 PUSH2 0x1740 PUSH1 0x40 MLOAD SWAP5 DUP6 PUSH2 0x16DF JUMP JUMPDEST DUP3 DUP5 MSTORE PUSH1 0x20 DUP4 DUP4 ADD ADD GT PUSH2 0xFC JUMPI DUP2 PUSH1 0x0 SWAP3 PUSH1 0x20 DUP1 SWAP4 ADD DUP4 DUP7 ADD CALLDATACOPY DUP4 ADD ADD MSTORE SWAP1 JUMP JUMPDEST PUSH1 0x1 PUSH1 0x1 PUSH1 0x40 SHL SUB DUP2 GT PUSH2 0x1349 JUMPI PUSH1 0x5 SHL PUSH1 0x20 ADD SWAP1 JUMP JUMPDEST PUSH1 0x4 CALLDATALOAD SWAP1 PUSH1 0x1 PUSH1 0x1 PUSH1 0xA0 SHL SUB DUP3 AND DUP3 SUB PUSH2 0xFC JUMPI JUMP JUMPDEST PUSH1 0x20 PUSH1 0x40 DUP2 DUP4 ADD SWAP3 DUP3 DUP2 MSTORE DUP5 MLOAD DUP1 SWAP5 MSTORE ADD SWAP3 ADD SWAP1 PUSH1 0x0 JUMPDEST DUP2 DUP2 LT PUSH2 0x17B3 JUMPI POP POP POP SWAP1 JUMP JUMPDEST DUP3 MLOAD DUP5 MSTORE PUSH1 0x20 SWAP4 DUP5 ADD SWAP4 SWAP1 SWAP3 ADD SWAP2 PUSH1 0x1 ADD PUSH2 0x17A6 JUMP JUMPDEST SWAP1 PUSH1 0x1 DUP3 DUP2 SHR SWAP3 AND DUP1 ISZERO PUSH2 0x17F9 JUMPI JUMPDEST PUSH1 0x20 DUP4 LT EQ PUSH2 0x17E3 JUMPI JUMP JUMPDEST PUSH4 0x4E487B71 PUSH1 0xE0 SHL PUSH1 0x0 MSTORE PUSH1 0x22 PUSH1 0x4 MSTORE PUSH1 0x24 PUSH1 0x0 REVERT JUMPDEST SWAP2 PUSH1 0x7F AND SWAP2 PUSH2 0x17D8 JUMP JUMPDEST SWAP1 PUSH1 0x40 MLOAD SWAP2 DUP3 PUSH1 0x0 DUP3 SLOAD SWAP3 PUSH2 0x1817 DUP5 PUSH2 0x17C9 JUMP JUMPDEST DUP1 DUP5 MSTORE SWAP4 PUSH1 0x1 DUP2 AND SWAP1 DUP2 ISZERO PUSH2 0x1885 JUMPI POP PUSH1 0x1 EQ PUSH2 0x183E JUMPI JUMPDEST POP PUSH2 0x183C SWAP3 POP SUB DUP4 PUSH2 0x16DF JUMP JUMPDEST JUMP JUMPDEST SWAP1 POP PUSH1 0x0 SWAP3 SWAP2 SWAP3 MSTORE PUSH1 0x20 PUSH1 0x0 KECCAK256 SWAP1 PUSH1 0x0 SWAP2 JUMPDEST DUP2 DUP4 LT PUSH2 0x1869 JUMPI POP POP SWAP1 PUSH1 0x20 PUSH2 0x183C SWAP3 DUP3 ADD ADD CODESIZE PUSH2 0x182F JUMP JUMPDEST PUSH1 0x20 SWAP2 SWAP4 POP DUP1 PUSH1 0x1 SWAP2 SLOAD DUP4 DUP6 DUP10 ADD ADD MSTORE ADD SWAP2 ADD SWAP1 SWAP2 DUP5 SWAP3 PUSH2 0x1850 JUMP JUMPDEST SWAP1 POP PUSH1 0x20 SWAP3 POP PUSH2 0x183C SWAP5 SWAP2 POP PUSH1 0xFF NOT AND DUP3 DUP5 ADD MSTORE ISZERO ISZERO PUSH1 0x5 SHL DUP3 ADD ADD CODESIZE PUSH2 0x182F JUMP JUMPDEST PUSH1 0x0 JUMPDEST DUP4 DUP2 LT PUSH2 0x18BA JUMPI POP POP PUSH1 0x0 SWAP2 ADD MSTORE JUMP JUMPDEST DUP2 DUP2 ADD MLOAD DUP4 DUP3 ADD MSTORE PUSH1 0x20 ADD PUSH2 0x18AA JUMP JUMPDEST SWAP1 PUSH1 0x20 SWAP2 PUSH2 0x18E3 DUP2 MLOAD DUP1 SWAP3 DUP2 DUP6 MSTORE DUP6 DUP1 DUP7 ADD SWAP2 ADD PUSH2 0x18A7 JUMP JUMPDEST PUSH1 0x1F ADD PUSH1 0x1F NOT AND ADD ADD SWAP1 JUMP JUMPDEST SWAP1 PUSH1 0x4 DUP3 LT ISZERO PUSH2 0x474 JUMPI MSTORE JUMP JUMPDEST DUP1 SLOAD DUP3 LT ISZERO PUSH2 0x1918 JUMPI PUSH1 0x0 MSTORE PUSH1 0x6 PUSH1 0x20 PUSH1 0x0 KECCAK256 SWAP2 MUL ADD SWAP1 PUSH1 0x0 SWAP1 JUMP JUMPDEST PUSH4 0x4E487B71 PUSH1 0xE0 SHL PUSH1 0x0 MSTORE PUSH1 0x32 PUSH1 0x4 MSTORE PUSH1 0x24 PUSH1 0x0 REVERT JUMPDEST DUP1 SLOAD DUP3 LT ISZERO PUSH2 0x1918 JUMPI PUSH1 0x0 MSTORE PUSH1 0x20 PUSH1 0x0 KECCAK256 ADD SWAP1 PUSH1 0x0 SWAP1 JUMP JUMPDEST MLOAD SWAP1 PUSH1 0x1 PUSH1 0x1 PUSH1 0xA0 SHL SUB DUP3 AND DUP3 SUB PUSH2 0xFC JUMPI JUMP JUMPDEST DUP2 PUSH1 0x1F DUP3 ADD SLT ISZERO PUSH2 0xFC JUMPI DUP1 MLOAD PUSH2 0x1970 DUP2 PUSH2 0x1700 JUMP JUMPDEST SWAP3 PUSH2 0x197E PUSH1 0x40 MLOAD SWAP5 DUP6 PUSH2 0x16DF JUMP JUMPDEST DUP2 DUP5 MSTORE PUSH1 0x20 DUP3 DUP5 ADD ADD GT PUSH2 0xFC JUMPI PUSH2 0x199C SWAP2 PUSH1 0x20 DUP1 DUP6 ADD SWAP2 ADD PUSH2 0x18A7 JUMP JUMPDEST SWAP1 JUMP JUMPDEST PUSH1 0x0 NOT DUP2 EQ PUSH2 0x9F6 JUMPI PUSH1 0x1 ADD SWAP1 JUMP JUMPDEST DUP1 MLOAD DUP3 LT ISZERO PUSH2 0x1918 JUMPI PUSH1 0x20 SWAP2 PUSH1 0x5 SHL ADD ADD SWAP1 JUMP JUMPDEST DUP2 DUP2 LT PUSH2 0x19CD JUMPI POP POP JUMP JUMPDEST PUSH1 0x0 DUP2 SSTORE PUSH1 0x1 ADD PUSH2 0x19C2 JUMP JUMPDEST ISZERO PUSH2 0x19E0 JUMPI JUMP JUMPDEST PUSH1 0x40 MLOAD PUSH3 0x461BCD PUSH1 0xE5 SHL DUP2 MSTORE PUSH1 0x20 PUSH1 0x4 DUP3 ADD MSTORE PUSH1 0x10 PUSH1 0x24 DUP3 ADD MSTORE PUSH16 0x4E6F7420796F7572206A6F75726E6579 PUSH1 0x80 SHL PUSH1 0x44 DUP3 ADD MSTORE PUSH1 0x64 SWAP1 REVERT JUMPDEST SWAP1 PUSH1 0x40 MLOAD SWAP2 DUP3 DUP2 SLOAD SWAP2 DUP3 DUP3 MSTORE PUSH1 0x20 DUP3 ADD SWAP1 PUSH1 0x0 MSTORE PUSH1 0x20 PUSH1 0x0 KECCAK256 SWAP3 PUSH1 0x0 JUMPDEST DUP2 DUP2 LT PUSH2 0x1A4A JUMPI POP POP PUSH2 0x183C SWAP3 POP SUB DUP4 PUSH2 0x16DF JUMP JUMPDEST DUP5 SLOAD DUP4 MSTORE PUSH1 0x1 SWAP5 DUP6 ADD SWAP5 DUP8 SWAP5 POP PUSH1 0x20 SWAP1 SWAP4 ADD SWAP3 ADD PUSH2 0x1A35 JUMP JUMPDEST MLOAD SWAP1 DUP2 ISZERO ISZERO DUP3 SUB PUSH2 0xFC JUMPI JUMP INVALID LOG2 PUSH5 0x6970667358 0x22 SLT KECCAK256 GAS 0x4F KECCAK256 0xC0 GASPRICE PUSH31 0x44310D037821E628A0E8E0D7E6FD9E06CE49694C7145C79B608564736F6C63 NUMBER STOP ADDMOD SHR STOP CALLER "},"methodIdentifiers":{"calculateOptimalRoute(uint256,uint256,uint256)":"9d890374","chargingStationManager()":"5fd999b3","completeJourney(uint256)":"69abfa5d","getCurrentJourneyId()":"28da6885","getJourney(uint256)":"b5443038","getUserJourneys(address)":"6cf773ae","journeyChargingStops(uint256,uint256)":"979b01ff","journeys(uint256)":"8df5a9fa","planJourney(string,string,uint256,uint256,uint256,uint256,uint256[],(uint256,uint256,uint256,uint256,uint256,bool)[])":"38fdf9fc","startJourney(uint256)":"a8cf7c69","userJourneys(address,uint256)":"e0a7a737","vehicleRegistry()":"9d56f085"}}}}}