{"contracts/ChargingStationManager.sol":{"ChargingStationManager":{"abi":[{"inputs":[],"stateMutability":"nonpayable","type":"constructor"},{"inputs":[{"internalType":"address","name":"owner","type":"address"}],"name":"OwnableInvalidOwner","type":"error"},{"inputs":[{"internalType":"address","name":"account","type":"address"}],"name":"OwnableUnauthorizedAccount","type":"error"},{"anonymous":false,"inputs":[{"indexed":true,"internalType":"uint256","name":"stationId","type":"uint256"},{"indexed":false,"internalType":"uint256","name":"availableSlots","type":"uint256"}],"name":"AvailabilityUpdated","type":"event"},{"anonymous":false,"inputs":[{"indexed":true,"internalType":"uint256","name":"stationId","type":"uint256"},{"indexed":false,"internalType":"string","name":"name","type":"string"},{"indexed":false,"internalType":"string","name":"location","type":"string"}],"name":"ChargingStationAdded","type":"event"},{"anonymous":false,"inputs":[{"indexed":true,"internalType":"address","name":"previousOwner","type":"address"},{"indexed":true,"internalType":"address","name":"newOwner","type":"address"}],"name":"OwnershipTransferred","type":"event"},{"anonymous":false,"inputs":[{"indexed":true,"internalType":"uint256","name":"stationId","type":"uint256"},{"indexed":true,"internalType":"uint256","name":"slotNumber","type":"uint256"},{"indexed":true,"internalType":"address","name":"user","type":"address"}],"name":"SlotOccupied","type":"event"},{"anonymous":false,"inputs":[{"indexed":true,"internalType":"uint256","name":"stationId","type":"uint256"},{"indexed":true,"internalType":"uint256","name":"slotNumber","type":"uint256"}],"name":"SlotReleased","type":"event"},{"inputs":[{"internalType":"string","name":"_name","type":"string"},{"internalType":"string","name":"_location","type":"string"},{"internalType":"uint256","name":"_latitude","type":"uint256"},{"internalType":"uint256","name":"_longitude","type":"uint256"},{"internalType":"uint256","name":"_totalSlots","type":"uint256"},{"internalType":"uint256","name":"_chargingSpeed","type":"uint256"},{"internalType":"uint256","name":"_pricePerKwh","type":"uint256"},{"internalType":"string[]","name":"_amenities","type":"string[]"}],"name":"addChargingStation","outputs":[],"stateMutability":"nonpayable","type":"function"},{"inputs":[{"internalType":"uint256","name":"","type":"uint256"},{"internalType":"uint256","name":"","type":"uint256"}],"name":"chargingSlots","outputs":[{"internalType":"uint256","name":"stationId","type":"uint256"},{"internalType":"uint256","name":"slotNumber","type":"uint256"},{"internalType":"bool","name":"isOccupied","type":"bool"},{"internalType":"address","name":"currentUser","type":"address"},{"internalType":"uint256","name":"startTime","type":"uint256"},{"internalType":"uint256","name":"estimatedEndTime","type":"uint256"}],"stateMutability":"view","type":"function"},{"inputs":[{"internalType":"uint256","name":"","type":"uint256"}],"name":"chargingStations","outputs":[{"internalType":"uint256","name":"id","type":"uint256"},{"internalType":"string","name":"name","type":"string"},{"internalType":"string","name":"location","type":"string"},{"internalType":"uint256","name":"latitude","type":"uint256"},{"internalType":"uint256","name":"longitude","type":"uint256"},{"internalType":"uint256","name":"totalSlots","type":"uint256"},{"internalType":"uint256","name":"availableSlots","type":"uint256"},{"internalType":"uint256","name":"chargingSpeed","type":"uint256"},{"internalType":"uint256","name":"pricePerKwh","type":"uint256"},{"internalType":"bool","name":"isActive","type":"bool"},{"internalType":"address","name":"operator","type":"address"},{"internalType":"uint256","name":"createdAt","type":"uint256"}],"stateMutability":"view","type":"function"},{"inputs":[],"name":"getAllChargingStations","outputs":[{"components":[{"internalType":"uint256","name":"id","type":"uint256"},{"internalType":"string","name":"name","type":"string"},{"internalType":"string","name":"location","type":"string"},{"internalType":"uint256","name":"latitude","type":"uint256"},{"internalType":"uint256","name":"longitude","type":"uint256"},{"internalType":"uint256","name":"totalSlots","type":"uint256"},{"internalType":"uint256","name":"availableSlots","type":"uint256"},{"internalType":"uint256","name":"chargingSpeed","type":"uint256"},{"internalType":"uint256","name":"pricePerKwh","type":"uint256"},{"internalType":"string[]","name":"amenities","type":"string[]"},{"internalType":"bool","name":"isActive","type":"bool"},{"internalType":"address","name":"operator","type":"address"},{"internalType":"uint256","name":"createdAt","type":"uint256"}],"internalType":"struct ChargingStationManager.ChargingStation[]","name":"","type":"tuple[]"}],"stateMutability":"view","type":"function"},{"inputs":[{"internalType":"uint256","name":"_stationId","type":"uint256"}],"name":"getAvailableSlots","outputs":[{"internalType":"uint256","name":"","type":"uint256"}],"stateMutability":"view","type":"function"},{"inputs":[{"internalType":"uint256","name":"_stationId","type":"uint256"}],"name":"getChargingStation","outputs":[{"components":[{"internalType":"uint256","name":"id","type":"uint256"},{"internalType":"string","name":"name","type":"string"},{"internalType":"string","name":"location","type":"string"},{"internalType":"uint256","name":"latitude","type":"uint256"},{"internalType":"uint256","name":"longitude","type":"uint256"},{"internalType":"uint256","name":"totalSlots","type":"uint256"},{"internalType":"uint256","name":"availableSlots","type":"uint256"},{"internalType":"uint256","name":"chargingSpeed","type":"uint256"},{"internalType":"uint256","name":"pricePerKwh","type":"uint256"},{"internalType":"string[]","name":"amenities","type":"string[]"},{"internalType":"bool","name":"isActive","type":"bool"},{"internalType":"address","name":"operator","type":"address"},{"internalType":"uint256","name":"createdAt","type":"uint256"}],"internalType":"struct ChargingStationManager.ChargingStation","name":"","type":"tuple"}],"stateMutability":"view","type":"function"},{"inputs":[],"name":"getCurrentStationId","outputs":[{"internalType":"uint256","name":"","type":"uint256"}],"stateMutability":"view","type":"function"},{"inputs":[{"internalType":"uint256","name":"_stationId","type":"uint256"},{"internalType":"uint256","name":"_slotNumber","type":"uint256"},{"internalType":"uint256","name":"_estimatedEndTime","type":"uint256"}],"name":"occupySlot","outputs":[],"stateMutability":"nonpayable","type":"function"},{"inputs":[],"name":"owner","outputs":[{"internalType":"address","name":"","type":"address"}],"stateMutability":"view","type":"function"},{"inputs":[{"internalType":"uint256","name":"_stationId","type":"uint256"},{"internalType":"uint256","name":"_slotNumber","type":"uint256"}],"name":"releaseSlot","outputs":[],"stateMutability":"nonpayable","type":"function"},{"inputs":[],"name":"renounceOwnership","outputs":[],"stateMutability":"nonpayable","type":"function"},{"inputs":[{"internalType":"uint256","name":"","type":"uint256"}],"name":"stationExists","outputs":[{"internalType":"bool","name":"","type":"bool"}],"stateMutability":"view","type":"function"},{"inputs":[{"internalType":"address","name":"newOwner","type":"address"}],"name":"transferOwnership","outputs":[],"stateMutability":"nonpayable","type":"function"},{"inputs":[{"internalType":"uint256","name":"_stationId","type":"uint256"},{"internalType":"bool","name":"_isActive","type":"bool"}],"name":"updateStationAvailability","outputs":[],"stateMutability":"nonpayable","type":"function"}],"evm":{"bytecode":{"linkReferences":{},"object":"60808060405234607a57331560645760008054336001600160a01b0319821681178355916001600160a01b03909116907f8be0079c531659141344cd1fd0a4f28419497f9722a3daafe3b4186f6b6457e09080a360006001556115ef90816100808239f35b631e4fbdf760e01b600052600060045260246000fd5b600080fdfe6080604052600436101561001257600080fd5b60003560e01c80630801dfd014610fc95780631989ab3914610f605780632240fcaa14610f42578063420a7ce814610de6578063568c30af146106e15780635b0964871461066b5780635cea8f3914610604578063617b01a61461042a578063715018a6146103d15780638da5cb5b146103a8578063c1807dd0146101c2578063ddfce73f14610191578063f03c10db146101485763f2fde38b146100b657600080fd5b34610143576020366003190112610143576004356001600160a01b03811690819003610143576100e4611590565b801561012d57600080546001600160a01b03198116831782556001600160a01b0316907f8be0079c531659141344cd1fd0a4f28419497f9722a3daafe3b4186f6b6457e09080a3005b631e4fbdf760e01b600052600060045260246000fd5b600080fd5b346101435760203660031901126101435760043580600052600460205261017660ff60406000205416611396565b60005260026020526020600660406000200154604051908152f35b34610143576020366003190112610143576004356000526004602052602060ff604060002054166040519015158152f35b34610143576060366003190112610143576004356024358160005260046020526101f360ff60406000205416611396565b8015158061038d575b156103525781600052600360205260406000208160005260205260ff6002604060002001541661030d5760008281526003602081815260408084208585528252808420600280820180546001600160a81b0319163360081b610100600160a81b0316176001179055429482019490945560443560049091015585845291905290206006018054909181156102f7577f420b870d440d7db7ee2ded68bc8813f1328fb588efa2a106f71fc89135e5ba4692602092600019019055604051903390857f26a7a75a6d2c934e9e583b5010b89f0de885ec5aeaedc498534cda7337f4ee42600080a483600052600282526006604060002001548152a2005b634e487b7160e01b600052601160045260246000fd5b60405162461bcd60e51b815260206004820152601860248201527f536c6f7420697320616c7265616479206f6363757069656400000000000000006044820152606490fd5b60405162461bcd60e51b815260206004820152601360248201527224b73b30b634b21039b637ba10373ab6b132b960691b6044820152606490fd5b508160005260026020526005604060002001548111156101fc565b34610143576000366003190112610143576000546040516001600160a01b039091168152602090f35b34610143576000366003190112610143576103ea611590565b600080546001600160a01b0319811682556001600160a01b03167f8be0079c531659141344cd1fd0a4f28419497f9722a3daafe3b4186f6b6457e08280a3005b346101435761043836611380565b81600052600460205261045260ff60406000205416611396565b81600052600360205260406000208160005260205260ff60026040600020015416156105c85781600052600360205260406000208160005260205260018060a01b0360026040600020015460081c16331480156105b4575b156105635760008281526003602081815260408084208585528252808420600281810180546001600160a81b0319169055938101859055600401849055858452918152912060060180547f420b870d440d7db7ee2ded68bc8813f1328fb588efa2a106f71fc89135e5ba469391906105219061143e565b905560405190847f04145c0f85cc2163d3ed67b1f10cff2405681555bcd3d2f7aff90907e7f3764a600080a383600052600282526006604060002001548152a2005b60405162461bcd60e51b815260206004820152602360248201527f4e6f7420617574686f72697a656420746f2072656c65617365207468697320736044820152621b1bdd60ea1b6064820152608490fd5b506000546001600160a01b031633146104aa565b60405162461bcd60e51b815260206004820152601460248201527314db1bdd081a5cc81b9bdd081bd8d8dd5c1a595960621b6044820152606490fd5b34610143576020366003190112610143576004356106206113db565b5080600052600460205261063b60ff60406000205416611396565b60005260026020526106676106536040600020611477565b60405191829160208352602083019061120b565b0390f35b346101435761067936611380565b90600052600360205260406000209060005260205260c0604060002080549060018101549060028101546004600383015492015492604051948552602085015260ff81161515604085015260018060a01b039060081c166060840152608083015260a0820152f35b34610143576101003660031901126101435760043567ffffffffffffffff811161014357610713903690600401611311565b60243567ffffffffffffffff811161014357610733903690600401611311565b60e435919060843567ffffffffffffffff8411610143573660238501121561014357836004013561076381611368565b946107716040519687611104565b8186526024602087019260051b820101903682116101435760248101925b828410610db657505050506107a2611590565b6107ad60015461143e565b938460015584604051916107c0836110e7565b81835260208301868152604084019186835260608501604435815260808601606435815260a0870188815260c088019089825260e089019260a43584526101008a019460c43586526101208b019687526101408b019860018a526101608c0198338a526101808d019b428d52600052600260205260406000209c518d5560018d01905180519067ffffffffffffffff8211610acc5761085f83546110ad565b601f8111610d84575b50602090601f8311600114610d1d5761089a929160009183610b51575b50508160011b916000199060031b1c19161790565b90555b51805160028d019167ffffffffffffffff8211610acc576108be83546110ad565b601f8111610ceb575b50602090601f8311600114610c84576108f8929160009183610b515750508160011b916000199060031b1c19161790565b90555b5160038b01555160048a01555160058901555160068801555160078701555160088601555180516009860191680100000000000000008211610acc578254828455808310610c06575b50602001916000526020600020916000905b828210610ae25750505050600b92916109a991610986600a870192511515839060ff801983541691151516179055565b518154610100600160a81b03191660089190911b610100600160a81b0316179055565b5191015560015b81811115610a2257847fc83d4b361f043aadfcfabb8af19fc5c5447c2672a54a8c69548df59278e0469c610a0f86610a1d878560005260046020526040600020600160ff198254161790556040519384936040855260408501906111ca565b9083820360208501526111ca565b0390a2005b6040519060c082019180831067ffffffffffffffff841117610acc57610ac7926040528681526004602082018381526040830160008152610ab860608501916000835260808601926000845260a0870194600086528d60005260036020526040600020896000526020526040600020975188555160018801556109866002880192511515839060ff801983541691151516179055565b5160038401555191015561143e565b6109b0565b634e487b7160e01b600052604160045260246000fd5b805180519067ffffffffffffffff8211610acc57610b0086546110ad565b601f8111610bc9575b50602090601f8311600114610b5c5792610b4283600195946020948796600092610b515750508160011b916000199060031b1c19161790565b87555b01940191019092610956565b015190503880610885565b90601f1983169187600052816000209260005b818110610bb15750936020936001969387969383889510610b98575b505050811b018755610b45565b015160001960f88460031b161c19169055388080610b8b565b92936020600181928786015181550195019301610b6f565b610bf690876000526020600020601f850160051c81019160208610610bfc575b601f0160051c0190611579565b8e610b09565b9091508190610be9565b8360005282602060002091820191015b818110610c235750610944565b80610c30600192546110ad565b80610c3d575b5001610c16565b601f81118314610c535750600081555b8e610c36565b610c71908260005283601f6020600020920160051c82019101611579565b8060005260006020812081835555610c4d565b90601f1983169184600052816000209260005b818110610cd35750908460019594939210610cba575b505050811b0190556108fb565b015160001960f88460031b161c19169055388080610cad565b92936020600181928786015181550195019301610c97565b610d1790846000526020600020601f850160051c81019160208610610bfc57601f0160051c0190611579565b386108c7565b90601f1983169184600052816000209260005b818110610d6c5750908460019594939210610d53575b505050811b01905561089d565b015160001960f88460031b161c19169055388080610d46565b92936020600181928786015181550195019301610d30565b610db090846000526020600020601f850160051c81019160208610610bfc57601f0160051c0190611579565b38610868565b833567ffffffffffffffff811161014357602091610ddb839260243691870101611311565b81520193019261078f565b3461014357600036600319011261014357600154610e0381611368565b90610e116040519283611104565b808252601f19610e2082611368565b0160005b818110610f2b57505060015b81811115610ea057826040518091602082016020835281518091526040830190602060408260051b8601019301916000905b828210610e7157505050500390f35b91936001919395506020610e908192603f198a8203018652885161120b565b9601920192018594939192610e62565b80600052600460205260ff6040600020541680610f10575b610ecb575b610ec69061143e565b610e30565b8060005260026020526040600020906000198101918183116102f757610ec692610ef7610f0892611477565b610f01828861144d565b528561144d565b509050610ebd565b5080600052600260205260ff600a6040600020015416610eb8565b602090610f366113db565b82828701015201610e24565b34610143576000366003190112610143576020600154604051908152f35b3461014357604036600319011261014357600435602435801515810361014357610fc791610f8c611590565b806000526004602052610fa660ff60406000205416611396565b6000526002602052600a6040600020019060ff801983541691151516179055565b005b3461014357602036600319011261014357600435600052600260205260206040600020805490610ffb60018201611126565b61100760028301611126565b9160038101549260048201546005830154600684015490600785015492611063600887015495611055600b600a8a0154990154996101806040519e8f9e8f90815201526101808d01906111ca565b908b820360408d01526111ca565b60608a0198909852608089015260a088015260c087015260e086015261010085015260ff8116151561012085015260081c6001600160a01b03166101408401526101608301520390f35b90600182811c921680156110dd575b60208310146110c757565b634e487b7160e01b600052602260045260246000fd5b91607f16916110bc565b6101a0810190811067ffffffffffffffff821117610acc57604052565b90601f8019910116810190811067ffffffffffffffff821117610acc57604052565b906040519182600082549261113a846110ad565b80845293600181169081156111a85750600114611161575b5061115f92500383611104565b565b90506000929192526020600020906000915b81831061118c57505090602061115f9282010138611152565b6020919350806001915483858901015201910190918492611173565b90506020925061115f94915060ff191682840152151560051b82010138611152565b919082519283825260005b8481106111f6575050826000602080949584010152601f8019910116010190565b806020809284010151828286010152016111d5565b908151815261124061122e60208401516101a060208501526101a08401906111ca565b604084015183820360408501526111ca565b91606081015160608301526080810151608083015260a081015160a083015260c081015160c083015260e081015160e083015261010081015161010083015261012081015192828103610120840152835180825260208201916020808360051b8301019601926000915b8383106112e457505050610140808401511515908501525050610160808201516001600160a01b0316908301526101809081015191015290565b9091929396602080611302600193601f198682030187528b516111ca565b990193019301919392906112aa565b81601f820112156101435780359067ffffffffffffffff8211610acc5760405192611346601f8401601f191660200185611104565b8284526020838301011161014357816000926020809301838601378301015290565b67ffffffffffffffff8111610acc5760051b60200190565b6040906003190112610143576004359060243590565b1561139d57565b60405162461bcd60e51b815260206004820152601660248201527514dd185d1a5bdb88191bd95cc81b9bdd08195e1a5cdd60521b6044820152606490fd5b604051906113e8826110e7565b60006101808382815260606020820152606060408201528260608201528260808201528260a08201528260c08201528260e082015282610100820152606061012082015282610140820152826101608201520152565b60001981146102f75760010190565b80518210156114615760209160051b010190565b634e487b7160e01b600052603260045260246000fd5b90604051611484816110e7565b80928054825261149660018201611126565b60208301526114a760028201611126565b60408301526003810154606083015260048101546080830152600581015460a0830152600681015460c0830152600781015460e083015260088101546101008301526009810180546114f881611368565b916115066040519384611104565b818352602083019060005260206000206000915b83831061155c5750505050610120830152600a81015460ff8116151561014084015260081c6001600160a01b0316610160830152600b01546101809190910152565b60016020819261156b85611126565b81520192019201919061151a565b818110611584575050565b60008155600101611579565b6000546001600160a01b031633036115a457565b63118cdaa760e01b6000523360045260246000fdfea264697066735822122050adfa9b26301be0df3bab1b5eb0e73d05f55f2df836c85ee12eaa4a7390230864736f6c634300081c0033","opcodes":"PUSH1 0x80 DUP1 PUSH1 0x40 MSTORE CALLVALUE PUSH1 0x7A JUMPI CALLER ISZERO PUSH1 0x64 JUMPI PUSH1 0x0 DUP1 SLOAD CALLER PUSH1 0x1 PUSH1 0x1 PUSH1 0xA0 SHL SUB NOT DUP3 AND DUP2 OR DUP4 SSTORE SWAP2 PUSH1 0x1 PUSH1 0x1 PUSH1 0xA0 SHL SUB SWAP1 SWAP2 AND SWAP1 PUSH32 0x8BE0079C531659141344CD1FD0A4F28419497F9722A3DAAFE3B4186F6B6457E0 SWAP1 DUP1 LOG3 PUSH1 0x0 PUSH1 0x1 SSTORE PUSH2 0x15EF SWAP1 DUP2 PUSH2 0x80 DUP3 CODECOPY RETURN JUMPDEST PUSH4 0x1E4FBDF7 PUSH1 0xE0 SHL PUSH1 0x0 MSTORE PUSH1 0x0 PUSH1 0x4 MSTORE PUSH1 0x24 PUSH1 0x0 REVERT JUMPDEST PUSH1 0x0 DUP1 REVERT INVALID PUSH1 0x80 PUSH1 0x40 MSTORE PUSH1 0x4 CALLDATASIZE LT ISZERO PUSH2 0x12 JUMPI PUSH1 0x0 DUP1 REVERT JUMPDEST PUSH1 0x0 CALLDATALOAD PUSH1 0xE0 SHR DUP1 PUSH4 0x801DFD0 EQ PUSH2 0xFC9 JUMPI DUP1 PUSH4 0x1989AB39 EQ PUSH2 0xF60 JUMPI DUP1 PUSH4 0x2240FCAA EQ PUSH2 0xF42 JUMPI DUP1 PUSH4 0x420A7CE8 EQ PUSH2 0xDE6 JUMPI DUP1 PUSH4 0x568C30AF EQ PUSH2 0x6E1 JUMPI DUP1 PUSH4 0x5B096487 EQ PUSH2 0x66B JUMPI DUP1 PUSH4 0x5CEA8F39 EQ PUSH2 0x604 JUMPI DUP1 PUSH4 0x617B01A6 EQ PUSH2 0x42A JUMPI DUP1 PUSH4 0x715018A6 EQ PUSH2 0x3D1 JUMPI DUP1 PUSH4 0x8DA5CB5B EQ PUSH2 0x3A8 JUMPI DUP1 PUSH4 0xC1807DD0 EQ PUSH2 0x1C2 JUMPI DUP1 PUSH4 0xDDFCE73F EQ PUSH2 0x191 JUMPI DUP1 PUSH4 0xF03C10DB EQ PUSH2 0x148 JUMPI PUSH4 0xF2FDE38B EQ PUSH2 0xB6 JUMPI PUSH1 0x0 DUP1 REVERT JUMPDEST CALLVALUE PUSH2 0x143 JUMPI PUSH1 0x20 CALLDATASIZE PUSH1 0x3 NOT ADD SLT PUSH2 0x143 JUMPI PUSH1 0x4 CALLDATALOAD PUSH1 0x1 PUSH1 0x1 PUSH1 0xA0 SHL SUB DUP2 AND SWAP1 DUP2 SWAP1 SUB PUSH2 0x143 JUMPI PUSH2 0xE4 PUSH2 0x1590 JUMP JUMPDEST DUP1 ISZERO PUSH2 0x12D JUMPI PUSH1 0x0 DUP1 SLOAD PUSH1 0x1 PUSH1 0x1 PUSH1 0xA0 SHL SUB NOT DUP2 AND DUP4 OR DUP3 SSTORE PUSH1 0x1 PUSH1 0x1 PUSH1 0xA0 SHL SUB AND SWAP1 PUSH32 0x8BE0079C531659141344CD1FD0A4F28419497F9722A3DAAFE3B4186F6B6457E0 SWAP1 DUP1 LOG3 STOP JUMPDEST PUSH4 0x1E4FBDF7 PUSH1 0xE0 SHL PUSH1 0x0 MSTORE PUSH1 0x0 PUSH1 0x4 MSTORE PUSH1 0x24 PUSH1 0x0 REVERT JUMPDEST PUSH1 0x0 DUP1 REVERT JUMPDEST CALLVALUE PUSH2 0x143 JUMPI PUSH1 0x20 CALLDATASIZE PUSH1 0x3 NOT ADD SLT PUSH2 0x143 JUMPI PUSH1 0x4 CALLDATALOAD DUP1 PUSH1 0x0 MSTORE PUSH1 0x4 PUSH1 0x20 MSTORE PUSH2 0x176 PUSH1 0xFF PUSH1 0x40 PUSH1 0x0 KECCAK256 SLOAD AND PUSH2 0x1396 JUMP JUMPDEST PUSH1 0x0 MSTORE PUSH1 0x2 PUSH1 0x20 MSTORE PUSH1 0x20 PUSH1 0x6 PUSH1 0x40 PUSH1 0x0 KECCAK256 ADD SLOAD PUSH1 0x40 MLOAD SWAP1 DUP2 MSTORE RETURN JUMPDEST CALLVALUE PUSH2 0x143 JUMPI PUSH1 0x20 CALLDATASIZE PUSH1 0x3 NOT ADD SLT PUSH2 0x143 JUMPI PUSH1 0x4 CALLDATALOAD PUSH1 0x0 MSTORE PUSH1 0x4 PUSH1 0x20 MSTORE PUSH1 0x20 PUSH1 0xFF PUSH1 0x40 PUSH1 0x0 KECCAK256 SLOAD AND PUSH1 0x40 MLOAD SWAP1 ISZERO ISZERO DUP2 MSTORE RETURN JUMPDEST CALLVALUE PUSH2 0x143 JUMPI PUSH1 0x60 CALLDATASIZE PUSH1 0x3 NOT ADD SLT PUSH2 0x143 JUMPI PUSH1 0x4 CALLDATALOAD PUSH1 0x24 CALLDATALOAD DUP2 PUSH1 0x0 MSTORE PUSH1 0x4 PUSH1 0x20 MSTORE PUSH2 0x1F3 PUSH1 0xFF PUSH1 0x40 PUSH1 0x0 KECCAK256 SLOAD AND PUSH2 0x1396 JUMP JUMPDEST DUP1 ISZERO ISZERO DUP1 PUSH2 0x38D JUMPI JUMPDEST ISZERO PUSH2 0x352 JUMPI DUP2 PUSH1 0x0 MSTORE PUSH1 0x3 PUSH1 0x20 MSTORE PUSH1 0x40 PUSH1 0x0 KECCAK256 DUP2 PUSH1 0x0 MSTORE PUSH1 0x20 MSTORE PUSH1 0xFF PUSH1 0x2 PUSH1 0x40 PUSH1 0x0 KECCAK256 ADD SLOAD AND PUSH2 0x30D JUMPI PUSH1 0x0 DUP3 DUP2 MSTORE PUSH1 0x3 PUSH1 0x20 DUP2 DUP2 MSTORE PUSH1 0x40 DUP1 DUP5 KECCAK256 DUP6 DUP6 MSTORE DUP3 MSTORE DUP1 DUP5 KECCAK256 PUSH1 0x2 DUP1 DUP3 ADD DUP1 SLOAD PUSH1 0x1 PUSH1 0x1 PUSH1 0xA8 SHL SUB NOT AND CALLER PUSH1 0x8 SHL PUSH2 0x100 PUSH1 0x1 PUSH1 0xA8 SHL SUB AND OR PUSH1 0x1 OR SWAP1 SSTORE TIMESTAMP SWAP5 DUP3 ADD SWAP5 SWAP1 SWAP5 SSTORE PUSH1 0x44 CALLDATALOAD PUSH1 0x4 SWAP1 SWAP2 ADD SSTORE DUP6 DUP5 MSTORE SWAP2 SWAP1 MSTORE SWAP1 KECCAK256 PUSH1 0x6 ADD DUP1 SLOAD SWAP1 SWAP2 DUP2 ISZERO PUSH2 0x2F7 JUMPI PUSH32 0x420B870D440D7DB7EE2DED68BC8813F1328FB588EFA2A106F71FC89135E5BA46 SWAP3 PUSH1 0x20 SWAP3 PUSH1 0x0 NOT ADD SWAP1 SSTORE PUSH1 0x40 MLOAD SWAP1 CALLER SWAP1 DUP6 PUSH32 0x26A7A75A6D2C934E9E583B5010B89F0DE885EC5AEAEDC498534CDA7337F4EE42 PUSH1 0x0 DUP1 LOG4 DUP4 PUSH1 0x0 MSTORE PUSH1 0x2 DUP3 MSTORE PUSH1 0x6 PUSH1 0x40 PUSH1 0x0 KECCAK256 ADD SLOAD DUP2 MSTORE LOG2 STOP JUMPDEST PUSH4 0x4E487B71 PUSH1 0xE0 SHL PUSH1 0x0 MSTORE PUSH1 0x11 PUSH1 0x4 MSTORE PUSH1 0x24 PUSH1 0x0 REVERT JUMPDEST PUSH1 0x40 MLOAD PUSH3 0x461BCD PUSH1 0xE5 SHL DUP2 MSTORE PUSH1 0x20 PUSH1 0x4 DUP3 ADD MSTORE PUSH1 0x18 PUSH1 0x24 DUP3 ADD MSTORE PUSH32 0x536C6F7420697320616C7265616479206F636375706965640000000000000000 PUSH1 0x44 DUP3 ADD MSTORE PUSH1 0x64 SWAP1 REVERT JUMPDEST PUSH1 0x40 MLOAD PUSH3 0x461BCD PUSH1 0xE5 SHL DUP2 MSTORE PUSH1 0x20 PUSH1 0x4 DUP3 ADD MSTORE PUSH1 0x13 PUSH1 0x24 DUP3 ADD MSTORE PUSH19 0x24B73B30B634B21039B637BA10373AB6B132B9 PUSH1 0x69 SHL PUSH1 0x44 DUP3 ADD MSTORE PUSH1 0x64 SWAP1 REVERT JUMPDEST POP DUP2 PUSH1 0x0 MSTORE PUSH1 0x2 PUSH1 0x20 MSTORE PUSH1 0x5 PUSH1 0x40 PUSH1 0x0 KECCAK256 ADD SLOAD DUP2 GT ISZERO PUSH2 0x1FC JUMP JUMPDEST CALLVALUE PUSH2 0x143 JUMPI PUSH1 0x0 CALLDATASIZE PUSH1 0x3 NOT ADD SLT PUSH2 0x143 JUMPI PUSH1 0x0 SLOAD PUSH1 0x40 MLOAD PUSH1 0x1 PUSH1 0x1 PUSH1 0xA0 SHL SUB SWAP1 SWAP2 AND DUP2 MSTORE PUSH1 0x20 SWAP1 RETURN JUMPDEST CALLVALUE PUSH2 0x143 JUMPI PUSH1 0x0 CALLDATASIZE PUSH1 0x3 NOT ADD SLT PUSH2 0x143 JUMPI PUSH2 0x3EA PUSH2 0x1590 JUMP JUMPDEST PUSH1 0x0 DUP1 SLOAD PUSH1 0x1 PUSH1 0x1 PUSH1 0xA0 SHL SUB NOT DUP2 AND DUP3 SSTORE PUSH1 0x1 PUSH1 0x1 PUSH1 0xA0 SHL SUB AND PUSH32 0x8BE0079C531659141344CD1FD0A4F28419497F9722A3DAAFE3B4186F6B6457E0 DUP3 DUP1 LOG3 STOP JUMPDEST CALLVALUE PUSH2 0x143 JUMPI PUSH2 0x438 CALLDATASIZE PUSH2 0x1380 JUMP JUMPDEST DUP2 PUSH1 0x0 MSTORE PUSH1 0x4 PUSH1 0x20 MSTORE PUSH2 0x452 PUSH1 0xFF PUSH1 0x40 PUSH1 0x0 KECCAK256 SLOAD AND PUSH2 0x1396 JUMP JUMPDEST DUP2 PUSH1 0x0 MSTORE PUSH1 0x3 PUSH1 0x20 MSTORE PUSH1 0x40 PUSH1 0x0 KECCAK256 DUP2 PUSH1 0x0 MSTORE PUSH1 0x20 MSTORE PUSH1 0xFF PUSH1 0x2 PUSH1 0x40 PUSH1 0x0 KECCAK256 ADD SLOAD AND ISZERO PUSH2 0x5C8 JUMPI DUP2 PUSH1 0x0 MSTORE PUSH1 0x3 PUSH1 0x20 MSTORE PUSH1 0x40 PUSH1 0x0 KECCAK256 DUP2 PUSH1 0x0 MSTORE PUSH1 0x20 MSTORE PUSH1 0x1 DUP1 PUSH1 0xA0 SHL SUB PUSH1 0x2 PUSH1 0x40 PUSH1 0x0 KECCAK256 ADD SLOAD PUSH1 0x8 SHR AND CALLER EQ DUP1 ISZERO PUSH2 0x5B4 JUMPI JUMPDEST ISZERO PUSH2 0x563 JUMPI PUSH1 0x0 DUP3 DUP2 MSTORE PUSH1 0x3 PUSH1 0x20 DUP2 DUP2 MSTORE PUSH1 0x40 DUP1 DUP5 KECCAK256 DUP6 DUP6 MSTORE DUP3 MSTORE DUP1 DUP5 KECCAK256 PUSH1 0x2 DUP2 DUP2 ADD DUP1 SLOAD PUSH1 0x1 PUSH1 0x1 PUSH1 0xA8 SHL SUB NOT AND SWAP1 SSTORE SWAP4 DUP2 ADD DUP6 SWAP1 SSTORE PUSH1 0x4 ADD DUP5 SWAP1 SSTORE DUP6 DUP5 MSTORE SWAP2 DUP2 MSTORE SWAP2 KECCAK256 PUSH1 0x6 ADD DUP1 SLOAD PUSH32 0x420B870D440D7DB7EE2DED68BC8813F1328FB588EFA2A106F71FC89135E5BA46 SWAP4 SWAP2 SWAP1 PUSH2 0x521 SWAP1 PUSH2 0x143E JUMP JUMPDEST SWAP1 SSTORE PUSH1 0x40 MLOAD SWAP1 DUP5 PUSH32 0x4145C0F85CC2163D3ED67B1F10CFF2405681555BCD3D2F7AFF90907E7F3764A PUSH1 0x0 DUP1 LOG3 DUP4 PUSH1 0x0 MSTORE PUSH1 0x2 DUP3 MSTORE PUSH1 0x6 PUSH1 0x40 PUSH1 0x0 KECCAK256 ADD SLOAD DUP2 MSTORE LOG2 STOP JUMPDEST PUSH1 0x40 MLOAD PUSH3 0x461BCD PUSH1 0xE5 SHL DUP2 MSTORE PUSH1 0x20 PUSH1 0x4 DUP3 ADD MSTORE PUSH1 0x23 PUSH1 0x24 DUP3 ADD MSTORE PUSH32 0x4E6F7420617574686F72697A656420746F2072656C6561736520746869732073 PUSH1 0x44 DUP3 ADD MSTORE PUSH3 0x1B1BDD PUSH1 0xEA SHL PUSH1 0x64 DUP3 ADD MSTORE PUSH1 0x84 SWAP1 REVERT JUMPDEST POP PUSH1 0x0 SLOAD PUSH1 0x1 PUSH1 0x1 PUSH1 0xA0 SHL SUB AND CALLER EQ PUSH2 0x4AA JUMP JUMPDEST PUSH1 0x40 MLOAD PUSH3 0x461BCD PUSH1 0xE5 SHL DUP2 MSTORE PUSH1 0x20 PUSH1 0x4 DUP3 ADD MSTORE PUSH1 0x14 PUSH1 0x24 DUP3 ADD MSTORE PUSH20 0x14DB1BDD081A5CC81B9BDD081BD8D8DD5C1A5959 PUSH1 0x62 SHL PUSH1 0x44 DUP3 ADD MSTORE PUSH1 0x64 SWAP1 REVERT JUMPDEST CALLVALUE PUSH2 0x143 JUMPI PUSH1 0x20 CALLDATASIZE PUSH1 0x3 NOT ADD SLT PUSH2 0x143 JUMPI PUSH1 0x4 CALLDATALOAD PUSH2 0x620 PUSH2 0x13DB JUMP JUMPDEST POP DUP1 PUSH1 0x0 MSTORE PUSH1 0x4 PUSH1 0x20 MSTORE PUSH2 0x63B PUSH1 0xFF PUSH1 0x40 PUSH1 0x0 KECCAK256 SLOAD AND PUSH2 0x1396 JUMP JUMPDEST PUSH1 0x0 MSTORE PUSH1 0x2 PUSH1 0x20 MSTORE PUSH2 0x667 PUSH2 0x653 PUSH1 0x40 PUSH1 0x0 KECCAK256 PUSH2 0x1477 JUMP JUMPDEST PUSH1 0x40 MLOAD SWAP2 DUP3 SWAP2 PUSH1 0x20 DUP4 MSTORE PUSH1 0x20 DUP4 ADD SWAP1 PUSH2 0x120B JUMP JUMPDEST SUB SWAP1 RETURN JUMPDEST CALLVALUE PUSH2 0x143 JUMPI PUSH2 0x679 CALLDATASIZE PUSH2 0x1380 JUMP JUMPDEST SWAP1 PUSH1 0x0 MSTORE PUSH1 0x3 PUSH1 0x20 MSTORE PUSH1 0x40 PUSH1 0x0 KECCAK256 SWAP1 PUSH1 0x0 MSTORE PUSH1 0x20 MSTORE PUSH1 0xC0 PUSH1 0x40 PUSH1 0x0 KECCAK256 DUP1 SLOAD SWAP1 PUSH1 0x1 DUP2 ADD SLOAD SWAP1 PUSH1 0x2 DUP2 ADD SLOAD PUSH1 0x4 PUSH1 0x3 DUP4 ADD SLOAD SWAP3 ADD SLOAD SWAP3 PUSH1 0x40 MLOAD SWAP5 DUP6 MSTORE PUSH1 0x20 DUP6 ADD MSTORE PUSH1 0xFF DUP2 AND ISZERO ISZERO PUSH1 0x40 DUP6 ADD MSTORE PUSH1 0x1 DUP1 PUSH1 0xA0 SHL SUB SWAP1 PUSH1 0x8 SHR AND PUSH1 0x60 DUP5 ADD MSTORE PUSH1 0x80 DUP4 ADD MSTORE PUSH1 0xA0 DUP3 ADD MSTORE RETURN JUMPDEST CALLVALUE PUSH2 0x143 JUMPI PUSH2 0x100 CALLDATASIZE PUSH1 0x3 NOT ADD SLT PUSH2 0x143 JUMPI PUSH1 0x4 CALLDATALOAD PUSH8 0xFFFFFFFFFFFFFFFF DUP2 GT PUSH2 0x143 JUMPI PUSH2 0x713 SWAP1 CALLDATASIZE SWAP1 PUSH1 0x4 ADD PUSH2 0x1311 JUMP JUMPDEST PUSH1 0x24 CALLDATALOAD PUSH8 0xFFFFFFFFFFFFFFFF DUP2 GT PUSH2 0x143 JUMPI PUSH2 0x733 SWAP1 CALLDATASIZE SWAP1 PUSH1 0x4 ADD PUSH2 0x1311 JUMP JUMPDEST PUSH1 0xE4 CALLDATALOAD SWAP2 SWAP1 PUSH1 0x84 CALLDATALOAD PUSH8 0xFFFFFFFFFFFFFFFF DUP5 GT PUSH2 0x143 JUMPI CALLDATASIZE PUSH1 0x23 DUP6 ADD SLT ISZERO PUSH2 0x143 JUMPI DUP4 PUSH1 0x4 ADD CALLDATALOAD PUSH2 0x763 DUP2 PUSH2 0x1368 JUMP JUMPDEST SWAP5 PUSH2 0x771 PUSH1 0x40 MLOAD SWAP7 DUP8 PUSH2 0x1104 JUMP JUMPDEST DUP2 DUP7 MSTORE PUSH1 0x24 PUSH1 0x20 DUP8 ADD SWAP3 PUSH1 0x5 SHL DUP3 ADD ADD SWAP1 CALLDATASIZE DUP3 GT PUSH2 0x143 JUMPI PUSH1 0x24 DUP2 ADD SWAP3 JUMPDEST DUP3 DUP5 LT PUSH2 0xDB6 JUMPI POP POP POP POP PUSH2 0x7A2 PUSH2 0x1590 JUMP JUMPDEST PUSH2 0x7AD PUSH1 0x1 SLOAD PUSH2 0x143E JUMP JUMPDEST SWAP4 DUP5 PUSH1 0x1 SSTORE DUP5 PUSH1 0x40 MLOAD SWAP2 PUSH2 0x7C0 DUP4 PUSH2 0x10E7 JUMP JUMPDEST DUP2 DUP4 MSTORE PUSH1 0x20 DUP4 ADD DUP7 DUP2 MSTORE PUSH1 0x40 DUP5 ADD SWAP2 DUP7 DUP4 MSTORE PUSH1 0x60 DUP6 ADD PUSH1 0x44 CALLDATALOAD DUP2 MSTORE PUSH1 0x80 DUP7 ADD PUSH1 0x64 CALLDATALOAD DUP2 MSTORE PUSH1 0xA0 DUP8 ADD DUP9 DUP2 MSTORE PUSH1 0xC0 DUP9 ADD SWAP1 DUP10 DUP3 MSTORE PUSH1 0xE0 DUP10 ADD SWAP3 PUSH1 0xA4 CALLDATALOAD DUP5 MSTORE PUSH2 0x100 DUP11 ADD SWAP5 PUSH1 0xC4 CALLDATALOAD DUP7 MSTORE PUSH2 0x120 DUP12 ADD SWAP7 DUP8 MSTORE PUSH2 0x140 DUP12 ADD SWAP9 PUSH1 0x1 DUP11 MSTORE PUSH2 0x160 DUP13 ADD SWAP9 CALLER DUP11 MSTORE PUSH2 0x180 DUP14 ADD SWAP12 TIMESTAMP DUP14 MSTORE PUSH1 0x0 MSTORE PUSH1 0x2 PUSH1 0x20 MSTORE PUSH1 0x40 PUSH1 0x0 KECCAK256 SWAP13 MLOAD DUP14 SSTORE PUSH1 0x1 DUP14 ADD SWAP1 MLOAD DUP1 MLOAD SWAP1 PUSH8 0xFFFFFFFFFFFFFFFF DUP3 GT PUSH2 0xACC JUMPI PUSH2 0x85F DUP4 SLOAD PUSH2 0x10AD JUMP JUMPDEST PUSH1 0x1F DUP2 GT PUSH2 0xD84 JUMPI JUMPDEST POP PUSH1 0x20 SWAP1 PUSH1 0x1F DUP4 GT PUSH1 0x1 EQ PUSH2 0xD1D JUMPI PUSH2 0x89A SWAP3 SWAP2 PUSH1 0x0 SWAP2 DUP4 PUSH2 0xB51 JUMPI JUMPDEST POP POP DUP2 PUSH1 0x1 SHL SWAP2 PUSH1 0x0 NOT SWAP1 PUSH1 0x3 SHL SHR NOT AND OR SWAP1 JUMP JUMPDEST SWAP1 SSTORE JUMPDEST MLOAD DUP1 MLOAD PUSH1 0x2 DUP14 ADD SWAP2 PUSH8 0xFFFFFFFFFFFFFFFF DUP3 GT PUSH2 0xACC JUMPI PUSH2 0x8BE DUP4 SLOAD PUSH2 0x10AD JUMP JUMPDEST PUSH1 0x1F DUP2 GT PUSH2 0xCEB JUMPI JUMPDEST POP PUSH1 0x20 SWAP1 PUSH1 0x1F DUP4 GT PUSH1 0x1 EQ PUSH2 0xC84 JUMPI PUSH2 0x8F8 SWAP3 SWAP2 PUSH1 0x0 SWAP2 DUP4 PUSH2 0xB51 JUMPI POP POP DUP2 PUSH1 0x1 SHL SWAP2 PUSH1 0x0 NOT SWAP1 PUSH1 0x3 SHL SHR NOT AND OR SWAP1 JUMP JUMPDEST SWAP1 SSTORE JUMPDEST MLOAD PUSH1 0x3 DUP12 ADD SSTORE MLOAD PUSH1 0x4 DUP11 ADD SSTORE MLOAD PUSH1 0x5 DUP10 ADD SSTORE MLOAD PUSH1 0x6 DUP9 ADD SSTORE MLOAD PUSH1 0x7 DUP8 ADD SSTORE MLOAD PUSH1 0x8 DUP7 ADD SSTORE MLOAD DUP1 MLOAD PUSH1 0x9 DUP7 ADD SWAP2 PUSH9 0x10000000000000000 DUP3 GT PUSH2 0xACC JUMPI DUP3 SLOAD DUP3 DUP5 SSTORE DUP1 DUP4 LT PUSH2 0xC06 JUMPI JUMPDEST POP PUSH1 0x20 ADD SWAP2 PUSH1 0x0 MSTORE PUSH1 0x20 PUSH1 0x0 KECCAK256 SWAP2 PUSH1 0x0 SWAP1 JUMPDEST DUP3 DUP3 LT PUSH2 0xAE2 JUMPI POP POP POP POP PUSH1 0xB SWAP3 SWAP2 PUSH2 0x9A9 SWAP2 PUSH2 0x986 PUSH1 0xA DUP8 ADD SWAP3 MLOAD ISZERO ISZERO DUP4 SWAP1 PUSH1 0xFF DUP1 NOT DUP4 SLOAD AND SWAP2 ISZERO ISZERO AND OR SWAP1 SSTORE JUMP JUMPDEST MLOAD DUP2 SLOAD PUSH2 0x100 PUSH1 0x1 PUSH1 0xA8 SHL SUB NOT AND PUSH1 0x8 SWAP2 SWAP1 SWAP2 SHL PUSH2 0x100 PUSH1 0x1 PUSH1 0xA8 SHL SUB AND OR SWAP1 SSTORE JUMP JUMPDEST MLOAD SWAP2 ADD SSTORE PUSH1 0x1 JUMPDEST DUP2 DUP2 GT ISZERO PUSH2 0xA22 JUMPI DUP5 PUSH32 0xC83D4B361F043AADFCFABB8AF19FC5C5447C2672A54A8C69548DF59278E0469C PUSH2 0xA0F DUP7 PUSH2 0xA1D DUP8 DUP6 PUSH1 0x0 MSTORE PUSH1 0x4 PUSH1 0x20 MSTORE PUSH1 0x40 PUSH1 0x0 KECCAK256 PUSH1 0x1 PUSH1 0xFF NOT DUP3 SLOAD AND OR SWAP1 SSTORE PUSH1 0x40 MLOAD SWAP4 DUP5 SWAP4 PUSH1 0x40 DUP6 MSTORE PUSH1 0x40 DUP6 ADD SWAP1 PUSH2 0x11CA JUMP JUMPDEST SWAP1 DUP4 DUP3 SUB PUSH1 0x20 DUP6 ADD MSTORE PUSH2 0x11CA JUMP JUMPDEST SUB SWAP1 LOG2 STOP JUMPDEST PUSH1 0x40 MLOAD SWAP1 PUSH1 0xC0 DUP3 ADD SWAP2 DUP1 DUP4 LT PUSH8 0xFFFFFFFFFFFFFFFF DUP5 GT OR PUSH2 0xACC JUMPI PUSH2 0xAC7 SWAP3 PUSH1 0x40 MSTORE DUP7 DUP2 MSTORE PUSH1 0x4 PUSH1 0x20 DUP3 ADD DUP4 DUP2 MSTORE PUSH1 0x40 DUP4 ADD PUSH1 0x0 DUP2 MSTORE PUSH2 0xAB8 PUSH1 0x60 DUP6 ADD SWAP2 PUSH1 0x0 DUP4 MSTORE PUSH1 0x80 DUP7 ADD SWAP3 PUSH1 0x0 DUP5 MSTORE PUSH1 0xA0 DUP8 ADD SWAP5 PUSH1 0x0 DUP7 MSTORE DUP14 PUSH1 0x0 MSTORE PUSH1 0x3 PUSH1 0x20 MSTORE PUSH1 0x40 PUSH1 0x0 KECCAK256 DUP10 PUSH1 0x0 MSTORE PUSH1 0x20 MSTORE PUSH1 0x40 PUSH1 0x0 KECCAK256 SWAP8 MLOAD DUP9 SSTORE MLOAD PUSH1 0x1 DUP9 ADD SSTORE PUSH2 0x986 PUSH1 0x2 DUP9 ADD SWAP3 MLOAD ISZERO ISZERO DUP4 SWAP1 PUSH1 0xFF DUP1 NOT DUP4 SLOAD AND SWAP2 ISZERO ISZERO AND OR SWAP1 SSTORE JUMP JUMPDEST MLOAD PUSH1 0x3 DUP5 ADD SSTORE MLOAD SWAP2 ADD SSTORE PUSH2 0x143E JUMP JUMPDEST PUSH2 0x9B0 JUMP JUMPDEST PUSH4 0x4E487B71 PUSH1 0xE0 SHL PUSH1 0x0 MSTORE PUSH1 0x41 PUSH1 0x4 MSTORE PUSH1 0x24 PUSH1 0x0 REVERT JUMPDEST DUP1 MLOAD DUP1 MLOAD SWAP1 PUSH8 0xFFFFFFFFFFFFFFFF DUP3 GT PUSH2 0xACC JUMPI PUSH2 0xB00 DUP7 SLOAD PUSH2 0x10AD JUMP JUMPDEST PUSH1 0x1F DUP2 GT PUSH2 0xBC9 JUMPI JUMPDEST POP PUSH1 0x20 SWAP1 PUSH1 0x1F DUP4 GT PUSH1 0x1 EQ PUSH2 0xB5C JUMPI SWAP3 PUSH2 0xB42 DUP4 PUSH1 0x1 SWAP6 SWAP5 PUSH1 0x20 SWAP5 DUP8 SWAP7 PUSH1 0x0 SWAP3 PUSH2 0xB51 JUMPI POP POP DUP2 PUSH1 0x1 SHL SWAP2 PUSH1 0x0 NOT SWAP1 PUSH1 0x3 SHL SHR NOT AND OR SWAP1 JUMP JUMPDEST DUP8 SSTORE JUMPDEST ADD SWAP5 ADD SWAP2 ADD SWAP1 SWAP3 PUSH2 0x956 JUMP JUMPDEST ADD MLOAD SWAP1 POP CODESIZE DUP1 PUSH2 0x885 JUMP JUMPDEST SWAP1 PUSH1 0x1F NOT DUP4 AND SWAP2 DUP8 PUSH1 0x0 MSTORE DUP2 PUSH1 0x0 KECCAK256 SWAP3 PUSH1 0x0 JUMPDEST DUP2 DUP2 LT PUSH2 0xBB1 JUMPI POP SWAP4 PUSH1 0x20 SWAP4 PUSH1 0x1 SWAP7 SWAP4 DUP8 SWAP7 SWAP4 DUP4 DUP9 SWAP6 LT PUSH2 0xB98 JUMPI JUMPDEST POP POP POP DUP2 SHL ADD DUP8 SSTORE PUSH2 0xB45 JUMP JUMPDEST ADD MLOAD PUSH1 0x0 NOT PUSH1 0xF8 DUP5 PUSH1 0x3 SHL AND SHR NOT AND SWAP1 SSTORE CODESIZE DUP1 DUP1 PUSH2 0xB8B JUMP JUMPDEST SWAP3 SWAP4 PUSH1 0x20 PUSH1 0x1 DUP2 SWAP3 DUP8 DUP7 ADD MLOAD DUP2 SSTORE ADD SWAP6 ADD SWAP4 ADD PUSH2 0xB6F JUMP JUMPDEST PUSH2 0xBF6 SWAP1 DUP8 PUSH1 0x0 MSTORE PUSH1 0x20 PUSH1 0x0 KECCAK256 PUSH1 0x1F DUP6 ADD PUSH1 0x5 SHR DUP2 ADD SWAP2 PUSH1 0x20 DUP7 LT PUSH2 0xBFC JUMPI JUMPDEST PUSH1 0x1F ADD PUSH1 0x5 SHR ADD SWAP1 PUSH2 0x1579 JUMP JUMPDEST DUP15 PUSH2 0xB09 JUMP JUMPDEST SWAP1 SWAP2 POP DUP2 SWAP1 PUSH2 0xBE9 JUMP JUMPDEST DUP4 PUSH1 0x0 MSTORE DUP3 PUSH1 0x20 PUSH1 0x0 KECCAK256 SWAP2 DUP3 ADD SWAP2 ADD JUMPDEST DUP2 DUP2 LT PUSH2 0xC23 JUMPI POP PUSH2 0x944 JUMP JUMPDEST DUP1 PUSH2 0xC30 PUSH1 0x1 SWAP3 SLOAD PUSH2 0x10AD JUMP JUMPDEST DUP1 PUSH2 0xC3D JUMPI JUMPDEST POP ADD PUSH2 0xC16 JUMP JUMPDEST PUSH1 0x1F DUP2 GT DUP4 EQ PUSH2 0xC53 JUMPI POP PUSH1 0x0 DUP2 SSTORE JUMPDEST DUP15 PUSH2 0xC36 JUMP JUMPDEST PUSH2 0xC71 SWAP1 DUP3 PUSH1 0x0 MSTORE DUP4 PUSH1 0x1F PUSH1 0x20 PUSH1 0x0 KECCAK256 SWAP3 ADD PUSH1 0x5 SHR DUP3 ADD SWAP2 ADD PUSH2 0x1579 JUMP JUMPDEST DUP1 PUSH1 0x0 MSTORE PUSH1 0x0 PUSH1 0x20 DUP2 KECCAK256 DUP2 DUP4 SSTORE SSTORE PUSH2 0xC4D JUMP JUMPDEST SWAP1 PUSH1 0x1F NOT DUP4 AND SWAP2 DUP5 PUSH1 0x0 MSTORE DUP2 PUSH1 0x0 KECCAK256 SWAP3 PUSH1 0x0 JUMPDEST DUP2 DUP2 LT PUSH2 0xCD3 JUMPI POP SWAP1 DUP5 PUSH1 0x1 SWAP6 SWAP5 SWAP4 SWAP3 LT PUSH2 0xCBA JUMPI JUMPDEST POP POP POP DUP2 SHL ADD SWAP1 SSTORE PUSH2 0x8FB JUMP JUMPDEST ADD MLOAD PUSH1 0x0 NOT PUSH1 0xF8 DUP5 PUSH1 0x3 SHL AND SHR NOT AND SWAP1 SSTORE CODESIZE DUP1 DUP1 PUSH2 0xCAD JUMP JUMPDEST SWAP3 SWAP4 PUSH1 0x20 PUSH1 0x1 DUP2 SWAP3 DUP8 DUP7 ADD MLOAD DUP2 SSTORE ADD SWAP6 ADD SWAP4 ADD PUSH2 0xC97 JUMP JUMPDEST PUSH2 0xD17 SWAP1 DUP5 PUSH1 0x0 MSTORE PUSH1 0x20 PUSH1 0x0 KECCAK256 PUSH1 0x1F DUP6 ADD PUSH1 0x5 SHR DUP2 ADD SWAP2 PUSH1 0x20 DUP7 LT PUSH2 0xBFC JUMPI PUSH1 0x1F ADD PUSH1 0x5 SHR ADD SWAP1 PUSH2 0x1579 JUMP JUMPDEST CODESIZE PUSH2 0x8C7 JUMP JUMPDEST SWAP1 PUSH1 0x1F NOT DUP4 AND SWAP2 DUP5 PUSH1 0x0 MSTORE DUP2 PUSH1 0x0 KECCAK256 SWAP3 PUSH1 0x0 JUMPDEST DUP2 DUP2 LT PUSH2 0xD6C JUMPI POP SWAP1 DUP5 PUSH1 0x1 SWAP6 SWAP5 SWAP4 SWAP3 LT PUSH2 0xD53 JUMPI JUMPDEST POP POP POP DUP2 SHL ADD SWAP1 SSTORE PUSH2 0x89D JUMP JUMPDEST ADD MLOAD PUSH1 0x0 NOT PUSH1 0xF8 DUP5 PUSH1 0x3 SHL AND SHR NOT AND SWAP1 SSTORE CODESIZE DUP1 DUP1 PUSH2 0xD46 JUMP JUMPDEST SWAP3 SWAP4 PUSH1 0x20 PUSH1 0x1 DUP2 SWAP3 DUP8 DUP7 ADD MLOAD DUP2 SSTORE ADD SWAP6 ADD SWAP4 ADD PUSH2 0xD30 JUMP JUMPDEST PUSH2 0xDB0 SWAP1 DUP5 PUSH1 0x0 MSTORE PUSH1 0x20 PUSH1 0x0 KECCAK256 PUSH1 0x1F DUP6 ADD PUSH1 0x5 SHR DUP2 ADD SWAP2 PUSH1 0x20 DUP7 LT PUSH2 0xBFC JUMPI PUSH1 0x1F ADD PUSH1 0x5 SHR ADD SWAP1 PUSH2 0x1579 JUMP JUMPDEST CODESIZE PUSH2 0x868 JUMP JUMPDEST DUP4 CALLDATALOAD PUSH8 0xFFFFFFFFFFFFFFFF DUP2 GT PUSH2 0x143 JUMPI PUSH1 0x20 SWAP2 PUSH2 0xDDB DUP4 SWAP3 PUSH1 0x24 CALLDATASIZE SWAP2 DUP8 ADD ADD PUSH2 0x1311 JUMP JUMPDEST DUP2 MSTORE ADD SWAP4 ADD SWAP3 PUSH2 0x78F JUMP JUMPDEST CALLVALUE PUSH2 0x143 JUMPI PUSH1 0x0 CALLDATASIZE PUSH1 0x3 NOT ADD SLT PUSH2 0x143 JUMPI PUSH1 0x1 SLOAD PUSH2 0xE03 DUP2 PUSH2 0x1368 JUMP JUMPDEST SWAP1 PUSH2 0xE11 PUSH1 0x40 MLOAD SWAP3 DUP4 PUSH2 0x1104 JUMP JUMPDEST DUP1 DUP3 MSTORE PUSH1 0x1F NOT PUSH2 0xE20 DUP3 PUSH2 0x1368 JUMP JUMPDEST ADD PUSH1 0x0 JUMPDEST DUP2 DUP2 LT PUSH2 0xF2B JUMPI POP POP PUSH1 0x1 JUMPDEST DUP2 DUP2 GT ISZERO PUSH2 0xEA0 JUMPI DUP3 PUSH1 0x40 MLOAD DUP1 SWAP2 PUSH1 0x20 DUP3 ADD PUSH1 0x20 DUP4 MSTORE DUP2 MLOAD DUP1 SWAP2 MSTORE PUSH1 0x40 DUP4 ADD SWAP1 PUSH1 0x20 PUSH1 0x40 DUP3 PUSH1 0x5 SHL DUP7 ADD ADD SWAP4 ADD SWAP2 PUSH1 0x0 SWAP1 JUMPDEST DUP3 DUP3 LT PUSH2 0xE71 JUMPI POP POP POP POP SUB SWAP1 RETURN JUMPDEST SWAP2 SWAP4 PUSH1 0x1 SWAP2 SWAP4 SWAP6 POP PUSH1 0x20 PUSH2 0xE90 DUP2 SWAP3 PUSH1 0x3F NOT DUP11 DUP3 SUB ADD DUP7 MSTORE DUP9 MLOAD PUSH2 0x120B JUMP JUMPDEST SWAP7 ADD SWAP3 ADD SWAP3 ADD DUP6 SWAP5 SWAP4 SWAP2 SWAP3 PUSH2 0xE62 JUMP JUMPDEST DUP1 PUSH1 0x0 MSTORE PUSH1 0x4 PUSH1 0x20 MSTORE PUSH1 0xFF PUSH1 0x40 PUSH1 0x0 KECCAK256 SLOAD AND DUP1 PUSH2 0xF10 JUMPI JUMPDEST PUSH2 0xECB JUMPI JUMPDEST PUSH2 0xEC6 SWAP1 PUSH2 0x143E JUMP JUMPDEST PUSH2 0xE30 JUMP JUMPDEST DUP1 PUSH1 0x0 MSTORE PUSH1 0x2 PUSH1 0x20 MSTORE PUSH1 0x40 PUSH1 0x0 KECCAK256 SWAP1 PUSH1 0x0 NOT DUP2 ADD SWAP2 DUP2 DUP4 GT PUSH2 0x2F7 JUMPI PUSH2 0xEC6 SWAP3 PUSH2 0xEF7 PUSH2 0xF08 SWAP3 PUSH2 0x1477 JUMP JUMPDEST PUSH2 0xF01 DUP3 DUP9 PUSH2 0x144D JUMP JUMPDEST MSTORE DUP6 PUSH2 0x144D JUMP JUMPDEST POP SWAP1 POP PUSH2 0xEBD JUMP JUMPDEST POP DUP1 PUSH1 0x0 MSTORE PUSH1 0x2 PUSH1 0x20 MSTORE PUSH1 0xFF PUSH1 0xA PUSH1 0x40 PUSH1 0x0 KECCAK256 ADD SLOAD AND PUSH2 0xEB8 JUMP JUMPDEST PUSH1 0x20 SWAP1 PUSH2 0xF36 PUSH2 0x13DB JUMP JUMPDEST DUP3 DUP3 DUP8 ADD ADD MSTORE ADD PUSH2 0xE24 JUMP JUMPDEST CALLVALUE PUSH2 0x143 JUMPI PUSH1 0x0 CALLDATASIZE PUSH1 0x3 NOT ADD SLT PUSH2 0x143 JUMPI PUSH1 0x20 PUSH1 0x1 SLOAD PUSH1 0x40 MLOAD SWAP1 DUP2 MSTORE RETURN JUMPDEST CALLVALUE PUSH2 0x143 JUMPI PUSH1 0x40 CALLDATASIZE PUSH1 0x3 NOT ADD SLT PUSH2 0x143 JUMPI PUSH1 0x4 CALLDATALOAD PUSH1 0x24 CALLDATALOAD DUP1 ISZERO ISZERO DUP2 SUB PUSH2 0x143 JUMPI PUSH2 0xFC7 SWAP2 PUSH2 0xF8C PUSH2 0x1590 JUMP JUMPDEST DUP1 PUSH1 0x0 MSTORE PUSH1 0x4 PUSH1 0x20 MSTORE PUSH2 0xFA6 PUSH1 0xFF PUSH1 0x40 PUSH1 0x0 KECCAK256 SLOAD AND PUSH2 0x1396 JUMP JUMPDEST PUSH1 0x0 MSTORE PUSH1 0x2 PUSH1 0x20 MSTORE PUSH1 0xA PUSH1 0x40 PUSH1 0x0 KECCAK256 ADD SWAP1 PUSH1 0xFF DUP1 NOT DUP4 SLOAD AND SWAP2 ISZERO ISZERO AND OR SWAP1 SSTORE JUMP JUMPDEST STOP JUMPDEST CALLVALUE PUSH2 0x143 JUMPI PUSH1 0x20 CALLDATASIZE PUSH1 0x3 NOT ADD SLT PUSH2 0x143 JUMPI PUSH1 0x4 CALLDATALOAD PUSH1 0x0 MSTORE PUSH1 0x2 PUSH1 0x20 MSTORE PUSH1 0x20 PUSH1 0x40 PUSH1 0x0 KECCAK256 DUP1 SLOAD SWAP1 PUSH2 0xFFB PUSH1 0x1 DUP3 ADD PUSH2 0x1126 JUMP JUMPDEST PUSH2 0x1007 PUSH1 0x2 DUP4 ADD PUSH2 0x1126 JUMP JUMPDEST SWAP2 PUSH1 0x3 DUP2 ADD SLOAD SWAP3 PUSH1 0x4 DUP3 ADD SLOAD PUSH1 0x5 DUP4 ADD SLOAD PUSH1 0x6 DUP5 ADD SLOAD SWAP1 PUSH1 0x7 DUP6 ADD SLOAD SWAP3 PUSH2 0x1063 PUSH1 0x8 DUP8 ADD SLOAD SWAP6 PUSH2 0x1055 PUSH1 0xB PUSH1 0xA DUP11 ADD SLOAD SWAP10 ADD SLOAD SWAP10 PUSH2 0x180 PUSH1 0x40 MLOAD SWAP15 DUP16 SWAP15 DUP16 SWAP1 DUP2 MSTORE ADD MSTORE PUSH2 0x180 DUP14 ADD SWAP1 PUSH2 0x11CA JUMP JUMPDEST SWAP1 DUP12 DUP3 SUB PUSH1 0x40 DUP14 ADD MSTORE PUSH2 0x11CA JUMP JUMPDEST PUSH1 0x60 DUP11 ADD SWAP9 SWAP1 SWAP9 MSTORE PUSH1 0x80 DUP10 ADD MSTORE PUSH1 0xA0 DUP9 ADD MSTORE PUSH1 0xC0 DUP8 ADD MSTORE PUSH1 0xE0 DUP7 ADD MSTORE PUSH2 0x100 DUP6 ADD MSTORE PUSH1 0xFF DUP2 AND ISZERO ISZERO PUSH2 0x120 DUP6 ADD MSTORE PUSH1 0x8 SHR PUSH1 0x1 PUSH1 0x1 PUSH1 0xA0 SHL SUB AND PUSH2 0x140 DUP5 ADD MSTORE PUSH2 0x160 DUP4 ADD MSTORE SUB SWAP1 RETURN JUMPDEST SWAP1 PUSH1 0x1 DUP3 DUP2 SHR SWAP3 AND DUP1 ISZERO PUSH2 0x10DD JUMPI JUMPDEST PUSH1 0x20 DUP4 LT EQ PUSH2 0x10C7 JUMPI JUMP JUMPDEST PUSH4 0x4E487B71 PUSH1 0xE0 SHL PUSH1 0x0 MSTORE PUSH1 0x22 PUSH1 0x4 MSTORE PUSH1 0x24 PUSH1 0x0 REVERT JUMPDEST SWAP2 PUSH1 0x7F AND SWAP2 PUSH2 0x10BC JUMP JUMPDEST PUSH2 0x1A0 DUP2 ADD SWAP1 DUP2 LT PUSH8 0xFFFFFFFFFFFFFFFF DUP3 GT OR PUSH2 0xACC JUMPI PUSH1 0x40 MSTORE JUMP JUMPDEST SWAP1 PUSH1 0x1F DUP1 NOT SWAP2 ADD AND DUP2 ADD SWAP1 DUP2 LT PUSH8 0xFFFFFFFFFFFFFFFF DUP3 GT OR PUSH2 0xACC JUMPI PUSH1 0x40 MSTORE JUMP JUMPDEST SWAP1 PUSH1 0x40 MLOAD SWAP2 DUP3 PUSH1 0x0 DUP3 SLOAD SWAP3 PUSH2 0x113A DUP5 PUSH2 0x10AD JUMP JUMPDEST DUP1 DUP5 MSTORE SWAP4 PUSH1 0x1 DUP2 AND SWAP1 DUP2 ISZERO PUSH2 0x11A8 JUMPI POP PUSH1 0x1 EQ PUSH2 0x1161 JUMPI JUMPDEST POP PUSH2 0x115F SWAP3 POP SUB DUP4 PUSH2 0x1104 JUMP JUMPDEST JUMP JUMPDEST SWAP1 POP PUSH1 0x0 SWAP3 SWAP2 SWAP3 MSTORE PUSH1 0x20 PUSH1 0x0 KECCAK256 SWAP1 PUSH1 0x0 SWAP2 JUMPDEST DUP2 DUP4 LT PUSH2 0x118C JUMPI POP POP SWAP1 PUSH1 0x20 PUSH2 0x115F SWAP3 DUP3 ADD ADD CODESIZE PUSH2 0x1152 JUMP JUMPDEST PUSH1 0x20 SWAP2 SWAP4 POP DUP1 PUSH1 0x1 SWAP2 SLOAD DUP4 DUP6 DUP10 ADD ADD MSTORE ADD SWAP2 ADD SWAP1 SWAP2 DUP5 SWAP3 PUSH2 0x1173 JUMP JUMPDEST SWAP1 POP PUSH1 0x20 SWAP3 POP PUSH2 0x115F SWAP5 SWAP2 POP PUSH1 0xFF NOT AND DUP3 DUP5 ADD MSTORE ISZERO ISZERO PUSH1 0x5 SHL DUP3 ADD ADD CODESIZE PUSH2 0x1152 JUMP JUMPDEST SWAP2 SWAP1 DUP3 MLOAD SWAP3 DUP4 DUP3 MSTORE PUSH1 0x0 JUMPDEST DUP5 DUP2 LT PUSH2 0x11F6 JUMPI POP POP DUP3 PUSH1 0x0 PUSH1 0x20 DUP1 SWAP5 SWAP6 DUP5 ADD ADD MSTORE PUSH1 0x1F DUP1 NOT SWAP2 ADD AND ADD ADD SWAP1 JUMP JUMPDEST DUP1 PUSH1 0x20 DUP1 SWAP3 DUP5 ADD ADD MLOAD DUP3 DUP3 DUP7 ADD ADD MSTORE ADD PUSH2 0x11D5 JUMP JUMPDEST SWAP1 DUP2 MLOAD DUP2 MSTORE PUSH2 0x1240 PUSH2 0x122E PUSH1 0x20 DUP5 ADD MLOAD PUSH2 0x1A0 PUSH1 0x20 DUP6 ADD MSTORE PUSH2 0x1A0 DUP5 ADD SWAP1 PUSH2 0x11CA JUMP JUMPDEST PUSH1 0x40 DUP5 ADD MLOAD DUP4 DUP3 SUB PUSH1 0x40 DUP6 ADD MSTORE PUSH2 0x11CA JUMP JUMPDEST SWAP2 PUSH1 0x60 DUP2 ADD MLOAD PUSH1 0x60 DUP4 ADD MSTORE PUSH1 0x80 DUP2 ADD MLOAD PUSH1 0x80 DUP4 ADD MSTORE PUSH1 0xA0 DUP2 ADD MLOAD PUSH1 0xA0 DUP4 ADD MSTORE PUSH1 0xC0 DUP2 ADD MLOAD PUSH1 0xC0 DUP4 ADD MSTORE PUSH1 0xE0 DUP2 ADD MLOAD PUSH1 0xE0 DUP4 ADD MSTORE PUSH2 0x100 DUP2 ADD MLOAD PUSH2 0x100 DUP4 ADD MSTORE PUSH2 0x120 DUP2 ADD MLOAD SWAP3 DUP3 DUP2 SUB PUSH2 0x120 DUP5 ADD MSTORE DUP4 MLOAD DUP1 DUP3 MSTORE PUSH1 0x20 DUP3 ADD SWAP2 PUSH1 0x20 DUP1 DUP4 PUSH1 0x5 SHL DUP4 ADD ADD SWAP7 ADD SWAP3 PUSH1 0x0 SWAP2 JUMPDEST DUP4 DUP4 LT PUSH2 0x12E4 JUMPI POP POP POP PUSH2 0x140 DUP1 DUP5 ADD MLOAD ISZERO ISZERO SWAP1 DUP6 ADD MSTORE POP POP PUSH2 0x160 DUP1 DUP3 ADD MLOAD PUSH1 0x1 PUSH1 0x1 PUSH1 0xA0 SHL SUB AND SWAP1 DUP4 ADD MSTORE PUSH2 0x180 SWAP1 DUP2 ADD MLOAD SWAP2 ADD MSTORE SWAP1 JUMP JUMPDEST SWAP1 SWAP2 SWAP3 SWAP4 SWAP7 PUSH1 0x20 DUP1 PUSH2 0x1302 PUSH1 0x1 SWAP4 PUSH1 0x1F NOT DUP7 DUP3 SUB ADD DUP8 MSTORE DUP12 MLOAD PUSH2 0x11CA JUMP JUMPDEST SWAP10 ADD SWAP4 ADD SWAP4 ADD SWAP2 SWAP4 SWAP3 SWAP1 PUSH2 0x12AA JUMP JUMPDEST DUP2 PUSH1 0x1F DUP3 ADD SLT ISZERO PUSH2 0x143 JUMPI DUP1 CALLDATALOAD SWAP1 PUSH8 0xFFFFFFFFFFFFFFFF DUP3 GT PUSH2 0xACC JUMPI PUSH1 0x40 MLOAD SWAP3 PUSH2 0x1346 PUSH1 0x1F DUP5 ADD PUSH1 0x1F NOT AND PUSH1 0x20 ADD DUP6 PUSH2 0x1104 JUMP JUMPDEST DUP3 DUP5 MSTORE PUSH1 0x20 DUP4 DUP4 ADD ADD GT PUSH2 0x143 JUMPI DUP2 PUSH1 0x0 SWAP3 PUSH1 0x20 DUP1 SWAP4 ADD DUP4 DUP7 ADD CALLDATACOPY DUP4 ADD ADD MSTORE SWAP1 JUMP JUMPDEST PUSH8 0xFFFFFFFFFFFFFFFF DUP2 GT PUSH2 0xACC JUMPI PUSH1 0x5 SHL PUSH1 0x20 ADD SWAP1 JUMP JUMPDEST PUSH1 0x40 SWAP1 PUSH1 0x3 NOT ADD SLT PUSH2 0x143 JUMPI PUSH1 0x4 CALLDATALOAD SWAP1 PUSH1 0x24 CALLDATALOAD SWAP1 JUMP JUMPDEST ISZERO PUSH2 0x139D JUMPI JUMP JUMPDEST PUSH1 0x40 MLOAD PUSH3 0x461BCD PUSH1 0xE5 SHL DUP2 MSTORE PUSH1 0x20 PUSH1 0x4 DUP3 ADD MSTORE PUSH1 0x16 PUSH1 0x24 DUP3 ADD MSTORE PUSH22 0x14DD185D1A5BDB88191BD95CC81B9BDD08195E1A5CDD PUSH1 0x52 SHL PUSH1 0x44 DUP3 ADD MSTORE PUSH1 0x64 SWAP1 REVERT JUMPDEST PUSH1 0x40 MLOAD SWAP1 PUSH2 0x13E8 DUP3 PUSH2 0x10E7 JUMP JUMPDEST PUSH1 0x0 PUSH2 0x180 DUP4 DUP3 DUP2 MSTORE PUSH1 0x60 PUSH1 0x20 DUP3 ADD MSTORE PUSH1 0x60 PUSH1 0x40 DUP3 ADD MSTORE DUP3 PUSH1 0x60 DUP3 ADD MSTORE DUP3 PUSH1 0x80 DUP3 ADD MSTORE DUP3 PUSH1 0xA0 DUP3 ADD MSTORE DUP3 PUSH1 0xC0 DUP3 ADD MSTORE DUP3 PUSH1 0xE0 DUP3 ADD MSTORE DUP3 PUSH2 0x100 DUP3 ADD MSTORE PUSH1 0x60 PUSH2 0x120 DUP3 ADD MSTORE DUP3 PUSH2 0x140 DUP3 ADD MSTORE DUP3 PUSH2 0x160 DUP3 ADD MSTORE ADD MSTORE JUMP JUMPDEST PUSH1 0x0 NOT DUP2 EQ PUSH2 0x2F7 JUMPI PUSH1 0x1 ADD SWAP1 JUMP JUMPDEST DUP1 MLOAD DUP3 LT ISZERO PUSH2 0x1461 JUMPI PUSH1 0x20 SWAP2 PUSH1 0x5 SHL ADD ADD SWAP1 JUMP JUMPDEST PUSH4 0x4E487B71 PUSH1 0xE0 SHL PUSH1 0x0 MSTORE PUSH1 0x32 PUSH1 0x4 MSTORE PUSH1 0x24 PUSH1 0x0 REVERT JUMPDEST SWAP1 PUSH1 0x40 MLOAD PUSH2 0x1484 DUP2 PUSH2 0x10E7 JUMP JUMPDEST DUP1 SWAP3 DUP1 SLOAD DUP3 MSTORE PUSH2 0x1496 PUSH1 0x1 DUP3 ADD PUSH2 0x1126 JUMP JUMPDEST PUSH1 0x20 DUP4 ADD MSTORE PUSH2 0x14A7 PUSH1 0x2 DUP3 ADD PUSH2 0x1126 JUMP JUMPDEST PUSH1 0x40 DUP4 ADD MSTORE PUSH1 0x3 DUP2 ADD SLOAD PUSH1 0x60 DUP4 ADD MSTORE PUSH1 0x4 DUP2 ADD SLOAD PUSH1 0x80 DUP4 ADD MSTORE PUSH1 0x5 DUP2 ADD SLOAD PUSH1 0xA0 DUP4 ADD MSTORE PUSH1 0x6 DUP2 ADD SLOAD PUSH1 0xC0 DUP4 ADD MSTORE PUSH1 0x7 DUP2 ADD SLOAD PUSH1 0xE0 DUP4 ADD MSTORE PUSH1 0x8 DUP2 ADD SLOAD PUSH2 0x100 DUP4 ADD MSTORE PUSH1 0x9 DUP2 ADD DUP1 SLOAD PUSH2 0x14F8 DUP2 PUSH2 0x1368 JUMP JUMPDEST SWAP2 PUSH2 0x1506 PUSH1 0x40 MLOAD SWAP4 DUP5 PUSH2 0x1104 JUMP JUMPDEST DUP2 DUP4 MSTORE PUSH1 0x20 DUP4 ADD SWAP1 PUSH1 0x0 MSTORE PUSH1 0x20 PUSH1 0x0 KECCAK256 PUSH1 0x0 SWAP2 JUMPDEST DUP4 DUP4 LT PUSH2 0x155C JUMPI POP POP POP POP PUSH2 0x120 DUP4 ADD MSTORE PUSH1 0xA DUP2 ADD SLOAD PUSH1 0xFF DUP2 AND ISZERO ISZERO PUSH2 0x140 DUP5 ADD MSTORE PUSH1 0x8 SHR PUSH1 0x1 PUSH1 0x1 PUSH1 0xA0 SHL SUB AND PUSH2 0x160 DUP4 ADD MSTORE PUSH1 0xB ADD SLOAD PUSH2 0x180 SWAP2 SWAP1 SWAP2 ADD MSTORE JUMP JUMPDEST PUSH1 0x1 PUSH1 0x20 DUP2 SWAP3 PUSH2 0x156B DUP6 PUSH2 0x1126 JUMP JUMPDEST DUP2 MSTORE ADD SWAP3 ADD SWAP3 ADD SWAP2 SWAP1 PUSH2 0x151A JUMP JUMPDEST DUP2 DUP2 LT PUSH2 0x1584 JUMPI POP POP JUMP JUMPDEST PUSH1 0x0 DUP2 SSTORE PUSH1 0x1 ADD PUSH2 0x1579 JUMP JUMPDEST PUSH1 0x0 SLOAD PUSH1 0x1 PUSH1 0x1 PUSH1 0xA0 SHL SUB AND CALLER SUB PUSH2 0x15A4 JUMPI JUMP JUMPDEST PUSH4 0x118CDAA7 PUSH1 0xE0 SHL PUSH1 0x0 MSTORE CALLER PUSH1 0x4 MSTORE PUSH1 0x24 PUSH1 0x0 REVERT INVALID LOG2 PUSH5 0x6970667358 0x22 SLT KECCAK256 POP 0xAD STATICCALL SWAP12 0x26 ADDRESS SHL 0xE0 0xDF EXTCODESIZE 0xAB SHL MCOPY 0xB0 0xE7 RETURNDATASIZE SDIV CREATE2 PUSH0 0x2D 0xF8 CALLDATASIZE 0xC8 MCOPY 0xE1 0x2E 0xAA BLOBBASEFEE PUSH20 0x90230864736F6C634300081C0033000000000000 "},"methodIdentifiers":{"addChargingStation(string,string,uint256,uint256,uint256,uint256,uint256,string[])":"568c30af","chargingSlots(uint256,uint256)":"5b096487","chargingStations(uint256)":"0801dfd0","getAllChargingStations()":"420a7ce8","getAvailableSlots(uint256)":"f03c10db","getChargingStation(uint256)":"5cea8f39","getCurrentStationId()":"2240fcaa","occupySlot(uint256,uint256,uint256)":"c1807dd0","owner()":"8da5cb5b","releaseSlot(uint256,uint256)":"617b01a6","renounceOwnership()":"715018a6","stationExists(uint256)":"ddfce73f","transferOwnership(address)":"f2fde38b","updateStationAvailability(uint256,bool)":"1989ab39"}}}}}