{"contracts/BookingManager.sol":{"BookingManager":{"abi":[{"inputs":[{"internalType":"address","name":"_chargingStationManager","type":"address"}],"stateMutability":"nonpayable","type":"constructor"},{"inputs":[],"name":"ReentrancyGuardReentrantCall","type":"error"},{"anonymous":false,"inputs":[{"indexed":true,"internalType":"uint256","name":"bookingId","type":"uint256"}],"name":"BookingCancelled","type":"event"},{"anonymous":false,"inputs":[{"indexed":true,"internalType":"uint256","name":"bookingId","type":"uint256"},{"indexed":false,"internalType":"uint256","name":"totalCost","type":"uint256"}],"name":"BookingCompleted","type":"event"},{"anonymous":false,"inputs":[{"indexed":true,"internalType":"uint256","name":"bookingId","type":"uint256"}],"name":"BookingConfirmed","type":"event"},{"anonymous":false,"inputs":[{"indexed":true,"internalType":"uint256","name":"bookingId","type":"uint256"},{"indexed":true,"internalType":"address","name":"user","type":"address"},{"indexed":true,"internalType":"uint256","name":"stationId","type":"uint256"}],"name":"BookingCreated","type":"event"},{"anonymous":false,"inputs":[{"indexed":true,"internalType":"uint256","name":"bookingId","type":"uint256"}],"name":"BookingStarted","type":"event"},{"anonymous":false,"inputs":[{"indexed":true,"internalType":"uint256","name":"bookingId","type":"uint256"},{"indexed":false,"internalType":"uint256","name":"amount","type":"uint256"}],"name":"PaymentReceived","type":"event"},{"inputs":[{"internalType":"uint256","name":"","type":"uint256"}],"name":"bookings","outputs":[{"internalType":"uint256","name":"id","type":"uint256"},{"internalType":"address","name":"user","type":"address"},{"internalType":"uint256","name":"stationId","type":"uint256"},{"internalType":"uint256","name":"slotNumber","type":"uint256"},{"internalType":"uint256","name":"journeyId","type":"uint256"},{"internalType":"uint256","name":"scheduledStartTime","type":"uint256"},{"internalType":"uint256","name":"scheduledEndTime","type":"uint256"},{"internalType":"uint256","name":"estimatedChargingDuration","type":"uint256"},{"internalType":"uint256","name":"bookedAt","type":"uint256"},{"internalType":"enum BookingManager.BookingStatus","name":"status","type":"uint8"},{"internalType":"uint256","name":"actualStartTime","type":"uint256"},{"internalType":"uint256","name":"actualEndTime","type":"uint256"},{"internalType":"uint256","name":"totalCost","type":"uint256"},{"internalType":"bool","name":"isPaid","type":"bool"}],"stateMutability":"view","type":"function"},{"inputs":[{"internalType":"uint256","name":"_bookingId","type":"uint256"}],"name":"cancelBooking","outputs":[],"stateMutability":"nonpayable","type":"function"},{"inputs":[],"name":"chargingStationManager","outputs":[{"internalType":"contract ChargingStationManager","name":"","type":"address"}],"stateMutability":"view","type":"function"},{"inputs":[{"internalType":"uint256","name":"_bookingId","type":"uint256"},{"internalType":"uint256","name":"_energyConsumed","type":"uint256"}],"name":"completeCharging","outputs":[],"stateMutability":"payable","type":"function"},{"inputs":[{"internalType":"uint256","name":"_bookingId","type":"uint256"}],"name":"confirmBooking","outputs":[],"stateMutability":"nonpayable","type":"function"},{"inputs":[{"internalType":"uint256","name":"_stationId","type":"uint256"},{"internalType":"uint256","name":"_slotNumber","type":"uint256"},{"internalType":"uint256","name":"_journeyId","type":"uint256"},{"internalType":"uint256","name":"_scheduledStartTime","type":"uint256"},{"internalType":"uint256","name":"_estimatedChargingDuration","type":"uint256"}],"name":"createBooking","outputs":[],"stateMutability":"nonpayable","type":"function"},{"inputs":[{"internalType":"uint256","name":"_bookingId","type":"uint256"}],"name":"getBooking","outputs":[{"components":[{"internalType":"uint256","name":"id","type":"uint256"},{"internalType":"address","name":"user","type":"address"},{"internalType":"uint256","name":"stationId","type":"uint256"},{"internalType":"uint256","name":"slotNumber","type":"uint256"},{"internalType":"uint256","name":"journeyId","type":"uint256"},{"internalType":"uint256","name":"scheduledStartTime","type":"uint256"},{"internalType":"uint256","name":"scheduledEndTime","type":"uint256"},{"internalType":"uint256","name":"estimatedChargingDuration","type":"uint256"},{"internalType":"uint256","name":"bookedAt","type":"uint256"},{"internalType":"enum BookingManager.BookingStatus","name":"status","type":"uint8"},{"internalType":"uint256","name":"actualStartTime","type":"uint256"},{"internalType":"uint256","name":"actualEndTime","type":"uint256"},{"internalType":"uint256","name":"totalCost","type":"uint256"},{"internalType":"bool","name":"isPaid","type":"bool"}],"internalType":"struct BookingManager.Booking","name":"","type":"tuple"}],"stateMutability":"view","type":"function"},{"inputs":[],"name":"getCurrentBookingId","outputs":[{"internalType":"uint256","name":"","type":"uint256"}],"stateMutability":"view","type":"function"},{"inputs":[{"internalType":"uint256","name":"_journeyId","type":"uint256"}],"name":"getJourneyBookings","outputs":[{"internalType":"uint256[]","name":"","type":"uint256[]"}],"stateMutability":"view","type":"function"},{"inputs":[{"internalType":"address","name":"_user","type":"address"}],"name":"getUserBookings","outputs":[{"internalType":"uint256[]","name":"","type":"uint256[]"}],"stateMutability":"view","type":"function"},{"inputs":[{"internalType":"uint256","name":"_stationId","type":"uint256"},{"internalType":"uint256","name":"_slotNumber","type":"uint256"},{"internalType":"uint256","name":"_startTime","type":"uint256"},{"internalType":"uint256","name":"_endTime","type":"uint256"}],"name":"isSlotAvailable","outputs":[{"internalType":"bool","name":"","type":"bool"}],"stateMutability":"view","type":"function"},{"inputs":[{"internalType":"uint256","name":"","type":"uint256"},{"internalType":"uint256","name":"","type":"uint256"}],"name":"journeyBookings","outputs":[{"internalType":"uint256","name":"","type":"uint256"}],"stateMutability":"view","type":"function"},{"inputs":[{"internalType":"uint256","name":"_bookingId","type":"uint256"}],"name":"startCharging","outputs":[],"stateMutability":"nonpayable","type":"function"},{"inputs":[{"internalType":"uint256","name":"","type":"uint256"},{"internalType":"uint256","name":"","type":"uint256"}],"name":"stationSlotBookings","outputs":[{"internalType":"uint256","name":"","type":"uint256"}],"stateMutability":"view","type":"function"},{"inputs":[{"internalType":"address","name":"","type":"address"},{"internalType":"uint256","name":"","type":"uint256"}],"name":"userBookings","outputs":[{"internalType":"uint256","name":"","type":"uint256"}],"stateMutability":"view","type":"function"}],"evm":{"bytecode":{"linkReferences":{},"object":"608034607657601f6116ad38819003918201601f19168301916001600160401b03831184841017607b57808492602094604052833981010312607657516001600160a01b03811690819003607657600160005560018060a01b03196002541617600255600060015560405161161b90816100928239f35b600080fd5b634e487b7160e01b600052604160045260246000fdfe608080604052600436101561001357600080fd5b600090813560e01c9081630a3599de146110a8575080630dca825e14610f575780631dab301e14610e7f57806322d8df1214610c6a57806354056b6914610b795780635fd999b314610b505780636a5c841a146109835780637b9afeed146105a7578063825771691461029657806386f13fcc14610264578063a940999414610200578063d3e52431146101ce578063e3a4d3a214610177578063ef3197c8146100f55763fdea2310146100c657600080fd5b346100f25760406020916100d9366110eb565b9082526005845282822090825283522054604051908152f35b80fd5b50346100f25760203660031901126100f2576001600160a01b0361011761116e565b168152600460205260408120604051918260208354918281520192825260208220915b8181106101615761015d85610151818703826111f6565b60405191829182611106565b0390f35b825484526020909301926001928301920161013a565b50346100f25760403660031901126100f25761019161116e565b6001600160a01b03168152600460205260408120805460243592908310156100f25760206101bf8484611140565b90549060031b1c604051908152f35b50346100f2576101dd366110eb565b919081526006602052604081209081548310156100f25760206101bf8484611140565b50346100f25760203660031901126100f2576004358152600660205260408120604051918260208354918281520192825260208220915b81811061024e5761015d85610151818703826111f6565b8254845260209093019260019283019201610237565b50346100f25760803660031901126100f257602061028c606435604435602435600435611486565b6040519015158152f35b506102a0366110eb565b6102a86115c3565b81835260036020526102ca60018060a01b036001604086200154163314611184565b818352600360205260ff60096040852001541660068110156105935760020361054e57818352600360205242600b604085200155818352600360205260096040842001600360ff1982541617905560018060a01b03600254168284526003602052836002604082200154602460405180948193635cea8f3960e01b835260048301525afa801561054357610100918591610521575b5001519081810291818304149015171561050d57818352600360205280600c6040852001558034106104d1578183526003602052600d6040842001600160ff198254161790558260018060a01b03600254168382526003602052600260408320015484835260036020526003604084200154823b156104cd57604484928360405195869485936330bd80d360e11b8552600485015260248401525af1801561048c576104b4575b505080341161046c575b60207f4edf5b39e08b0c159ffd68891bacf2cc9020b9d4e9e807b91f94fe88c443538891837f7c216d827663830a8eaf435519e88ebb0b1c00dccaf021972073a54c9535c3da83604051848152a2604051908152a26001815580f35b8034033481116104a057838080809381863414610497575b3390f1610410575b6040513d84823e3d90fd5b506108fc610484565b634e487b7160e01b84526011600452602484fd5b816104be916111f6565b6104c9578238610406565b8280fd5b8380fd5b60405162461bcd60e51b8152602060048201526014602482015273125b9cdd59999a58da595b9d081c185e5b595b9d60621b6044820152606490fd5b634e487b7160e01b83526011600452602483fd5b61053d91503d8087833e61053581836111f6565b810190611294565b3861035f565b6040513d86823e3d90fd5b60405162461bcd60e51b815260206004820152601860248201527f4368617267696e67206e6f7420696e2070726f677265737300000000000000006044820152606490fd5b634e487b7160e01b84526021600452602484fd5b50346100f25760a03660031901126100f257600435602435604435606435916084359260248660018060a01b036002541660405192838092635cea8f3960e01b82528a60048301525afa90811561097857879161095e575b5061014081015115610921578215159081610912575b50156108d757848652600560205260408620828752602052604086205461088857428111156108435760015493600019851461082f576001850160015580820180831161081b5760405192610669846111c3565b6001870184526020840192338452604085018981526060860190878252608087019289845260a0880194855260c0880195865260e0880152426101008801528b6101208801528b6101408801528b6101608801528b6101808801528b6101a088015260018a018c52600360205260408c209587518755600187019060018060a01b039051166bffffffffffffffffffffffff60a01b82541617905551600286015551600385015551600484015551600583015551600682015560e0820151600782015561010082015160088201556009810161012083015160068110156108075791600d916101a09360ff80198354169116179055610140840151600a820155610160840151600b820155610180840151600c82015501910151151560ff8019835416911617905583855260056020526040852090855260205260018201604085205533845260046020526107c4600183016040862061144c565b835260066020526107db600182016040852061144c565b60013391017f0303b7d3e01f9add26263f7746cf07cc567c8711ba4d0dcb43d346deb7fbd9908480a480f35b634e487b7160e01b89526021600452602489fd5b634e487b7160e01b88526011600452602488fd5b634e487b7160e01b87526011600452602487fd5b60405162461bcd60e51b815260206004820152601760248201527f43616e6e6f7420626f6f6b20696e2074686520706173740000000000000000006044820152606490fd5b60405162461bcd60e51b815260206004820152602160248201527f536c6f7420616c726561647920626f6f6b656420666f7220746869732074696d6044820152606560f81b6064820152608490fd5b60405162461bcd60e51b815260206004820152601360248201527224b73b30b634b21039b637ba10373ab6b132b960691b6044820152606490fd5b60a09150015182111538610615565b60405162461bcd60e51b815260206004820152601560248201527453746174696f6e206973206e6f742061637469766560581b6044820152606490fd5b61097291503d8089833e61053581836111f6565b386105ff565b6040513d89823e3d90fd5b50346100f25760203660031901126100f257806040516109a2816111c3565b8181528160208201528160408201528160608201528160808201528160a08201528160c08201528160e082015281610100820152816101208201528161014082015281610160820152816101808201526101a001526004358152600360205260409020604051610a11816111c3565b81548152600160a01b600190036001830154169160208201928352600281015460408301908152600382015460608401908152600483015460808501908152600584015460a08601908152600685015460c0870190815260078601549060e088019182526008870154926101008901938452600988015460ff16946101208a0195610a9c9087611218565b600a890154966101408b01978852600b8a0154986101608c01998a52600c8b01549a6101808d019b8c52600d015460ff169b6101a081019c15158d526040519d8e91518252600160a01b6001900390511690602001525160408d01525160608c01525160808b01525160a08a01525160c08901525160e088015251610100870152516101208601610b2c916110c8565b5161014085015251610160840152516101808301525115156101a08201526101c090f35b50346100f257806003193601126100f2576002546040516001600160a01b039091168152602090f35b50346100f25760203660031901126100f2576004358082526003602052610bb060018060a01b036001604085200154163314611184565b808252600360205260ff6009604084200154166006811015610c5657610c1157808252600360205260408220600901805460ff191660011790557f853fc6307cc2d72d0ec45ec77f198703d63dd760dedc66cf5488bc9727d69f9c8280a280f35b60405162461bcd60e51b815260206004820152601b60248201527f426f6f6b696e672063616e6e6f7420626520636f6e6669726d656400000000006044820152606490fd5b634e487b7160e01b83526021600452602483fd5b50346100f25760203660031901126100f25760043590610c886115c3565b8181526003602052610caa60018060a01b036001604084200154163314611184565b818152600360205260ff6009604083200154166006811015610e6b57600103610e2e578181526003602052604081206005015461012b198101908111610e1a574210610dd557818152600360205260096040822001600260ff19825416179055818152600360205242600a60408320015560018060a01b03600254168282526003602052600260408320015483835260036020526003604084200154908484526003602052600660408520015492803b15610dd157849291836064926040519687958694630c1807dd60e41b86526004860152602485015260448401525af1801561048c57610dc1575b50907f4bd3af5537d189e1996ca37b692aebd54696471dc254856176477c35a02819e88280a26001815580f35b81610dcb916111f6565b38610d94565b8480fd5b60405162461bcd60e51b815260206004820152601b60248201527f546f6f206561726c7920746f207374617274206368617267696e6700000000006044820152606490fd5b634e487b7160e01b82526011600452602482fd5b60405162461bcd60e51b8152602060048201526015602482015274109bdbdada5b99c81b9bdd0818dbdb999a5c9b5959605a1b6044820152606490fd5b634e487b7160e01b82526021600452602482fd5b50346100f25760203660031901126100f2576004358152600360205260409020805490600160a01b600190036001820154169060028101546003820154600483015460058401546006850154600786015490600887015492600988015460ff1694600a89015496600b8a015498600c8b01549a600d015460ff169b604051809e81526020015260408d015260608c015260808b015260a08a015260c089015260e08801526101008701526101208601610f37916110c8565b61014085015261016084015261018083015215156101a08201526101c090f35b50346100f25760203660031901126100f2576004358082526003602052610f8e60018060a01b036001604085200154163314611184565b808252600360205260ff6009604084200154166006811015610c5657158015611083575b1561102e57808252600360205260096040832001600460ff198254161790558082526003602052600260408320015482526005602052604082208183526003602052600360408420015483526020528160408120557ff774c001cb52a3566b767ed6e37c92706acb2b80a3ff6049e2849cd62725d0858280a280f35b60405162461bcd60e51b815260206004820152602760248201527f43616e6e6f742063616e63656c20626f6f6b696e6720696e2063757272656e746044820152662073746174757360c81b6064820152608490fd5b50808252600360205260ff6009604084200154166006811015610c5657600114610fb2565b9050346110c457816003193601126110c4576020906001548152f35b5080fd5b9060068210156110d55752565b634e487b7160e01b600052602160045260246000fd5b6040906003190112611101576004359060243590565b600080fd5b602060408183019282815284518094520192019060005b81811061112a5750505090565b825184526020938401939092019160010161111d565b80548210156111585760005260206000200190600090565b634e487b7160e01b600052603260045260246000fd5b600435906001600160a01b038216820361110157565b1561118b57565b60405162461bcd60e51b815260206004820152601060248201526f4e6f7420796f757220626f6f6b696e6760801b6044820152606490fd5b6101c0810190811067ffffffffffffffff8211176111e057604052565b634e487b7160e01b600052604160045260246000fd5b90601f8019910116810190811067ffffffffffffffff8211176111e057604052565b60068210156110d55752565b81601f820112156111015780519067ffffffffffffffff82116111e05760405192611259601f8401601f1916602001856111f6565b828452602083830101116111015760005b82811061127f57505060206000918301015290565b8060208092840101518282870101520161126a565b6020818303126111015780519067ffffffffffffffff821161110157016101a08183031261110157604051916101a0830183811067ffffffffffffffff8211176111e05760405281518352602082015167ffffffffffffffff811161110157816112ff918401611224565b6020840152604082015167ffffffffffffffff81116111015781611324918401611224565b6040840152606082015160608401526080820151608084015260a082015160a084015260c082015160c084015260e082015160e084015261010082015161010084015261012082015167ffffffffffffffff81116111015782019080601f830112156111015781519167ffffffffffffffff83116111e0578260051b90604051936113b260208401866111f6565b8452602080850192820101918383116111015760208201905b83821061141e575050505050610120830152610140810151801515810361110157610140830152610160810151906001600160a01b03821682036111015761018091610160840152015161018082015290565b815167ffffffffffffffff81116111015760209161144187848094880101611224565b8152019101906113cb565b8054680100000000000000008110156111e05761146e91600182018155611140565b819291549060031b91821b91600019901b1916179055565b600052600560205260406000209060005260205260406000205480156115bb576000526003602052604060002091604051926114c1846111c3565b8054845260018060a01b03600182015416602085015260028101546040850152600381015460608501526004810154608085015260058101549060a0850191825260068101549460c08101958652600782015460e082015260088201546101008201526101a060ff600d816009860154169461154261012086019687611218565b600a810154610140860152600b810154610160860152600c8101546101808601520154161515910152805160068110156110d5576004149081156115a6575b5061159d5751109182159261159557505090565b511115919050565b50505050600190565b90505160068110156110d55760031438611581565b505050600190565b6002600054146115d4576002600055565b633ee5aeb560e01b60005260046000fdfea2646970667358221220c79979edf049e558a1743da49543b8bcac4537961effc217998293da40e56bf464736f6c634300081c0033","opcodes":"PUSH1 0x80 CALLVALUE PUSH1 0x76 JUMPI PUSH1 0x1F PUSH2 0x16AD CODESIZE DUP2 SWAP1 SUB SWAP2 DUP3 ADD PUSH1 0x1F NOT AND DUP4 ADD SWAP2 PUSH1 0x1 PUSH1 0x1 PUSH1 0x40 SHL SUB DUP4 GT DUP5 DUP5 LT OR PUSH1 0x7B JUMPI DUP1 DUP5 SWAP3 PUSH1 0x20 SWAP5 PUSH1 0x40 MSTORE DUP4 CODECOPY DUP2 ADD SUB SLT PUSH1 0x76 JUMPI MLOAD PUSH1 0x1 PUSH1 0x1 PUSH1 0xA0 SHL SUB DUP2 AND SWAP1 DUP2 SWAP1 SUB PUSH1 0x76 JUMPI PUSH1 0x1 PUSH1 0x0 SSTORE PUSH1 0x1 DUP1 PUSH1 0xA0 SHL SUB NOT PUSH1 0x2 SLOAD AND OR PUSH1 0x2 SSTORE PUSH1 0x0 PUSH1 0x1 SSTORE PUSH1 0x40 MLOAD PUSH2 0x161B SWAP1 DUP2 PUSH2 0x92 DUP3 CODECOPY RETURN JUMPDEST PUSH1 0x0 DUP1 REVERT JUMPDEST PUSH4 0x4E487B71 PUSH1 0xE0 SHL PUSH1 0x0 MSTORE PUSH1 0x41 PUSH1 0x4 MSTORE PUSH1 0x24 PUSH1 0x0 REVERT INVALID PUSH1 0x80 DUP1 PUSH1 0x40 MSTORE PUSH1 0x4 CALLDATASIZE LT ISZERO PUSH2 0x13 JUMPI PUSH1 0x0 DUP1 REVERT JUMPDEST PUSH1 0x0 SWAP1 DUP2 CALLDATALOAD PUSH1 0xE0 SHR SWAP1 DUP2 PUSH4 0xA3599DE EQ PUSH2 0x10A8 JUMPI POP DUP1 PUSH4 0xDCA825E EQ PUSH2 0xF57 JUMPI DUP1 PUSH4 0x1DAB301E EQ PUSH2 0xE7F JUMPI DUP1 PUSH4 0x22D8DF12 EQ PUSH2 0xC6A JUMPI DUP1 PUSH4 0x54056B69 EQ PUSH2 0xB79 JUMPI DUP1 PUSH4 0x5FD999B3 EQ PUSH2 0xB50 JUMPI DUP1 PUSH4 0x6A5C841A EQ PUSH2 0x983 JUMPI DUP1 PUSH4 0x7B9AFEED EQ PUSH2 0x5A7 JUMPI DUP1 PUSH4 0x82577169 EQ PUSH2 0x296 JUMPI DUP1 PUSH4 0x86F13FCC EQ PUSH2 0x264 JUMPI DUP1 PUSH4 0xA9409994 EQ PUSH2 0x200 JUMPI DUP1 PUSH4 0xD3E52431 EQ PUSH2 0x1CE JUMPI DUP1 PUSH4 0xE3A4D3A2 EQ PUSH2 0x177 JUMPI DUP1 PUSH4 0xEF3197C8 EQ PUSH2 0xF5 JUMPI PUSH4 0xFDEA2310 EQ PUSH2 0xC6 JUMPI PUSH1 0x0 DUP1 REVERT JUMPDEST CALLVALUE PUSH2 0xF2 JUMPI PUSH1 0x40 PUSH1 0x20 SWAP2 PUSH2 0xD9 CALLDATASIZE PUSH2 0x10EB JUMP JUMPDEST SWAP1 DUP3 MSTORE PUSH1 0x5 DUP5 MSTORE DUP3 DUP3 KECCAK256 SWAP1 DUP3 MSTORE DUP4 MSTORE KECCAK256 SLOAD PUSH1 0x40 MLOAD SWAP1 DUP2 MSTORE RETURN JUMPDEST DUP1 REVERT JUMPDEST POP CALLVALUE PUSH2 0xF2 JUMPI PUSH1 0x20 CALLDATASIZE PUSH1 0x3 NOT ADD SLT PUSH2 0xF2 JUMPI PUSH1 0x1 PUSH1 0x1 PUSH1 0xA0 SHL SUB PUSH2 0x117 PUSH2 0x116E JUMP JUMPDEST AND DUP2 MSTORE PUSH1 0x4 PUSH1 0x20 MSTORE PUSH1 0x40 DUP2 KECCAK256 PUSH1 0x40 MLOAD SWAP2 DUP3 PUSH1 0x20 DUP4 SLOAD SWAP2 DUP3 DUP2 MSTORE ADD SWAP3 DUP3 MSTORE PUSH1 0x20 DUP3 KECCAK256 SWAP2 JUMPDEST DUP2 DUP2 LT PUSH2 0x161 JUMPI PUSH2 0x15D DUP6 PUSH2 0x151 DUP2 DUP8 SUB DUP3 PUSH2 0x11F6 JUMP JUMPDEST PUSH1 0x40 MLOAD SWAP2 DUP3 SWAP2 DUP3 PUSH2 0x1106 JUMP JUMPDEST SUB SWAP1 RETURN JUMPDEST DUP3 SLOAD DUP5 MSTORE PUSH1 0x20 SWAP1 SWAP4 ADD SWAP3 PUSH1 0x1 SWAP3 DUP4 ADD SWAP3 ADD PUSH2 0x13A JUMP JUMPDEST POP CALLVALUE PUSH2 0xF2 JUMPI PUSH1 0x40 CALLDATASIZE PUSH1 0x3 NOT ADD SLT PUSH2 0xF2 JUMPI PUSH2 0x191 PUSH2 0x116E JUMP JUMPDEST PUSH1 0x1 PUSH1 0x1 PUSH1 0xA0 SHL SUB AND DUP2 MSTORE PUSH1 0x4 PUSH1 0x20 MSTORE PUSH1 0x40 DUP2 KECCAK256 DUP1 SLOAD PUSH1 0x24 CALLDATALOAD SWAP3 SWAP1 DUP4 LT ISZERO PUSH2 0xF2 JUMPI PUSH1 0x20 PUSH2 0x1BF DUP5 DUP5 PUSH2 0x1140 JUMP JUMPDEST SWAP1 SLOAD SWAP1 PUSH1 0x3 SHL SHR PUSH1 0x40 MLOAD SWAP1 DUP2 MSTORE RETURN JUMPDEST POP CALLVALUE PUSH2 0xF2 JUMPI PUSH2 0x1DD CALLDATASIZE PUSH2 0x10EB JUMP JUMPDEST SWAP2 SWAP1 DUP2 MSTORE PUSH1 0x6 PUSH1 0x20 MSTORE PUSH1 0x40 DUP2 KECCAK256 SWAP1 DUP2 SLOAD DUP4 LT ISZERO PUSH2 0xF2 JUMPI PUSH1 0x20 PUSH2 0x1BF DUP5 DUP5 PUSH2 0x1140 JUMP JUMPDEST POP CALLVALUE PUSH2 0xF2 JUMPI PUSH1 0x20 CALLDATASIZE PUSH1 0x3 NOT ADD SLT PUSH2 0xF2 JUMPI PUSH1 0x4 CALLDATALOAD DUP2 MSTORE PUSH1 0x6 PUSH1 0x20 MSTORE PUSH1 0x40 DUP2 KECCAK256 PUSH1 0x40 MLOAD SWAP2 DUP3 PUSH1 0x20 DUP4 SLOAD SWAP2 DUP3 DUP2 MSTORE ADD SWAP3 DUP3 MSTORE PUSH1 0x20 DUP3 KECCAK256 SWAP2 JUMPDEST DUP2 DUP2 LT PUSH2 0x24E JUMPI PUSH2 0x15D DUP6 PUSH2 0x151 DUP2 DUP8 SUB DUP3 PUSH2 0x11F6 JUMP JUMPDEST DUP3 SLOAD DUP5 MSTORE PUSH1 0x20 SWAP1 SWAP4 ADD SWAP3 PUSH1 0x1 SWAP3 DUP4 ADD SWAP3 ADD PUSH2 0x237 JUMP JUMPDEST POP CALLVALUE PUSH2 0xF2 JUMPI PUSH1 0x80 CALLDATASIZE PUSH1 0x3 NOT ADD SLT PUSH2 0xF2 JUMPI PUSH1 0x20 PUSH2 0x28C PUSH1 0x64 CALLDATALOAD PUSH1 0x44 CALLDATALOAD PUSH1 0x24 CALLDATALOAD PUSH1 0x4 CALLDATALOAD PUSH2 0x1486 JUMP JUMPDEST PUSH1 0x40 MLOAD SWAP1 ISZERO ISZERO DUP2 MSTORE RETURN JUMPDEST POP PUSH2 0x2A0 CALLDATASIZE PUSH2 0x10EB JUMP JUMPDEST PUSH2 0x2A8 PUSH2 0x15C3 JUMP JUMPDEST DUP2 DUP4 MSTORE PUSH1 0x3 PUSH1 0x20 MSTORE PUSH2 0x2CA PUSH1 0x1 DUP1 PUSH1 0xA0 SHL SUB PUSH1 0x1 PUSH1 0x40 DUP7 KECCAK256 ADD SLOAD AND CALLER EQ PUSH2 0x1184 JUMP JUMPDEST DUP2 DUP4 MSTORE PUSH1 0x3 PUSH1 0x20 MSTORE PUSH1 0xFF PUSH1 0x9 PUSH1 0x40 DUP6 KECCAK256 ADD SLOAD AND PUSH1 0x6 DUP2 LT ISZERO PUSH2 0x593 JUMPI PUSH1 0x2 SUB PUSH2 0x54E JUMPI DUP2 DUP4 MSTORE PUSH1 0x3 PUSH1 0x20 MSTORE TIMESTAMP PUSH1 0xB PUSH1 0x40 DUP6 KECCAK256 ADD SSTORE DUP2 DUP4 MSTORE PUSH1 0x3 PUSH1 0x20 MSTORE PUSH1 0x9 PUSH1 0x40 DUP5 KECCAK256 ADD PUSH1 0x3 PUSH1 0xFF NOT DUP3 SLOAD AND OR SWAP1 SSTORE PUSH1 0x1 DUP1 PUSH1 0xA0 SHL SUB PUSH1 0x2 SLOAD AND DUP3 DUP5 MSTORE PUSH1 0x3 PUSH1 0x20 MSTORE DUP4 PUSH1 0x2 PUSH1 0x40 DUP3 KECCAK256 ADD SLOAD PUSH1 0x24 PUSH1 0x40 MLOAD DUP1 SWAP5 DUP2 SWAP4 PUSH4 0x5CEA8F39 PUSH1 0xE0 SHL DUP4 MSTORE PUSH1 0x4 DUP4 ADD MSTORE GAS STATICCALL DUP1 ISZERO PUSH2 0x543 JUMPI PUSH2 0x100 SWAP2 DUP6 SWAP2 PUSH2 0x521 JUMPI JUMPDEST POP ADD MLOAD SWAP1 DUP2 DUP2 MUL SWAP2 DUP2 DUP4 DIV EQ SWAP1 ISZERO OR ISZERO PUSH2 0x50D JUMPI DUP2 DUP4 MSTORE PUSH1 0x3 PUSH1 0x20 MSTORE DUP1 PUSH1 0xC PUSH1 0x40 DUP6 KECCAK256 ADD SSTORE DUP1 CALLVALUE LT PUSH2 0x4D1 JUMPI DUP2 DUP4 MSTORE PUSH1 0x3 PUSH1 0x20 MSTORE PUSH1 0xD PUSH1 0x40 DUP5 KECCAK256 ADD PUSH1 0x1 PUSH1 0xFF NOT DUP3 SLOAD AND OR SWAP1 SSTORE DUP3 PUSH1 0x1 DUP1 PUSH1 0xA0 SHL SUB PUSH1 0x2 SLOAD AND DUP4 DUP3 MSTORE PUSH1 0x3 PUSH1 0x20 MSTORE PUSH1 0x2 PUSH1 0x40 DUP4 KECCAK256 ADD SLOAD DUP5 DUP4 MSTORE PUSH1 0x3 PUSH1 0x20 MSTORE PUSH1 0x3 PUSH1 0x40 DUP5 KECCAK256 ADD SLOAD DUP3 EXTCODESIZE ISZERO PUSH2 0x4CD JUMPI PUSH1 0x44 DUP5 SWAP3 DUP4 PUSH1 0x40 MLOAD SWAP6 DUP7 SWAP5 DUP6 SWAP4 PUSH4 0x30BD80D3 PUSH1 0xE1 SHL DUP6 MSTORE PUSH1 0x4 DUP6 ADD MSTORE PUSH1 0x24 DUP5 ADD MSTORE GAS CALL DUP1 ISZERO PUSH2 0x48C JUMPI PUSH2 0x4B4 JUMPI JUMPDEST POP POP DUP1 CALLVALUE GT PUSH2 0x46C JUMPI JUMPDEST PUSH1 0x20 PUSH32 0x4EDF5B39E08B0C159FFD68891BACF2CC9020B9D4E9E807B91F94FE88C4435388 SWAP2 DUP4 PUSH32 0x7C216D827663830A8EAF435519E88EBB0B1C00DCCAF021972073A54C9535C3DA DUP4 PUSH1 0x40 MLOAD DUP5 DUP2 MSTORE LOG2 PUSH1 0x40 MLOAD SWAP1 DUP2 MSTORE LOG2 PUSH1 0x1 DUP2 SSTORE DUP1 RETURN JUMPDEST DUP1 CALLVALUE SUB CALLVALUE DUP2 GT PUSH2 0x4A0 JUMPI DUP4 DUP1 DUP1 DUP1 SWAP4 DUP2 DUP7 CALLVALUE EQ PUSH2 0x497 JUMPI JUMPDEST CALLER SWAP1 CALL PUSH2 0x410 JUMPI JUMPDEST PUSH1 0x40 MLOAD RETURNDATASIZE DUP5 DUP3 RETURNDATACOPY RETURNDATASIZE SWAP1 REVERT JUMPDEST POP PUSH2 0x8FC PUSH2 0x484 JUMP JUMPDEST PUSH4 0x4E487B71 PUSH1 0xE0 SHL DUP5 MSTORE PUSH1 0x11 PUSH1 0x4 MSTORE PUSH1 0x24 DUP5 REVERT JUMPDEST DUP2 PUSH2 0x4BE SWAP2 PUSH2 0x11F6 JUMP JUMPDEST PUSH2 0x4C9 JUMPI DUP3 CODESIZE PUSH2 0x406 JUMP JUMPDEST DUP3 DUP1 REVERT JUMPDEST DUP4 DUP1 REVERT JUMPDEST PUSH1 0x40 MLOAD PUSH3 0x461BCD PUSH1 0xE5 SHL DUP2 MSTORE PUSH1 0x20 PUSH1 0x4 DUP3 ADD MSTORE PUSH1 0x14 PUSH1 0x24 DUP3 ADD MSTORE PUSH20 0x125B9CDD59999A58DA595B9D081C185E5B595B9D PUSH1 0x62 SHL PUSH1 0x44 DUP3 ADD MSTORE PUSH1 0x64 SWAP1 REVERT JUMPDEST PUSH4 0x4E487B71 PUSH1 0xE0 SHL DUP4 MSTORE PUSH1 0x11 PUSH1 0x4 MSTORE PUSH1 0x24 DUP4 REVERT JUMPDEST PUSH2 0x53D SWAP2 POP RETURNDATASIZE DUP1 DUP8 DUP4 RETURNDATACOPY PUSH2 0x535 DUP2 DUP4 PUSH2 0x11F6 JUMP JUMPDEST DUP2 ADD SWAP1 PUSH2 0x1294 JUMP JUMPDEST CODESIZE PUSH2 0x35F JUMP JUMPDEST PUSH1 0x40 MLOAD RETURNDATASIZE DUP7 DUP3 RETURNDATACOPY RETURNDATASIZE SWAP1 REVERT JUMPDEST PUSH1 0x40 MLOAD PUSH3 0x461BCD PUSH1 0xE5 SHL DUP2 MSTORE PUSH1 0x20 PUSH1 0x4 DUP3 ADD MSTORE PUSH1 0x18 PUSH1 0x24 DUP3 ADD MSTORE PUSH32 0x4368617267696E67206E6F7420696E2070726F67726573730000000000000000 PUSH1 0x44 DUP3 ADD MSTORE PUSH1 0x64 SWAP1 REVERT JUMPDEST PUSH4 0x4E487B71 PUSH1 0xE0 SHL DUP5 MSTORE PUSH1 0x21 PUSH1 0x4 MSTORE PUSH1 0x24 DUP5 REVERT JUMPDEST POP CALLVALUE PUSH2 0xF2 JUMPI PUSH1 0xA0 CALLDATASIZE PUSH1 0x3 NOT ADD SLT PUSH2 0xF2 JUMPI PUSH1 0x4 CALLDATALOAD PUSH1 0x24 CALLDATALOAD PUSH1 0x44 CALLDATALOAD PUSH1 0x64 CALLDATALOAD SWAP2 PUSH1 0x84 CALLDATALOAD SWAP3 PUSH1 0x24 DUP7 PUSH1 0x1 DUP1 PUSH1 0xA0 SHL SUB PUSH1 0x2 SLOAD AND PUSH1 0x40 MLOAD SWAP3 DUP4 DUP1 SWAP3 PUSH4 0x5CEA8F39 PUSH1 0xE0 SHL DUP3 MSTORE DUP11 PUSH1 0x4 DUP4 ADD MSTORE GAS STATICCALL SWAP1 DUP2 ISZERO PUSH2 0x978 JUMPI DUP8 SWAP2 PUSH2 0x95E JUMPI JUMPDEST POP PUSH2 0x140 DUP2 ADD MLOAD ISZERO PUSH2 0x921 JUMPI DUP3 ISZERO ISZERO SWAP1 DUP2 PUSH2 0x912 JUMPI JUMPDEST POP ISZERO PUSH2 0x8D7 JUMPI DUP5 DUP7 MSTORE PUSH1 0x5 PUSH1 0x20 MSTORE PUSH1 0x40 DUP7 KECCAK256 DUP3 DUP8 MSTORE PUSH1 0x20 MSTORE PUSH1 0x40 DUP7 KECCAK256 SLOAD PUSH2 0x888 JUMPI TIMESTAMP DUP2 GT ISZERO PUSH2 0x843 JUMPI PUSH1 0x1 SLOAD SWAP4 PUSH1 0x0 NOT DUP6 EQ PUSH2 0x82F JUMPI PUSH1 0x1 DUP6 ADD PUSH1 0x1 SSTORE DUP1 DUP3 ADD DUP1 DUP4 GT PUSH2 0x81B JUMPI PUSH1 0x40 MLOAD SWAP3 PUSH2 0x669 DUP5 PUSH2 0x11C3 JUMP JUMPDEST PUSH1 0x1 DUP8 ADD DUP5 MSTORE PUSH1 0x20 DUP5 ADD SWAP3 CALLER DUP5 MSTORE PUSH1 0x40 DUP6 ADD DUP10 DUP2 MSTORE PUSH1 0x60 DUP7 ADD SWAP1 DUP8 DUP3 MSTORE PUSH1 0x80 DUP8 ADD SWAP3 DUP10 DUP5 MSTORE PUSH1 0xA0 DUP9 ADD SWAP5 DUP6 MSTORE PUSH1 0xC0 DUP9 ADD SWAP6 DUP7 MSTORE PUSH1 0xE0 DUP9 ADD MSTORE TIMESTAMP PUSH2 0x100 DUP9 ADD MSTORE DUP12 PUSH2 0x120 DUP9 ADD MSTORE DUP12 PUSH2 0x140 DUP9 ADD MSTORE DUP12 PUSH2 0x160 DUP9 ADD MSTORE DUP12 PUSH2 0x180 DUP9 ADD MSTORE DUP12 PUSH2 0x1A0 DUP9 ADD MSTORE PUSH1 0x1 DUP11 ADD DUP13 MSTORE PUSH1 0x3 PUSH1 0x20 MSTORE PUSH1 0x40 DUP13 KECCAK256 SWAP6 DUP8 MLOAD DUP8 SSTORE PUSH1 0x1 DUP8 ADD SWAP1 PUSH1 0x1 DUP1 PUSH1 0xA0 SHL SUB SWAP1 MLOAD AND PUSH12 0xFFFFFFFFFFFFFFFFFFFFFFFF PUSH1 0xA0 SHL DUP3 SLOAD AND OR SWAP1 SSTORE MLOAD PUSH1 0x2 DUP7 ADD SSTORE MLOAD PUSH1 0x3 DUP6 ADD SSTORE MLOAD PUSH1 0x4 DUP5 ADD SSTORE MLOAD PUSH1 0x5 DUP4 ADD SSTORE MLOAD PUSH1 0x6 DUP3 ADD SSTORE PUSH1 0xE0 DUP3 ADD MLOAD PUSH1 0x7 DUP3 ADD SSTORE PUSH2 0x100 DUP3 ADD MLOAD PUSH1 0x8 DUP3 ADD SSTORE PUSH1 0x9 DUP2 ADD PUSH2 0x120 DUP4 ADD MLOAD PUSH1 0x6 DUP2 LT ISZERO PUSH2 0x807 JUMPI SWAP2 PUSH1 0xD SWAP2 PUSH2 0x1A0 SWAP4 PUSH1 0xFF DUP1 NOT DUP4 SLOAD AND SWAP2 AND OR SWAP1 SSTORE PUSH2 0x140 DUP5 ADD MLOAD PUSH1 0xA DUP3 ADD SSTORE PUSH2 0x160 DUP5 ADD MLOAD PUSH1 0xB DUP3 ADD SSTORE PUSH2 0x180 DUP5 ADD MLOAD PUSH1 0xC DUP3 ADD SSTORE ADD SWAP2 ADD MLOAD ISZERO ISZERO PUSH1 0xFF DUP1 NOT DUP4 SLOAD AND SWAP2 AND OR SWAP1 SSTORE DUP4 DUP6 MSTORE PUSH1 0x5 PUSH1 0x20 MSTORE PUSH1 0x40 DUP6 KECCAK256 SWAP1 DUP6 MSTORE PUSH1 0x20 MSTORE PUSH1 0x1 DUP3 ADD PUSH1 0x40 DUP6 KECCAK256 SSTORE CALLER DUP5 MSTORE PUSH1 0x4 PUSH1 0x20 MSTORE PUSH2 0x7C4 PUSH1 0x1 DUP4 ADD PUSH1 0x40 DUP7 KECCAK256 PUSH2 0x144C JUMP JUMPDEST DUP4 MSTORE PUSH1 0x6 PUSH1 0x20 MSTORE PUSH2 0x7DB PUSH1 0x1 DUP3 ADD PUSH1 0x40 DUP6 KECCAK256 PUSH2 0x144C JUMP JUMPDEST PUSH1 0x1 CALLER SWAP2 ADD PUSH32 0x303B7D3E01F9ADD26263F7746CF07CC567C8711BA4D0DCB43D346DEB7FBD990 DUP5 DUP1 LOG4 DUP1 RETURN JUMPDEST PUSH4 0x4E487B71 PUSH1 0xE0 SHL DUP10 MSTORE PUSH1 0x21 PUSH1 0x4 MSTORE PUSH1 0x24 DUP10 REVERT JUMPDEST PUSH4 0x4E487B71 PUSH1 0xE0 SHL DUP9 MSTORE PUSH1 0x11 PUSH1 0x4 MSTORE PUSH1 0x24 DUP9 REVERT JUMPDEST PUSH4 0x4E487B71 PUSH1 0xE0 SHL DUP8 MSTORE PUSH1 0x11 PUSH1 0x4 MSTORE PUSH1 0x24 DUP8 REVERT JUMPDEST PUSH1 0x40 MLOAD PUSH3 0x461BCD PUSH1 0xE5 SHL DUP2 MSTORE PUSH1 0x20 PUSH1 0x4 DUP3 ADD MSTORE PUSH1 0x17 PUSH1 0x24 DUP3 ADD MSTORE PUSH32 0x43616E6E6F7420626F6F6B20696E207468652070617374000000000000000000 PUSH1 0x44 DUP3 ADD MSTORE PUSH1 0x64 SWAP1 REVERT JUMPDEST PUSH1 0x40 MLOAD PUSH3 0x461BCD PUSH1 0xE5 SHL DUP2 MSTORE PUSH1 0x20 PUSH1 0x4 DUP3 ADD MSTORE PUSH1 0x21 PUSH1 0x24 DUP3 ADD MSTORE PUSH32 0x536C6F7420616C726561647920626F6F6B656420666F7220746869732074696D PUSH1 0x44 DUP3 ADD MSTORE PUSH1 0x65 PUSH1 0xF8 SHL PUSH1 0x64 DUP3 ADD MSTORE PUSH1 0x84 SWAP1 REVERT JUMPDEST PUSH1 0x40 MLOAD PUSH3 0x461BCD PUSH1 0xE5 SHL DUP2 MSTORE PUSH1 0x20 PUSH1 0x4 DUP3 ADD MSTORE PUSH1 0x13 PUSH1 0x24 DUP3 ADD MSTORE PUSH19 0x24B73B30B634B21039B637BA10373AB6B132B9 PUSH1 0x69 SHL PUSH1 0x44 DUP3 ADD MSTORE PUSH1 0x64 SWAP1 REVERT JUMPDEST PUSH1 0xA0 SWAP2 POP ADD MLOAD DUP3 GT ISZERO CODESIZE PUSH2 0x615 JUMP JUMPDEST PUSH1 0x40 MLOAD PUSH3 0x461BCD PUSH1 0xE5 SHL DUP2 MSTORE PUSH1 0x20 PUSH1 0x4 DUP3 ADD MSTORE PUSH1 0x15 PUSH1 0x24 DUP3 ADD MSTORE PUSH21 0x53746174696F6E206973206E6F7420616374697665 PUSH1 0x58 SHL PUSH1 0x44 DUP3 ADD MSTORE PUSH1 0x64 SWAP1 REVERT JUMPDEST PUSH2 0x972 SWAP2 POP RETURNDATASIZE DUP1 DUP10 DUP4 RETURNDATACOPY PUSH2 0x535 DUP2 DUP4 PUSH2 0x11F6 JUMP JUMPDEST CODESIZE PUSH2 0x5FF JUMP JUMPDEST PUSH1 0x40 MLOAD RETURNDATASIZE DUP10 DUP3 RETURNDATACOPY RETURNDATASIZE SWAP1 REVERT JUMPDEST POP CALLVALUE PUSH2 0xF2 JUMPI PUSH1 0x20 CALLDATASIZE PUSH1 0x3 NOT ADD SLT PUSH2 0xF2 JUMPI DUP1 PUSH1 0x40 MLOAD PUSH2 0x9A2 DUP2 PUSH2 0x11C3 JUMP JUMPDEST DUP2 DUP2 MSTORE DUP2 PUSH1 0x20 DUP3 ADD MSTORE DUP2 PUSH1 0x40 DUP3 ADD MSTORE DUP2 PUSH1 0x60 DUP3 ADD MSTORE DUP2 PUSH1 0x80 DUP3 ADD MSTORE DUP2 PUSH1 0xA0 DUP3 ADD MSTORE DUP2 PUSH1 0xC0 DUP3 ADD MSTORE DUP2 PUSH1 0xE0 DUP3 ADD MSTORE DUP2 PUSH2 0x100 DUP3 ADD MSTORE DUP2 PUSH2 0x120 DUP3 ADD MSTORE DUP2 PUSH2 0x140 DUP3 ADD MSTORE DUP2 PUSH2 0x160 DUP3 ADD MSTORE DUP2 PUSH2 0x180 DUP3 ADD MSTORE PUSH2 0x1A0 ADD MSTORE PUSH1 0x4 CALLDATALOAD DUP2 MSTORE PUSH1 0x3 PUSH1 0x20 MSTORE PUSH1 0x40 SWAP1 KECCAK256 PUSH1 0x40 MLOAD PUSH2 0xA11 DUP2 PUSH2 0x11C3 JUMP JUMPDEST DUP2 SLOAD DUP2 MSTORE PUSH1 0x1 PUSH1 0xA0 SHL PUSH1 0x1 SWAP1 SUB PUSH1 0x1 DUP4 ADD SLOAD AND SWAP2 PUSH1 0x20 DUP3 ADD SWAP3 DUP4 MSTORE PUSH1 0x2 DUP2 ADD SLOAD PUSH1 0x40 DUP4 ADD SWAP1 DUP2 MSTORE PUSH1 0x3 DUP3 ADD SLOAD PUSH1 0x60 DUP5 ADD SWAP1 DUP2 MSTORE PUSH1 0x4 DUP4 ADD SLOAD PUSH1 0x80 DUP6 ADD SWAP1 DUP2 MSTORE PUSH1 0x5 DUP5 ADD SLOAD PUSH1 0xA0 DUP7 ADD SWAP1 DUP2 MSTORE PUSH1 0x6 DUP6 ADD SLOAD PUSH1 0xC0 DUP8 ADD SWAP1 DUP2 MSTORE PUSH1 0x7 DUP7 ADD SLOAD SWAP1 PUSH1 0xE0 DUP9 ADD SWAP2 DUP3 MSTORE PUSH1 0x8 DUP8 ADD SLOAD SWAP3 PUSH2 0x100 DUP10 ADD SWAP4 DUP5 MSTORE PUSH1 0x9 DUP9 ADD SLOAD PUSH1 0xFF AND SWAP5 PUSH2 0x120 DUP11 ADD SWAP6 PUSH2 0xA9C SWAP1 DUP8 PUSH2 0x1218 JUMP JUMPDEST PUSH1 0xA DUP10 ADD SLOAD SWAP7 PUSH2 0x140 DUP12 ADD SWAP8 DUP9 MSTORE PUSH1 0xB DUP11 ADD SLOAD SWAP9 PUSH2 0x160 DUP13 ADD SWAP10 DUP11 MSTORE PUSH1 0xC DUP12 ADD SLOAD SWAP11 PUSH2 0x180 DUP14 ADD SWAP12 DUP13 MSTORE PUSH1 0xD ADD SLOAD PUSH1 0xFF AND SWAP12 PUSH2 0x1A0 DUP2 ADD SWAP13 ISZERO ISZERO DUP14 MSTORE PUSH1 0x40 MLOAD SWAP14 DUP15 SWAP2 MLOAD DUP3 MSTORE PUSH1 0x1 PUSH1 0xA0 SHL PUSH1 0x1 SWAP1 SUB SWAP1 MLOAD AND SWAP1 PUSH1 0x20 ADD MSTORE MLOAD PUSH1 0x40 DUP14 ADD MSTORE MLOAD PUSH1 0x60 DUP13 ADD MSTORE MLOAD PUSH1 0x80 DUP12 ADD MSTORE MLOAD PUSH1 0xA0 DUP11 ADD MSTORE MLOAD PUSH1 0xC0 DUP10 ADD MSTORE MLOAD PUSH1 0xE0 DUP9 ADD MSTORE MLOAD PUSH2 0x100 DUP8 ADD MSTORE MLOAD PUSH2 0x120 DUP7 ADD PUSH2 0xB2C SWAP2 PUSH2 0x10C8 JUMP JUMPDEST MLOAD PUSH2 0x140 DUP6 ADD MSTORE MLOAD PUSH2 0x160 DUP5 ADD MSTORE MLOAD PUSH2 0x180 DUP4 ADD MSTORE MLOAD ISZERO ISZERO PUSH2 0x1A0 DUP3 ADD MSTORE PUSH2 0x1C0 SWAP1 RETURN JUMPDEST POP CALLVALUE PUSH2 0xF2 JUMPI DUP1 PUSH1 0x3 NOT CALLDATASIZE ADD SLT PUSH2 0xF2 JUMPI PUSH1 0x2 SLOAD PUSH1 0x40 MLOAD PUSH1 0x1 PUSH1 0x1 PUSH1 0xA0 SHL SUB SWAP1 SWAP2 AND DUP2 MSTORE PUSH1 0x20 SWAP1 RETURN JUMPDEST POP CALLVALUE PUSH2 0xF2 JUMPI PUSH1 0x20 CALLDATASIZE PUSH1 0x3 NOT ADD SLT PUSH2 0xF2 JUMPI PUSH1 0x4 CALLDATALOAD DUP1 DUP3 MSTORE PUSH1 0x3 PUSH1 0x20 MSTORE PUSH2 0xBB0 PUSH1 0x1 DUP1 PUSH1 0xA0 SHL SUB PUSH1 0x1 PUSH1 0x40 DUP6 KECCAK256 ADD SLOAD AND CALLER EQ PUSH2 0x1184 JUMP JUMPDEST DUP1 DUP3 MSTORE PUSH1 0x3 PUSH1 0x20 MSTORE PUSH1 0xFF PUSH1 0x9 PUSH1 0x40 DUP5 KECCAK256 ADD SLOAD AND PUSH1 0x6 DUP2 LT ISZERO PUSH2 0xC56 JUMPI PUSH2 0xC11 JUMPI DUP1 DUP3 MSTORE PUSH1 0x3 PUSH1 0x20 MSTORE PUSH1 0x40 DUP3 KECCAK256 PUSH1 0x9 ADD DUP1 SLOAD PUSH1 0xFF NOT AND PUSH1 0x1 OR SWAP1 SSTORE PUSH32 0x853FC6307CC2D72D0EC45EC77F198703D63DD760DEDC66CF5488BC9727D69F9C DUP3 DUP1 LOG2 DUP1 RETURN JUMPDEST PUSH1 0x40 MLOAD PUSH3 0x461BCD PUSH1 0xE5 SHL DUP2 MSTORE PUSH1 0x20 PUSH1 0x4 DUP3 ADD MSTORE PUSH1 0x1B PUSH1 0x24 DUP3 ADD MSTORE PUSH32 0x426F6F6B696E672063616E6E6F7420626520636F6E6669726D65640000000000 PUSH1 0x44 DUP3 ADD MSTORE PUSH1 0x64 SWAP1 REVERT JUMPDEST PUSH4 0x4E487B71 PUSH1 0xE0 SHL DUP4 MSTORE PUSH1 0x21 PUSH1 0x4 MSTORE PUSH1 0x24 DUP4 REVERT JUMPDEST POP CALLVALUE PUSH2 0xF2 JUMPI PUSH1 0x20 CALLDATASIZE PUSH1 0x3 NOT ADD SLT PUSH2 0xF2 JUMPI PUSH1 0x4 CALLDATALOAD SWAP1 PUSH2 0xC88 PUSH2 0x15C3 JUMP JUMPDEST DUP2 DUP2 MSTORE PUSH1 0x3 PUSH1 0x20 MSTORE PUSH2 0xCAA PUSH1 0x1 DUP1 PUSH1 0xA0 SHL SUB PUSH1 0x1 PUSH1 0x40 DUP5 KECCAK256 ADD SLOAD AND CALLER EQ PUSH2 0x1184 JUMP JUMPDEST DUP2 DUP2 MSTORE PUSH1 0x3 PUSH1 0x20 MSTORE PUSH1 0xFF PUSH1 0x9 PUSH1 0x40 DUP4 KECCAK256 ADD SLOAD AND PUSH1 0x6 DUP2 LT ISZERO PUSH2 0xE6B JUMPI PUSH1 0x1 SUB PUSH2 0xE2E JUMPI DUP2 DUP2 MSTORE PUSH1 0x3 PUSH1 0x20 MSTORE PUSH1 0x40 DUP2 KECCAK256 PUSH1 0x5 ADD SLOAD PUSH2 0x12B NOT DUP2 ADD SWAP1 DUP2 GT PUSH2 0xE1A JUMPI TIMESTAMP LT PUSH2 0xDD5 JUMPI DUP2 DUP2 MSTORE PUSH1 0x3 PUSH1 0x20 MSTORE PUSH1 0x9 PUSH1 0x40 DUP3 KECCAK256 ADD PUSH1 0x2 PUSH1 0xFF NOT DUP3 SLOAD AND OR SWAP1 SSTORE DUP2 DUP2 MSTORE PUSH1 0x3 PUSH1 0x20 MSTORE TIMESTAMP PUSH1 0xA PUSH1 0x40 DUP4 KECCAK256 ADD SSTORE PUSH1 0x1 DUP1 PUSH1 0xA0 SHL SUB PUSH1 0x2 SLOAD AND DUP3 DUP3 MSTORE PUSH1 0x3 PUSH1 0x20 MSTORE PUSH1 0x2 PUSH1 0x40 DUP4 KECCAK256 ADD SLOAD DUP4 DUP4 MSTORE PUSH1 0x3 PUSH1 0x20 MSTORE PUSH1 0x3 PUSH1 0x40 DUP5 KECCAK256 ADD SLOAD SWAP1 DUP5 DUP5 MSTORE PUSH1 0x3 PUSH1 0x20 MSTORE PUSH1 0x6 PUSH1 0x40 DUP6 KECCAK256 ADD SLOAD SWAP3 DUP1 EXTCODESIZE ISZERO PUSH2 0xDD1 JUMPI DUP5 SWAP3 SWAP2 DUP4 PUSH1 0x64 SWAP3 PUSH1 0x40 MLOAD SWAP7 DUP8 SWAP6 DUP7 SWAP5 PUSH4 0xC1807DD PUSH1 0xE4 SHL DUP7 MSTORE PUSH1 0x4 DUP7 ADD MSTORE PUSH1 0x24 DUP6 ADD MSTORE PUSH1 0x44 DUP5 ADD MSTORE GAS CALL DUP1 ISZERO PUSH2 0x48C JUMPI PUSH2 0xDC1 JUMPI JUMPDEST POP SWAP1 PUSH32 0x4BD3AF5537D189E1996CA37B692AEBD54696471DC254856176477C35A02819E8 DUP3 DUP1 LOG2 PUSH1 0x1 DUP2 SSTORE DUP1 RETURN JUMPDEST DUP2 PUSH2 0xDCB SWAP2 PUSH2 0x11F6 JUMP JUMPDEST CODESIZE PUSH2 0xD94 JUMP JUMPDEST DUP5 DUP1 REVERT JUMPDEST PUSH1 0x40 MLOAD PUSH3 0x461BCD PUSH1 0xE5 SHL DUP2 MSTORE PUSH1 0x20 PUSH1 0x4 DUP3 ADD MSTORE PUSH1 0x1B PUSH1 0x24 DUP3 ADD MSTORE PUSH32 0x546F6F206561726C7920746F207374617274206368617267696E670000000000 PUSH1 0x44 DUP3 ADD MSTORE PUSH1 0x64 SWAP1 REVERT JUMPDEST PUSH4 0x4E487B71 PUSH1 0xE0 SHL DUP3 MSTORE PUSH1 0x11 PUSH1 0x4 MSTORE PUSH1 0x24 DUP3 REVERT JUMPDEST PUSH1 0x40 MLOAD PUSH3 0x461BCD PUSH1 0xE5 SHL DUP2 MSTORE PUSH1 0x20 PUSH1 0x4 DUP3 ADD MSTORE PUSH1 0x15 PUSH1 0x24 DUP3 ADD MSTORE PUSH21 0x109BDBDADA5B99C81B9BDD0818DBDB999A5C9B5959 PUSH1 0x5A SHL PUSH1 0x44 DUP3 ADD MSTORE PUSH1 0x64 SWAP1 REVERT JUMPDEST PUSH4 0x4E487B71 PUSH1 0xE0 SHL DUP3 MSTORE PUSH1 0x21 PUSH1 0x4 MSTORE PUSH1 0x24 DUP3 REVERT JUMPDEST POP CALLVALUE PUSH2 0xF2 JUMPI PUSH1 0x20 CALLDATASIZE PUSH1 0x3 NOT ADD SLT PUSH2 0xF2 JUMPI PUSH1 0x4 CALLDATALOAD DUP2 MSTORE PUSH1 0x3 PUSH1 0x20 MSTORE PUSH1 0x40 SWAP1 KECCAK256 DUP1 SLOAD SWAP1 PUSH1 0x1 PUSH1 0xA0 SHL PUSH1 0x1 SWAP1 SUB PUSH1 0x1 DUP3 ADD SLOAD AND SWAP1 PUSH1 0x2 DUP2 ADD SLOAD PUSH1 0x3 DUP3 ADD SLOAD PUSH1 0x4 DUP4 ADD SLOAD PUSH1 0x5 DUP5 ADD SLOAD PUSH1 0x6 DUP6 ADD SLOAD PUSH1 0x7 DUP7 ADD SLOAD SWAP1 PUSH1 0x8 DUP8 ADD SLOAD SWAP3 PUSH1 0x9 DUP9 ADD SLOAD PUSH1 0xFF AND SWAP5 PUSH1 0xA DUP10 ADD SLOAD SWAP7 PUSH1 0xB DUP11 ADD SLOAD SWAP9 PUSH1 0xC DUP12 ADD SLOAD SWAP11 PUSH1 0xD ADD SLOAD PUSH1 0xFF AND SWAP12 PUSH1 0x40 MLOAD DUP1 SWAP15 DUP2 MSTORE PUSH1 0x20 ADD MSTORE PUSH1 0x40 DUP14 ADD MSTORE PUSH1 0x60 DUP13 ADD MSTORE PUSH1 0x80 DUP12 ADD MSTORE PUSH1 0xA0 DUP11 ADD MSTORE PUSH1 0xC0 DUP10 ADD MSTORE PUSH1 0xE0 DUP9 ADD MSTORE PUSH2 0x100 DUP8 ADD MSTORE PUSH2 0x120 DUP7 ADD PUSH2 0xF37 SWAP2 PUSH2 0x10C8 JUMP JUMPDEST PUSH2 0x140 DUP6 ADD MSTORE PUSH2 0x160 DUP5 ADD MSTORE PUSH2 0x180 DUP4 ADD MSTORE ISZERO ISZERO PUSH2 0x1A0 DUP3 ADD MSTORE PUSH2 0x1C0 SWAP1 RETURN JUMPDEST POP CALLVALUE PUSH2 0xF2 JUMPI PUSH1 0x20 CALLDATASIZE PUSH1 0x3 NOT ADD SLT PUSH2 0xF2 JUMPI PUSH1 0x4 CALLDATALOAD DUP1 DUP3 MSTORE PUSH1 0x3 PUSH1 0x20 MSTORE PUSH2 0xF8E PUSH1 0x1 DUP1 PUSH1 0xA0 SHL SUB PUSH1 0x1 PUSH1 0x40 DUP6 KECCAK256 ADD SLOAD AND CALLER EQ PUSH2 0x1184 JUMP JUMPDEST DUP1 DUP3 MSTORE PUSH1 0x3 PUSH1 0x20 MSTORE PUSH1 0xFF PUSH1 0x9 PUSH1 0x40 DUP5 KECCAK256 ADD SLOAD AND PUSH1 0x6 DUP2 LT ISZERO PUSH2 0xC56 JUMPI ISZERO DUP1 ISZERO PUSH2 0x1083 JUMPI JUMPDEST ISZERO PUSH2 0x102E JUMPI DUP1 DUP3 MSTORE PUSH1 0x3 PUSH1 0x20 MSTORE PUSH1 0x9 PUSH1 0x40 DUP4 KECCAK256 ADD PUSH1 0x4 PUSH1 0xFF NOT DUP3 SLOAD AND OR SWAP1 SSTORE DUP1 DUP3 MSTORE PUSH1 0x3 PUSH1 0x20 MSTORE PUSH1 0x2 PUSH1 0x40 DUP4 KECCAK256 ADD SLOAD DUP3 MSTORE PUSH1 0x5 PUSH1 0x20 MSTORE PUSH1 0x40 DUP3 KECCAK256 DUP2 DUP4 MSTORE PUSH1 0x3 PUSH1 0x20 MSTORE PUSH1 0x3 PUSH1 0x40 DUP5 KECCAK256 ADD SLOAD DUP4 MSTORE PUSH1 0x20 MSTORE DUP2 PUSH1 0x40 DUP2 KECCAK256 SSTORE PUSH32 0xF774C001CB52A3566B767ED6E37C92706ACB2B80A3FF6049E2849CD62725D085 DUP3 DUP1 LOG2 DUP1 RETURN JUMPDEST PUSH1 0x40 MLOAD PUSH3 0x461BCD PUSH1 0xE5 SHL DUP2 MSTORE PUSH1 0x20 PUSH1 0x4 DUP3 ADD MSTORE PUSH1 0x27 PUSH1 0x24 DUP3 ADD MSTORE PUSH32 0x43616E6E6F742063616E63656C20626F6F6B696E6720696E2063757272656E74 PUSH1 0x44 DUP3 ADD MSTORE PUSH7 0x20737461747573 PUSH1 0xC8 SHL PUSH1 0x64 DUP3 ADD MSTORE PUSH1 0x84 SWAP1 REVERT JUMPDEST POP DUP1 DUP3 MSTORE PUSH1 0x3 PUSH1 0x20 MSTORE PUSH1 0xFF PUSH1 0x9 PUSH1 0x40 DUP5 KECCAK256 ADD SLOAD AND PUSH1 0x6 DUP2 LT ISZERO PUSH2 0xC56 JUMPI PUSH1 0x1 EQ PUSH2 0xFB2 JUMP JUMPDEST SWAP1 POP CALLVALUE PUSH2 0x10C4 JUMPI DUP2 PUSH1 0x3 NOT CALLDATASIZE ADD SLT PUSH2 0x10C4 JUMPI PUSH1 0x20 SWAP1 PUSH1 0x1 SLOAD DUP2 MSTORE RETURN JUMPDEST POP DUP1 REVERT JUMPDEST SWAP1 PUSH1 0x6 DUP3 LT ISZERO PUSH2 0x10D5 JUMPI MSTORE JUMP JUMPDEST PUSH4 0x4E487B71 PUSH1 0xE0 SHL PUSH1 0x0 MSTORE PUSH1 0x21 PUSH1 0x4 MSTORE PUSH1 0x24 PUSH1 0x0 REVERT JUMPDEST PUSH1 0x40 SWAP1 PUSH1 0x3 NOT ADD SLT PUSH2 0x1101 JUMPI PUSH1 0x4 CALLDATALOAD SWAP1 PUSH1 0x24 CALLDATALOAD SWAP1 JUMP JUMPDEST PUSH1 0x0 DUP1 REVERT JUMPDEST PUSH1 0x20 PUSH1 0x40 DUP2 DUP4 ADD SWAP3 DUP3 DUP2 MSTORE DUP5 MLOAD DUP1 SWAP5 MSTORE ADD SWAP3 ADD SWAP1 PUSH1 0x0 JUMPDEST DUP2 DUP2 LT PUSH2 0x112A JUMPI POP POP POP SWAP1 JUMP JUMPDEST DUP3 MLOAD DUP5 MSTORE PUSH1 0x20 SWAP4 DUP5 ADD SWAP4 SWAP1 SWAP3 ADD SWAP2 PUSH1 0x1 ADD PUSH2 0x111D JUMP JUMPDEST DUP1 SLOAD DUP3 LT ISZERO PUSH2 0x1158 JUMPI PUSH1 0x0 MSTORE PUSH1 0x20 PUSH1 0x0 KECCAK256 ADD SWAP1 PUSH1 0x0 SWAP1 JUMP JUMPDEST PUSH4 0x4E487B71 PUSH1 0xE0 SHL PUSH1 0x0 MSTORE PUSH1 0x32 PUSH1 0x4 MSTORE PUSH1 0x24 PUSH1 0x0 REVERT JUMPDEST PUSH1 0x4 CALLDATALOAD SWAP1 PUSH1 0x1 PUSH1 0x1 PUSH1 0xA0 SHL SUB DUP3 AND DUP3 SUB PUSH2 0x1101 JUMPI JUMP JUMPDEST ISZERO PUSH2 0x118B JUMPI JUMP JUMPDEST PUSH1 0x40 MLOAD PUSH3 0x461BCD PUSH1 0xE5 SHL DUP2 MSTORE PUSH1 0x20 PUSH1 0x4 DUP3 ADD MSTORE PUSH1 0x10 PUSH1 0x24 DUP3 ADD MSTORE PUSH16 0x4E6F7420796F757220626F6F6B696E67 PUSH1 0x80 SHL PUSH1 0x44 DUP3 ADD MSTORE PUSH1 0x64 SWAP1 REVERT JUMPDEST PUSH2 0x1C0 DUP2 ADD SWAP1 DUP2 LT PUSH8 0xFFFFFFFFFFFFFFFF DUP3 GT OR PUSH2 0x11E0 JUMPI PUSH1 0x40 MSTORE JUMP JUMPDEST PUSH4 0x4E487B71 PUSH1 0xE0 SHL PUSH1 0x0 MSTORE PUSH1 0x41 PUSH1 0x4 MSTORE PUSH1 0x24 PUSH1 0x0 REVERT JUMPDEST SWAP1 PUSH1 0x1F DUP1 NOT SWAP2 ADD AND DUP2 ADD SWAP1 DUP2 LT PUSH8 0xFFFFFFFFFFFFFFFF DUP3 GT OR PUSH2 0x11E0 JUMPI PUSH1 0x40 MSTORE JUMP JUMPDEST PUSH1 0x6 DUP3 LT ISZERO PUSH2 0x10D5 JUMPI MSTORE JUMP JUMPDEST DUP2 PUSH1 0x1F DUP3 ADD SLT ISZERO PUSH2 0x1101 JUMPI DUP1 MLOAD SWAP1 PUSH8 0xFFFFFFFFFFFFFFFF DUP3 GT PUSH2 0x11E0 JUMPI PUSH1 0x40 MLOAD SWAP3 PUSH2 0x1259 PUSH1 0x1F DUP5 ADD PUSH1 0x1F NOT AND PUSH1 0x20 ADD DUP6 PUSH2 0x11F6 JUMP JUMPDEST DUP3 DUP5 MSTORE PUSH1 0x20 DUP4 DUP4 ADD ADD GT PUSH2 0x1101 JUMPI PUSH1 0x0 JUMPDEST DUP3 DUP2 LT PUSH2 0x127F JUMPI POP POP PUSH1 0x20 PUSH1 0x0 SWAP2 DUP4 ADD ADD MSTORE SWAP1 JUMP JUMPDEST DUP1 PUSH1 0x20 DUP1 SWAP3 DUP5 ADD ADD MLOAD DUP3 DUP3 DUP8 ADD ADD MSTORE ADD PUSH2 0x126A JUMP JUMPDEST PUSH1 0x20 DUP2 DUP4 SUB SLT PUSH2 0x1101 JUMPI DUP1 MLOAD SWAP1 PUSH8 0xFFFFFFFFFFFFFFFF DUP3 GT PUSH2 0x1101 JUMPI ADD PUSH2 0x1A0 DUP2 DUP4 SUB SLT PUSH2 0x1101 JUMPI PUSH1 0x40 MLOAD SWAP2 PUSH2 0x1A0 DUP4 ADD DUP4 DUP2 LT PUSH8 0xFFFFFFFFFFFFFFFF DUP3 GT OR PUSH2 0x11E0 JUMPI PUSH1 0x40 MSTORE DUP2 MLOAD DUP4 MSTORE PUSH1 0x20 DUP3 ADD MLOAD PUSH8 0xFFFFFFFFFFFFFFFF DUP2 GT PUSH2 0x1101 JUMPI DUP2 PUSH2 0x12FF SWAP2 DUP5 ADD PUSH2 0x1224 JUMP JUMPDEST PUSH1 0x20 DUP5 ADD MSTORE PUSH1 0x40 DUP3 ADD MLOAD PUSH8 0xFFFFFFFFFFFFFFFF DUP2 GT PUSH2 0x1101 JUMPI DUP2 PUSH2 0x1324 SWAP2 DUP5 ADD PUSH2 0x1224 JUMP JUMPDEST PUSH1 0x40 DUP5 ADD MSTORE PUSH1 0x60 DUP3 ADD MLOAD PUSH1 0x60 DUP5 ADD MSTORE PUSH1 0x80 DUP3 ADD MLOAD PUSH1 0x80 DUP5 ADD MSTORE PUSH1 0xA0 DUP3 ADD MLOAD PUSH1 0xA0 DUP5 ADD MSTORE PUSH1 0xC0 DUP3 ADD MLOAD PUSH1 0xC0 DUP5 ADD MSTORE PUSH1 0xE0 DUP3 ADD MLOAD PUSH1 0xE0 DUP5 ADD MSTORE PUSH2 0x100 DUP3 ADD MLOAD PUSH2 0x100 DUP5 ADD MSTORE PUSH2 0x120 DUP3 ADD MLOAD PUSH8 0xFFFFFFFFFFFFFFFF DUP2 GT PUSH2 0x1101 JUMPI DUP3 ADD SWAP1 DUP1 PUSH1 0x1F DUP4 ADD SLT ISZERO PUSH2 0x1101 JUMPI DUP2 MLOAD SWAP2 PUSH8 0xFFFFFFFFFFFFFFFF DUP4 GT PUSH2 0x11E0 JUMPI DUP3 PUSH1 0x5 SHL SWAP1 PUSH1 0x40 MLOAD SWAP4 PUSH2 0x13B2 PUSH1 0x20 DUP5 ADD DUP7 PUSH2 0x11F6 JUMP JUMPDEST DUP5 MSTORE PUSH1 0x20 DUP1 DUP6 ADD SWAP3 DUP3 ADD ADD SWAP2 DUP4 DUP4 GT PUSH2 0x1101 JUMPI PUSH1 0x20 DUP3 ADD SWAP1 JUMPDEST DUP4 DUP3 LT PUSH2 0x141E JUMPI POP POP POP POP POP PUSH2 0x120 DUP4 ADD MSTORE PUSH2 0x140 DUP2 ADD MLOAD DUP1 ISZERO ISZERO DUP2 SUB PUSH2 0x1101 JUMPI PUSH2 0x140 DUP4 ADD MSTORE PUSH2 0x160 DUP2 ADD MLOAD SWAP1 PUSH1 0x1 PUSH1 0x1 PUSH1 0xA0 SHL SUB DUP3 AND DUP3 SUB PUSH2 0x1101 JUMPI PUSH2 0x180 SWAP2 PUSH2 0x160 DUP5 ADD MSTORE ADD MLOAD PUSH2 0x180 DUP3 ADD MSTORE SWAP1 JUMP JUMPDEST DUP2 MLOAD PUSH8 0xFFFFFFFFFFFFFFFF DUP2 GT PUSH2 0x1101 JUMPI PUSH1 0x20 SWAP2 PUSH2 0x1441 DUP8 DUP5 DUP1 SWAP5 DUP9 ADD ADD PUSH2 0x1224 JUMP JUMPDEST DUP2 MSTORE ADD SWAP2 ADD SWAP1 PUSH2 0x13CB JUMP JUMPDEST DUP1 SLOAD PUSH9 0x10000000000000000 DUP2 LT ISZERO PUSH2 0x11E0 JUMPI PUSH2 0x146E SWAP2 PUSH1 0x1 DUP3 ADD DUP2 SSTORE PUSH2 0x1140 JUMP JUMPDEST DUP2 SWAP3 SWAP2 SLOAD SWAP1 PUSH1 0x3 SHL SWAP2 DUP3 SHL SWAP2 PUSH1 0x0 NOT SWAP1 SHL NOT AND OR SWAP1 SSTORE JUMP JUMPDEST PUSH1 0x0 MSTORE PUSH1 0x5 PUSH1 0x20 MSTORE PUSH1 0x40 PUSH1 0x0 KECCAK256 SWAP1 PUSH1 0x0 MSTORE PUSH1 0x20 MSTORE PUSH1 0x40 PUSH1 0x0 KECCAK256 SLOAD DUP1 ISZERO PUSH2 0x15BB JUMPI PUSH1 0x0 MSTORE PUSH1 0x3 PUSH1 0x20 MSTORE PUSH1 0x40 PUSH1 0x0 KECCAK256 SWAP2 PUSH1 0x40 MLOAD SWAP3 PUSH2 0x14C1 DUP5 PUSH2 0x11C3 JUMP JUMPDEST DUP1 SLOAD DUP5 MSTORE PUSH1 0x1 DUP1 PUSH1 0xA0 SHL SUB PUSH1 0x1 DUP3 ADD SLOAD AND PUSH1 0x20 DUP6 ADD MSTORE PUSH1 0x2 DUP2 ADD SLOAD PUSH1 0x40 DUP6 ADD MSTORE PUSH1 0x3 DUP2 ADD SLOAD PUSH1 0x60 DUP6 ADD MSTORE PUSH1 0x4 DUP2 ADD SLOAD PUSH1 0x80 DUP6 ADD MSTORE PUSH1 0x5 DUP2 ADD SLOAD SWAP1 PUSH1 0xA0 DUP6 ADD SWAP2 DUP3 MSTORE PUSH1 0x6 DUP2 ADD SLOAD SWAP5 PUSH1 0xC0 DUP2 ADD SWAP6 DUP7 MSTORE PUSH1 0x7 DUP3 ADD SLOAD PUSH1 0xE0 DUP3 ADD MSTORE PUSH1 0x8 DUP3 ADD SLOAD PUSH2 0x100 DUP3 ADD MSTORE PUSH2 0x1A0 PUSH1 0xFF PUSH1 0xD DUP2 PUSH1 0x9 DUP7 ADD SLOAD AND SWAP5 PUSH2 0x1542 PUSH2 0x120 DUP7 ADD SWAP7 DUP8 PUSH2 0x1218 JUMP JUMPDEST PUSH1 0xA DUP2 ADD SLOAD PUSH2 0x140 DUP7 ADD MSTORE PUSH1 0xB DUP2 ADD SLOAD PUSH2 0x160 DUP7 ADD MSTORE PUSH1 0xC DUP2 ADD SLOAD PUSH2 0x180 DUP7 ADD MSTORE ADD SLOAD AND ISZERO ISZERO SWAP2 ADD MSTORE DUP1 MLOAD PUSH1 0x6 DUP2 LT ISZERO PUSH2 0x10D5 JUMPI PUSH1 0x4 EQ SWAP1 DUP2 ISZERO PUSH2 0x15A6 JUMPI JUMPDEST POP PUSH2 0x159D JUMPI MLOAD LT SWAP2 DUP3 ISZERO SWAP3 PUSH2 0x1595 JUMPI POP POP SWAP1 JUMP JUMPDEST MLOAD GT ISZERO SWAP2 SWAP1 POP JUMP JUMPDEST POP POP POP POP PUSH1 0x1 SWAP1 JUMP JUMPDEST SWAP1 POP MLOAD PUSH1 0x6 DUP2 LT ISZERO PUSH2 0x10D5 JUMPI PUSH1 0x3 EQ CODESIZE PUSH2 0x1581 JUMP JUMPDEST POP POP POP PUSH1 0x1 SWAP1 JUMP JUMPDEST PUSH1 0x2 PUSH1 0x0 SLOAD EQ PUSH2 0x15D4 JUMPI PUSH1 0x2 PUSH1 0x0 SSTORE JUMP JUMPDEST PUSH4 0x3EE5AEB5 PUSH1 0xE0 SHL PUSH1 0x0 MSTORE PUSH1 0x4 PUSH1 0x0 REVERT INVALID LOG2 PUSH5 0x6970667358 0x22 SLT KECCAK256 0xC7 SWAP10 PUSH26 0xEDF049E558A1743DA49543B8BCAC4537961EFFC217998293DA40 0xE5 PUSH12 0xF464736F6C634300081C0033 "},"methodIdentifiers":{"bookings(uint256)":"1dab301e","cancelBooking(uint256)":"0dca825e","chargingStationManager()":"5fd999b3","completeCharging(uint256,uint256)":"82577169","confirmBooking(uint256)":"54056b69","createBooking(uint256,uint256,uint256,uint256,uint256)":"7b9afeed","getBooking(uint256)":"6a5c841a","getCurrentBookingId()":"0a3599de","getJourneyBookings(uint256)":"a9409994","getUserBookings(address)":"ef3197c8","isSlotAvailable(uint256,uint256,uint256,uint256)":"86f13fcc","journeyBookings(uint256,uint256)":"d3e52431","startCharging(uint256)":"22d8df12","stationSlotBookings(uint256,uint256)":"fdea2310","userBookings(address,uint256)":"e3a4d3a2"}}}}}