{"contracts/VehicleRegistry.sol":{"VehicleRegistry":{"abi":[{"inputs":[],"stateMutability":"nonpayable","type":"constructor"},{"inputs":[{"internalType":"address","name":"owner","type":"address"}],"name":"OwnableInvalidOwner","type":"error"},{"inputs":[{"internalType":"address","name":"account","type":"address"}],"name":"OwnableUnauthorizedAccount","type":"error"},{"anonymous":false,"inputs":[{"indexed":true,"internalType":"address","name":"user","type":"address"},{"indexed":true,"internalType":"uint256","name":"userVehicleIndex","type":"uint256"},{"indexed":false,"internalType":"uint256","name":"batteryLevel","type":"uint256"}],"name":"BatteryLevelUpdated","type":"event"},{"anonymous":false,"inputs":[{"indexed":true,"internalType":"address","name":"previousOwner","type":"address"},{"indexed":true,"internalType":"address","name":"newOwner","type":"address"}],"name":"OwnershipTransferred","type":"event"},{"anonymous":false,"inputs":[{"indexed":true,"internalType":"address","name":"user","type":"address"},{"indexed":true,"internalType":"uint256","name":"vehicleId","type":"uint256"},{"indexed":false,"internalType":"string","name":"licensePlate","type":"string"}],"name":"UserVehicleRegistered","type":"event"},{"anonymous":false,"inputs":[{"indexed":true,"internalType":"uint256","name":"vehicleId","type":"uint256"},{"indexed":false,"internalType":"string","name":"model","type":"string"},{"indexed":false,"internalType":"string","name":"brand","type":"string"}],"name":"VehicleAdded","type":"event"},{"inputs":[{"internalType":"string","name":"_model","type":"string"},{"internalType":"string","name":"_brand","type":"string"},{"internalType":"uint256","name":"_batteryCapacity","type":"uint256"},{"internalType":"uint256","name":"_range","type":"uint256"},{"internalType":"uint256","name":"_chargingSpeed","type":"uint256"}],"name":"addVehicle","outputs":[],"stateMutability":"nonpayable","type":"function"},{"inputs":[],"name":"getCurrentVehicleId","outputs":[{"internalType":"uint256","name":"","type":"uint256"}],"stateMutability":"view","type":"function"},{"inputs":[],"name":"getTotalVehicles","outputs":[{"internalType":"uint256","name":"","type":"uint256"}],"stateMutability":"view","type":"function"},{"inputs":[{"internalType":"address","name":"_user","type":"address"}],"name":"getUserVehicles","outputs":[{"components":[{"internalType":"uint256","name":"vehicleId","type":"uint256"},{"internalType":"address","name":"owner","type":"address"},{"internalType":"string","name":"licensePlate","type":"string"},{"internalType":"uint256","name":"currentBatteryLevel","type":"uint256"},{"internalType":"uint256","name":"lastUpdated","type":"uint256"}],"internalType":"struct VehicleRegistry.UserVehicle[]","name":"","type":"tuple[]"}],"stateMutability":"view","type":"function"},{"inputs":[{"internalType":"uint256","name":"_vehicleId","type":"uint256"}],"name":"getVehicle","outputs":[{"components":[{"internalType":"uint256","name":"id","type":"uint256"},{"internalType":"string","name":"model","type":"string"},{"internalType":"string","name":"brand","type":"string"},{"internalType":"uint256","name":"batteryCapacity","type":"uint256"},{"internalType":"uint256","name":"range","type":"uint256"},{"internalType":"uint256","name":"chargingSpeed","type":"uint256"},{"internalType":"bool","name":"isActive","type":"bool"},{"internalType":"uint256","name":"createdAt","type":"uint256"}],"internalType":"struct VehicleRegistry.Vehicle","name":"","type":"tuple"}],"stateMutability":"view","type":"function"},{"inputs":[],"name":"owner","outputs":[{"internalType":"address","name":"","type":"address"}],"stateMutability":"view","type":"function"},{"inputs":[{"internalType":"uint256","name":"_vehicleId","type":"uint256"},{"internalType":"string","name":"_licensePlate","type":"string"},{"internalType":"uint256","name":"_currentBatteryLevel","type":"uint256"}],"name":"registerUserVehicle","outputs":[],"stateMutability":"nonpayable","type":"function"},{"inputs":[],"name":"renounceOwnership","outputs":[],"stateMutability":"nonpayable","type":"function"},{"inputs":[{"internalType":"address","name":"newOwner","type":"address"}],"name":"transferOwnership","outputs":[],"stateMutability":"nonpayable","type":"function"},{"inputs":[{"internalType":"uint256","name":"_userVehicleIndex","type":"uint256"},{"internalType":"uint256","name":"_batteryLevel","type":"uint256"}],"name":"updateBatteryLevel","outputs":[],"stateMutability":"nonpayable","type":"function"},{"inputs":[{"internalType":"address","name":"","type":"address"},{"internalType":"uint256","name":"","type":"uint256"}],"name":"userVehicles","outputs":[{"internalType":"uint256","name":"vehicleId","type":"uint256"},{"internalType":"address","name":"owner","type":"address"},{"internalType":"string","name":"licensePlate","type":"string"},{"internalType":"uint256","name":"currentBatteryLevel","type":"uint256"},{"internalType":"uint256","name":"lastUpdated","type":"uint256"}],"stateMutability":"view","type":"function"},{"inputs":[{"internalType":"uint256","name":"","type":"uint256"}],"name":"vehicleExists","outputs":[{"internalType":"bool","name":"","type":"bool"}],"stateMutability":"view","type":"function"},{"inputs":[{"internalType":"uint256","name":"","type":"uint256"}],"name":"vehicles","outputs":[{"internalType":"uint256","name":"id","type":"uint256"},{"internalType":"string","name":"model","type":"string"},{"internalType":"string","name":"brand","type":"string"},{"internalType":"uint256","name":"batteryCapacity","type":"uint256"},{"internalType":"uint256","name":"range","type":"uint256"},{"internalType":"uint256","name":"chargingSpeed","type":"uint256"},{"internalType":"bool","name":"isActive","type":"bool"},{"internalType":"uint256","name":"createdAt","type":"uint256"}],"stateMutability":"view","type":"function"}],"evm":{"bytecode":{"linkReferences":{},"object":"60808060405234607a57331560645760008054336001600160a01b0319821681178355916001600160a01b03909116907f8be0079c531659141344cd1fd0a4f28419497f9722a3daafe3b4186f6b6457e09080a360006001556110ae90816100808239f35b631e4fbdf760e01b600052600060045260246000fd5b600080fdfe608080604052600436101561001357600080fd5b60003560e01c90816343b522b014610c24575080635ae11a8a1461096657806369056b271461040f578063715018a61461090d5780638da5cb5b146108e4578063aa4da66e146104ef578063b19232fc146104be578063b8ba95fa14610414578063c0049b2b1461040f578063cc63ab0e14610370578063db80644914610290578063df7ebb7b1461013c5763f2fde38b146100ae57600080fd5b34610137576020366003190112610137576100c7610d88565b6100cf61104f565b6001600160a01b0316801561012157600080546001600160a01b03198116831782556001600160a01b0316907f8be0079c531659141344cd1fd0a4f28419497f9722a3daafe3b4186f6b6457e09080a3005b631e4fbdf760e01b600052600060045260246000fd5b600080fd5b3461013757602036600319011261013757600435600060e060405161016081610dfb565b82815260606020820152606060408201528260608201528260808201528260a08201528260c082015201528060005260046020526101a560ff60406000205416610fbf565b600052600260205260406000206040516101be81610dfb565b815481526101ce60018301610ee9565b91602082019283526101e260028201610ee9565b604083019081526003820154916060840192835260048101546080850190815260058201549060a0860191825261026a600760ff6006860154169460c08901951515865201549460e08801958652610257604051998a9960208b525160208b01525161010060408b01526101208a0190610d9e565b9051888203601f190160608a0152610d9e565b945160808701525160a08601525160c085015251151560e0840152516101008301520390f35b3461013757604036600319011261013757600435602435336000526003602052604060002054821015610333576102ca6064821115611004565b3360005260036020528060036102e4846040600020610f8d565b5001553360005260036020526102fe826040600020610f8d565b506004429101556040519081527f5ad210155995469e8bf48add348a5927343c587acd94110548a9e5b3f4907f2060203392a3005b60405162461bcd60e51b8152602060048201526015602482015274092dcecc2d8d2c840eccad0d2c6d8ca40d2dcc8caf605b1b6044820152606490fd5b3461013757604036600319011261013757610389610d88565b6001600160a01b03166000908152600360205260409020805460243590811015610137576103b691610f8d565b50805460018201546001600160a01b0316916103d460028201610ee9565b61040060046003840154930154916040519586958652602086015260a0604086015260a0850190610d9e565b91606084015260808301520390f35b610e91565b346101375760203660031901126101375760043560005260026020526040600020805461044360018301610ee9565b9161045060028201610ee9565b600382015491600481015460058201549061049e600760ff60068601541694015494610490604051998a998a5261010060208b01526101008a0190610d9e565b9088820360408a0152610d9e565b946060870152608086015260a0850152151560c084015260e08301520390f35b34610137576020366003190112610137576004356000526004602052602060ff604060002054166040519015158152f35b346101375760a03660031901126101375760043567ffffffffffffffff811161013757610520903690600401610e3a565b60243567ffffffffffffffff811161013757610540903690600401610e3a565b9061054961104f565b60015460001981146108ce57600101918260015560405161056981610dfb565b838152602081018381526040820183815260608301604435815260808401606435815260a0850191608435835260c08601936001855260e08701954287528a600052600260205260406000209751885560018801905180519067ffffffffffffffff82116107f55781906105dd8454610eaf565b601f811161087b575b50602090601f83116001146108165760009261080b575b50508160011b916000199060031b1c19161790555b518051600288019167ffffffffffffffff82116107f5576106338354610eaf565b601f81116107ad575b50602090601f831160011461071357936106f59a9793837f38c58b3e6c6cca4174c4c4aad317d832edd908ddd62d412889b13251180377839d9b9894600798946107039c98600092610708575b50508160011b916000199060031b1c19161790555b516003870155516004860155516005850155600684019051151560ff80198354169116179055519101558560005260046020526040600020600160ff19825416179055604051938493604085526040850190610d9e565b908382036020850152610d9e565b0390a2005b015190503880610689565b90601f1983169184600052816000209260005b818110610795575084600798947f38c58b3e6c6cca4174c4c4aad317d832edd908ddd62d412889b13251180377839f9d9a96946106f59f9c98946107039e9a966001951061077c575b505050811b01905561069e565b015160001960f88460031b161c1916905538808061076f565b92936020600181928786015181550195019301610726565b836000526020600020601f840160051c810191602085106107eb575b601f0160051c01905b8181106107df575061063c565b600081556001016107d2565b90915081906107c9565b634e487b7160e01b600052604160045260246000fd5b015190508d806105fd565b60008581528281209350601f198516905b818110610863575090846001959493921061084a575b505050811b019055610612565b015160001960f88460031b161c191690558d808061083d565b92936020600181928786015181550195019301610827565b909150836000526020600020601f840160051c810191602085106108c4575b90601f859493920160051c01905b8181106108b557506105e6565b600081558493506001016108a8565b909150819061089a565b634e487b7160e01b600052601160045260246000fd5b34610137576000366003190112610137576000546040516001600160a01b039091168152602090f35b346101375760003660031901126101375761092661104f565b600080546001600160a01b0319811682556001600160a01b03167f8be0079c531659141344cd1fd0a4f28419497f9722a3daafe3b4186f6b6457e08280a3005b346101375760603660031901126101375760043560243567ffffffffffffffff81116101375761099a903690600401610e3a565b90604435918160005260046020526109b960ff60406000205416610fbf565b81600052600260205260ff6006604060002001541615610be7576109e06064841115611004565b3360005260036020526040600020604051906109fb82610ddf565b838252602082019433865260408301958487526060840191825260808401924284528054680100000000000000008110156107f557610a3f91600182018155610f8d565b949094610bd157518455600184019060018060a01b039051166bffffffffffffffffffffffff60a01b82541617905560028301955195865167ffffffffffffffff81116107f557610a908254610eaf565b601f8111610b89575b506020601f8211600114610b1e578190600496979899600092610b13575b50508160011b916000199060031b1c19161790555b516003840155519101557f19dccdcee399fa238d1a65a301bf144afdcb9b05fd65eb639ceaddf79b5c50306040516020815280610b0e33946020830190610d9e565b0390a3005b015190508980610ab7565b601f1982169883600052816000209960005b818110610b7157509160049798999a91846001959410610b58575b505050811b019055610acc565b015160001960f88460031b161c19169055898080610b4b565b838301518c556001909b019a60209384019301610b30565b826000526020600020601f830160051c81019160208410610bc7575b601f0160051c01905b818110610bbb5750610a99565b60008155600101610bae565b9091508190610ba5565b634e487b7160e01b600052600060045260246000fd5b60405162461bcd60e51b815260206004820152601560248201527456656869636c65206973206e6f742061637469766560581b6044820152606490fd5b34610137576020366003190112610137576001600160a01b03610c45610d88565b1660005260036020526040600020805467ffffffffffffffff81116107f557610c7460208260051b0184610e18565b80835260208301809260005260206000206000915b838310610d2f57848660405191829160208301906020845251809152604083019060408160051b85010192916000905b828210610cc857505050500390f35b919360019193955060208091603f1989820301855287519081518152848060a01b03838301511683820152608080610d0f604085015160a0604086015260a0850190610d9e565b936060810151606085015201519101529601920192018594939192610cb9565b60056020600192604051610d4281610ddf565b85548152848060a01b03858701541683820152610d6160028701610ee9565b60408201526003860154606082015260048601546080820152815201920192019190610c89565b600435906001600160a01b038216820361013757565b919082519283825260005b848110610dca575050826000602080949584010152601f8019910116010190565b80602080928401015182828601015201610da9565b60a0810190811067ffffffffffffffff8211176107f557604052565b610100810190811067ffffffffffffffff8211176107f557604052565b90601f8019910116810190811067ffffffffffffffff8211176107f557604052565b81601f820112156101375780359067ffffffffffffffff82116107f55760405192610e6f601f8401601f191660200185610e18565b8284526020838301011161013757816000926020809301838601378301015290565b34610137576000366003190112610137576020600154604051908152f35b90600182811c92168015610edf575b6020831014610ec957565b634e487b7160e01b600052602260045260246000fd5b91607f1691610ebe565b9060405191826000825492610efd84610eaf565b8084529360018116908115610f6b5750600114610f24575b50610f2292500383610e18565b565b90506000929192526020600020906000915b818310610f4f575050906020610f229282010138610f15565b6020919350806001915483858901015201910190918492610f36565b905060209250610f2294915060ff191682840152151560051b82010138610f15565b8054821015610fa9576000526005602060002091020190600090565b634e487b7160e01b600052603260045260246000fd5b15610fc657565b60405162461bcd60e51b815260206004820152601660248201527515995a1a58db1948191bd95cc81b9bdd08195e1a5cdd60521b6044820152606490fd5b1561100b57565b606460405162461bcd60e51b815260206004820152602060248201527f42617474657279206c6576656c2063616e6e6f742065786365656420313030256044820152fd5b6000546001600160a01b0316330361106357565b63118cdaa760e01b6000523360045260246000fdfea26469706673582212203b611c74ad87549736b55b82f526a509e96270ad14ebc0365f2417f0299de8a364736f6c634300081c0033","opcodes":"PUSH1 0x80 DUP1 PUSH1 0x40 MSTORE CALLVALUE PUSH1 0x7A JUMPI CALLER ISZERO PUSH1 0x64 JUMPI PUSH1 0x0 DUP1 SLOAD CALLER PUSH1 0x1 PUSH1 0x1 PUSH1 0xA0 SHL SUB NOT DUP3 AND DUP2 OR DUP4 SSTORE SWAP2 PUSH1 0x1 PUSH1 0x1 PUSH1 0xA0 SHL SUB SWAP1 SWAP2 AND SWAP1 PUSH32 0x8BE0079C531659141344CD1FD0A4F28419497F9722A3DAAFE3B4186F6B6457E0 SWAP1 DUP1 LOG3 PUSH1 0x0 PUSH1 0x1 SSTORE PUSH2 0x10AE SWAP1 DUP2 PUSH2 0x80 DUP3 CODECOPY RETURN JUMPDEST PUSH4 0x1E4FBDF7 PUSH1 0xE0 SHL PUSH1 0x0 MSTORE PUSH1 0x0 PUSH1 0x4 MSTORE PUSH1 0x24 PUSH1 0x0 REVERT JUMPDEST PUSH1 0x0 DUP1 REVERT INVALID PUSH1 0x80 DUP1 PUSH1 0x40 MSTORE PUSH1 0x4 CALLDATASIZE LT ISZERO PUSH2 0x13 JUMPI PUSH1 0x0 DUP1 REVERT JUMPDEST PUSH1 0x0 CALLDATALOAD PUSH1 0xE0 SHR SWAP1 DUP2 PUSH4 0x43B522B0 EQ PUSH2 0xC24 JUMPI POP DUP1 PUSH4 0x5AE11A8A EQ PUSH2 0x966 JUMPI DUP1 PUSH4 0x69056B27 EQ PUSH2 0x40F JUMPI DUP1 PUSH4 0x715018A6 EQ PUSH2 0x90D JUMPI DUP1 PUSH4 0x8DA5CB5B EQ PUSH2 0x8E4 JUMPI DUP1 PUSH4 0xAA4DA66E EQ PUSH2 0x4EF JUMPI DUP1 PUSH4 0xB19232FC EQ PUSH2 0x4BE JUMPI DUP1 PUSH4 0xB8BA95FA EQ PUSH2 0x414 JUMPI DUP1 PUSH4 0xC0049B2B EQ PUSH2 0x40F JUMPI DUP1 PUSH4 0xCC63AB0E EQ PUSH2 0x370 JUMPI DUP1 PUSH4 0xDB806449 EQ PUSH2 0x290 JUMPI DUP1 PUSH4 0xDF7EBB7B EQ PUSH2 0x13C JUMPI PUSH4 0xF2FDE38B EQ PUSH2 0xAE JUMPI PUSH1 0x0 DUP1 REVERT JUMPDEST CALLVALUE PUSH2 0x137 JUMPI PUSH1 0x20 CALLDATASIZE PUSH1 0x3 NOT ADD SLT PUSH2 0x137 JUMPI PUSH2 0xC7 PUSH2 0xD88 JUMP JUMPDEST PUSH2 0xCF PUSH2 0x104F JUMP JUMPDEST PUSH1 0x1 PUSH1 0x1 PUSH1 0xA0 SHL SUB AND DUP1 ISZERO PUSH2 0x121 JUMPI PUSH1 0x0 DUP1 SLOAD PUSH1 0x1 PUSH1 0x1 PUSH1 0xA0 SHL SUB NOT DUP2 AND DUP4 OR DUP3 SSTORE PUSH1 0x1 PUSH1 0x1 PUSH1 0xA0 SHL SUB AND SWAP1 PUSH32 0x8BE0079C531659141344CD1FD0A4F28419497F9722A3DAAFE3B4186F6B6457E0 SWAP1 DUP1 LOG3 STOP JUMPDEST PUSH4 0x1E4FBDF7 PUSH1 0xE0 SHL PUSH1 0x0 MSTORE PUSH1 0x0 PUSH1 0x4 MSTORE PUSH1 0x24 PUSH1 0x0 REVERT JUMPDEST PUSH1 0x0 DUP1 REVERT JUMPDEST CALLVALUE PUSH2 0x137 JUMPI PUSH1 0x20 CALLDATASIZE PUSH1 0x3 NOT ADD SLT PUSH2 0x137 JUMPI PUSH1 0x4 CALLDATALOAD PUSH1 0x0 PUSH1 0xE0 PUSH1 0x40 MLOAD PUSH2 0x160 DUP2 PUSH2 0xDFB JUMP JUMPDEST DUP3 DUP2 MSTORE PUSH1 0x60 PUSH1 0x20 DUP3 ADD MSTORE PUSH1 0x60 PUSH1 0x40 DUP3 ADD MSTORE DUP3 PUSH1 0x60 DUP3 ADD MSTORE DUP3 PUSH1 0x80 DUP3 ADD MSTORE DUP3 PUSH1 0xA0 DUP3 ADD MSTORE DUP3 PUSH1 0xC0 DUP3 ADD MSTORE ADD MSTORE DUP1 PUSH1 0x0 MSTORE PUSH1 0x4 PUSH1 0x20 MSTORE PUSH2 0x1A5 PUSH1 0xFF PUSH1 0x40 PUSH1 0x0 KECCAK256 SLOAD AND PUSH2 0xFBF JUMP JUMPDEST PUSH1 0x0 MSTORE PUSH1 0x2 PUSH1 0x20 MSTORE PUSH1 0x40 PUSH1 0x0 KECCAK256 PUSH1 0x40 MLOAD PUSH2 0x1BE DUP2 PUSH2 0xDFB JUMP JUMPDEST DUP2 SLOAD DUP2 MSTORE PUSH2 0x1CE PUSH1 0x1 DUP4 ADD PUSH2 0xEE9 JUMP JUMPDEST SWAP2 PUSH1 0x20 DUP3 ADD SWAP3 DUP4 MSTORE PUSH2 0x1E2 PUSH1 0x2 DUP3 ADD PUSH2 0xEE9 JUMP JUMPDEST PUSH1 0x40 DUP4 ADD SWAP1 DUP2 MSTORE PUSH1 0x3 DUP3 ADD SLOAD SWAP2 PUSH1 0x60 DUP5 ADD SWAP3 DUP4 MSTORE PUSH1 0x4 DUP2 ADD SLOAD PUSH1 0x80 DUP6 ADD SWAP1 DUP2 MSTORE PUSH1 0x5 DUP3 ADD SLOAD SWAP1 PUSH1 0xA0 DUP7 ADD SWAP2 DUP3 MSTORE PUSH2 0x26A PUSH1 0x7 PUSH1 0xFF PUSH1 0x6 DUP7 ADD SLOAD AND SWAP5 PUSH1 0xC0 DUP10 ADD SWAP6 ISZERO ISZERO DUP7 MSTORE ADD SLOAD SWAP5 PUSH1 0xE0 DUP9 ADD SWAP6 DUP7 MSTORE PUSH2 0x257 PUSH1 0x40 MLOAD SWAP10 DUP11 SWAP10 PUSH1 0x20 DUP12 MSTORE MLOAD PUSH1 0x20 DUP12 ADD MSTORE MLOAD PUSH2 0x100 PUSH1 0x40 DUP12 ADD MSTORE PUSH2 0x120 DUP11 ADD SWAP1 PUSH2 0xD9E JUMP JUMPDEST SWAP1 MLOAD DUP9 DUP3 SUB PUSH1 0x1F NOT ADD PUSH1 0x60 DUP11 ADD MSTORE PUSH2 0xD9E JUMP JUMPDEST SWAP5 MLOAD PUSH1 0x80 DUP8 ADD MSTORE MLOAD PUSH1 0xA0 DUP7 ADD MSTORE MLOAD PUSH1 0xC0 DUP6 ADD MSTORE MLOAD ISZERO ISZERO PUSH1 0xE0 DUP5 ADD MSTORE MLOAD PUSH2 0x100 DUP4 ADD MSTORE SUB SWAP1 RETURN JUMPDEST CALLVALUE PUSH2 0x137 JUMPI PUSH1 0x40 CALLDATASIZE PUSH1 0x3 NOT ADD SLT PUSH2 0x137 JUMPI PUSH1 0x4 CALLDATALOAD PUSH1 0x24 CALLDATALOAD CALLER PUSH1 0x0 MSTORE PUSH1 0x3 PUSH1 0x20 MSTORE PUSH1 0x40 PUSH1 0x0 KECCAK256 SLOAD DUP3 LT ISZERO PUSH2 0x333 JUMPI PUSH2 0x2CA PUSH1 0x64 DUP3 GT ISZERO PUSH2 0x1004 JUMP JUMPDEST CALLER PUSH1 0x0 MSTORE PUSH1 0x3 PUSH1 0x20 MSTORE DUP1 PUSH1 0x3 PUSH2 0x2E4 DUP5 PUSH1 0x40 PUSH1 0x0 KECCAK256 PUSH2 0xF8D JUMP JUMPDEST POP ADD SSTORE CALLER PUSH1 0x0 MSTORE PUSH1 0x3 PUSH1 0x20 MSTORE PUSH2 0x2FE DUP3 PUSH1 0x40 PUSH1 0x0 KECCAK256 PUSH2 0xF8D JUMP JUMPDEST POP PUSH1 0x4 TIMESTAMP SWAP2 ADD SSTORE PUSH1 0x40 MLOAD SWAP1 DUP2 MSTORE PUSH32 0x5AD210155995469E8BF48ADD348A5927343C587ACD94110548A9E5B3F4907F20 PUSH1 0x20 CALLER SWAP3 LOG3 STOP JUMPDEST PUSH1 0x40 MLOAD PUSH3 0x461BCD PUSH1 0xE5 SHL DUP2 MSTORE PUSH1 0x20 PUSH1 0x4 DUP3 ADD MSTORE PUSH1 0x15 PUSH1 0x24 DUP3 ADD MSTORE PUSH21 0x92DCECC2D8D2C840ECCAD0D2C6D8CA40D2DCC8CAF PUSH1 0x5B SHL PUSH1 0x44 DUP3 ADD MSTORE PUSH1 0x64 SWAP1 REVERT JUMPDEST CALLVALUE PUSH2 0x137 JUMPI PUSH1 0x40 CALLDATASIZE PUSH1 0x3 NOT ADD SLT PUSH2 0x137 JUMPI PUSH2 0x389 PUSH2 0xD88 JUMP JUMPDEST PUSH1 0x1 PUSH1 0x1 PUSH1 0xA0 SHL SUB AND PUSH1 0x0 SWAP1 DUP2 MSTORE PUSH1 0x3 PUSH1 0x20 MSTORE PUSH1 0x40 SWAP1 KECCAK256 DUP1 SLOAD PUSH1 0x24 CALLDATALOAD SWAP1 DUP2 LT ISZERO PUSH2 0x137 JUMPI PUSH2 0x3B6 SWAP2 PUSH2 0xF8D JUMP JUMPDEST POP DUP1 SLOAD PUSH1 0x1 DUP3 ADD SLOAD PUSH1 0x1 PUSH1 0x1 PUSH1 0xA0 SHL SUB AND SWAP2 PUSH2 0x3D4 PUSH1 0x2 DUP3 ADD PUSH2 0xEE9 JUMP JUMPDEST PUSH2 0x400 PUSH1 0x4 PUSH1 0x3 DUP5 ADD SLOAD SWAP4 ADD SLOAD SWAP2 PUSH1 0x40 MLOAD SWAP6 DUP7 SWAP6 DUP7 MSTORE PUSH1 0x20 DUP7 ADD MSTORE PUSH1 0xA0 PUSH1 0x40 DUP7 ADD MSTORE PUSH1 0xA0 DUP6 ADD SWAP1 PUSH2 0xD9E JUMP JUMPDEST SWAP2 PUSH1 0x60 DUP5 ADD MSTORE PUSH1 0x80 DUP4 ADD MSTORE SUB SWAP1 RETURN JUMPDEST PUSH2 0xE91 JUMP JUMPDEST CALLVALUE PUSH2 0x137 JUMPI PUSH1 0x20 CALLDATASIZE PUSH1 0x3 NOT ADD SLT PUSH2 0x137 JUMPI PUSH1 0x4 CALLDATALOAD PUSH1 0x0 MSTORE PUSH1 0x2 PUSH1 0x20 MSTORE PUSH1 0x40 PUSH1 0x0 KECCAK256 DUP1 SLOAD PUSH2 0x443 PUSH1 0x1 DUP4 ADD PUSH2 0xEE9 JUMP JUMPDEST SWAP2 PUSH2 0x450 PUSH1 0x2 DUP3 ADD PUSH2 0xEE9 JUMP JUMPDEST PUSH1 0x3 DUP3 ADD SLOAD SWAP2 PUSH1 0x4 DUP2 ADD SLOAD PUSH1 0x5 DUP3 ADD SLOAD SWAP1 PUSH2 0x49E PUSH1 0x7 PUSH1 0xFF PUSH1 0x6 DUP7 ADD SLOAD AND SWAP5 ADD SLOAD SWAP5 PUSH2 0x490 PUSH1 0x40 MLOAD SWAP10 DUP11 SWAP10 DUP11 MSTORE PUSH2 0x100 PUSH1 0x20 DUP12 ADD MSTORE PUSH2 0x100 DUP11 ADD SWAP1 PUSH2 0xD9E JUMP JUMPDEST SWAP1 DUP9 DUP3 SUB PUSH1 0x40 DUP11 ADD MSTORE PUSH2 0xD9E JUMP JUMPDEST SWAP5 PUSH1 0x60 DUP8 ADD MSTORE PUSH1 0x80 DUP7 ADD MSTORE PUSH1 0xA0 DUP6 ADD MSTORE ISZERO ISZERO PUSH1 0xC0 DUP5 ADD MSTORE PUSH1 0xE0 DUP4 ADD MSTORE SUB SWAP1 RETURN JUMPDEST CALLVALUE PUSH2 0x137 JUMPI PUSH1 0x20 CALLDATASIZE PUSH1 0x3 NOT ADD SLT PUSH2 0x137 JUMPI PUSH1 0x4 CALLDATALOAD PUSH1 0x0 MSTORE PUSH1 0x4 PUSH1 0x20 MSTORE PUSH1 0x20 PUSH1 0xFF PUSH1 0x40 PUSH1 0x0 KECCAK256 SLOAD AND PUSH1 0x40 MLOAD SWAP1 ISZERO ISZERO DUP2 MSTORE RETURN JUMPDEST CALLVALUE PUSH2 0x137 JUMPI PUSH1 0xA0 CALLDATASIZE PUSH1 0x3 NOT ADD SLT PUSH2 0x137 JUMPI PUSH1 0x4 CALLDATALOAD PUSH8 0xFFFFFFFFFFFFFFFF DUP2 GT PUSH2 0x137 JUMPI PUSH2 0x520 SWAP1 CALLDATASIZE SWAP1 PUSH1 0x4 ADD PUSH2 0xE3A JUMP JUMPDEST PUSH1 0x24 CALLDATALOAD PUSH8 0xFFFFFFFFFFFFFFFF DUP2 GT PUSH2 0x137 JUMPI PUSH2 0x540 SWAP1 CALLDATASIZE SWAP1 PUSH1 0x4 ADD PUSH2 0xE3A JUMP JUMPDEST SWAP1 PUSH2 0x549 PUSH2 0x104F JUMP JUMPDEST PUSH1 0x1 SLOAD PUSH1 0x0 NOT DUP2 EQ PUSH2 0x8CE JUMPI PUSH1 0x1 ADD SWAP2 DUP3 PUSH1 0x1 SSTORE PUSH1 0x40 MLOAD PUSH2 0x569 DUP2 PUSH2 0xDFB JUMP JUMPDEST DUP4 DUP2 MSTORE PUSH1 0x20 DUP2 ADD DUP4 DUP2 MSTORE PUSH1 0x40 DUP3 ADD DUP4 DUP2 MSTORE PUSH1 0x60 DUP4 ADD PUSH1 0x44 CALLDATALOAD DUP2 MSTORE PUSH1 0x80 DUP5 ADD PUSH1 0x64 CALLDATALOAD DUP2 MSTORE PUSH1 0xA0 DUP6 ADD SWAP2 PUSH1 0x84 CALLDATALOAD DUP4 MSTORE PUSH1 0xC0 DUP7 ADD SWAP4 PUSH1 0x1 DUP6 MSTORE PUSH1 0xE0 DUP8 ADD SWAP6 TIMESTAMP DUP8 MSTORE DUP11 PUSH1 0x0 MSTORE PUSH1 0x2 PUSH1 0x20 MSTORE PUSH1 0x40 PUSH1 0x0 KECCAK256 SWAP8 MLOAD DUP9 SSTORE PUSH1 0x1 DUP9 ADD SWAP1 MLOAD DUP1 MLOAD SWAP1 PUSH8 0xFFFFFFFFFFFFFFFF DUP3 GT PUSH2 0x7F5 JUMPI DUP2 SWAP1 PUSH2 0x5DD DUP5 SLOAD PUSH2 0xEAF JUMP JUMPDEST PUSH1 0x1F DUP2 GT PUSH2 0x87B JUMPI JUMPDEST POP PUSH1 0x20 SWAP1 PUSH1 0x1F DUP4 GT PUSH1 0x1 EQ PUSH2 0x816 JUMPI PUSH1 0x0 SWAP3 PUSH2 0x80B JUMPI JUMPDEST POP POP DUP2 PUSH1 0x1 SHL SWAP2 PUSH1 0x0 NOT SWAP1 PUSH1 0x3 SHL SHR NOT AND OR SWAP1 SSTORE JUMPDEST MLOAD DUP1 MLOAD PUSH1 0x2 DUP9 ADD SWAP2 PUSH8 0xFFFFFFFFFFFFFFFF DUP3 GT PUSH2 0x7F5 JUMPI PUSH2 0x633 DUP4 SLOAD PUSH2 0xEAF JUMP JUMPDEST PUSH1 0x1F DUP2 GT PUSH2 0x7AD JUMPI JUMPDEST POP PUSH1 0x20 SWAP1 PUSH1 0x1F DUP4 GT PUSH1 0x1 EQ PUSH2 0x713 JUMPI SWAP4 PUSH2 0x6F5 SWAP11 SWAP8 SWAP4 DUP4 PUSH32 0x38C58B3E6C6CCA4174C4C4AAD317D832EDD908DDD62D412889B1325118037783 SWAP14 SWAP12 SWAP9 SWAP5 PUSH1 0x7 SWAP9 SWAP5 PUSH2 0x703 SWAP13 SWAP9 PUSH1 0x0 SWAP3 PUSH2 0x708 JUMPI JUMPDEST POP POP DUP2 PUSH1 0x1 SHL SWAP2 PUSH1 0x0 NOT SWAP1 PUSH1 0x3 SHL SHR NOT AND OR SWAP1 SSTORE JUMPDEST MLOAD PUSH1 0x3 DUP8 ADD SSTORE MLOAD PUSH1 0x4 DUP7 ADD SSTORE MLOAD PUSH1 0x5 DUP6 ADD SSTORE PUSH1 0x6 DUP5 ADD SWAP1 MLOAD ISZERO ISZERO PUSH1 0xFF DUP1 NOT DUP4 SLOAD AND SWAP2 AND OR SWAP1 SSTORE MLOAD SWAP2 ADD SSTORE DUP6 PUSH1 0x0 MSTORE PUSH1 0x4 PUSH1 0x20 MSTORE PUSH1 0x40 PUSH1 0x0 KECCAK256 PUSH1 0x1 PUSH1 0xFF NOT DUP3 SLOAD AND OR SWAP1 SSTORE PUSH1 0x40 MLOAD SWAP4 DUP5 SWAP4 PUSH1 0x40 DUP6 MSTORE PUSH1 0x40 DUP6 ADD SWAP1 PUSH2 0xD9E JUMP JUMPDEST SWAP1 DUP4 DUP3 SUB PUSH1 0x20 DUP6 ADD MSTORE PUSH2 0xD9E JUMP JUMPDEST SUB SWAP1 LOG2 STOP JUMPDEST ADD MLOAD SWAP1 POP CODESIZE DUP1 PUSH2 0x689 JUMP JUMPDEST SWAP1 PUSH1 0x1F NOT DUP4 AND SWAP2 DUP5 PUSH1 0x0 MSTORE DUP2 PUSH1 0x0 KECCAK256 SWAP3 PUSH1 0x0 JUMPDEST DUP2 DUP2 LT PUSH2 0x795 JUMPI POP DUP5 PUSH1 0x7 SWAP9 SWAP5 PUSH32 0x38C58B3E6C6CCA4174C4C4AAD317D832EDD908DDD62D412889B1325118037783 SWAP16 SWAP14 SWAP11 SWAP7 SWAP5 PUSH2 0x6F5 SWAP16 SWAP13 SWAP9 SWAP5 PUSH2 0x703 SWAP15 SWAP11 SWAP7 PUSH1 0x1 SWAP6 LT PUSH2 0x77C JUMPI JUMPDEST POP POP POP DUP2 SHL ADD SWAP1 SSTORE PUSH2 0x69E JUMP JUMPDEST ADD MLOAD PUSH1 0x0 NOT PUSH1 0xF8 DUP5 PUSH1 0x3 SHL AND SHR NOT AND SWAP1 SSTORE CODESIZE DUP1 DUP1 PUSH2 0x76F JUMP JUMPDEST SWAP3 SWAP4 PUSH1 0x20 PUSH1 0x1 DUP2 SWAP3 DUP8 DUP7 ADD MLOAD DUP2 SSTORE ADD SWAP6 ADD SWAP4 ADD PUSH2 0x726 JUMP JUMPDEST DUP4 PUSH1 0x0 MSTORE PUSH1 0x20 PUSH1 0x0 KECCAK256 PUSH1 0x1F DUP5 ADD PUSH1 0x5 SHR DUP2 ADD SWAP2 PUSH1 0x20 DUP6 LT PUSH2 0x7EB JUMPI JUMPDEST PUSH1 0x1F ADD PUSH1 0x5 SHR ADD SWAP1 JUMPDEST DUP2 DUP2 LT PUSH2 0x7DF JUMPI POP PUSH2 0x63C JUMP JUMPDEST PUSH1 0x0 DUP2 SSTORE PUSH1 0x1 ADD PUSH2 0x7D2 JUMP JUMPDEST SWAP1 SWAP2 POP DUP2 SWAP1 PUSH2 0x7C9 JUMP JUMPDEST PUSH4 0x4E487B71 PUSH1 0xE0 SHL PUSH1 0x0 MSTORE PUSH1 0x41 PUSH1 0x4 MSTORE PUSH1 0x24 PUSH1 0x0 REVERT JUMPDEST ADD MLOAD SWAP1 POP DUP14 DUP1 PUSH2 0x5FD JUMP JUMPDEST PUSH1 0x0 DUP6 DUP2 MSTORE DUP3 DUP2 KECCAK256 SWAP4 POP PUSH1 0x1F NOT DUP6 AND SWAP1 JUMPDEST DUP2 DUP2 LT PUSH2 0x863 JUMPI POP SWAP1 DUP5 PUSH1 0x1 SWAP6 SWAP5 SWAP4 SWAP3 LT PUSH2 0x84A JUMPI JUMPDEST POP POP POP DUP2 SHL ADD SWAP1 SSTORE PUSH2 0x612 JUMP JUMPDEST ADD MLOAD PUSH1 0x0 NOT PUSH1 0xF8 DUP5 PUSH1 0x3 SHL AND SHR NOT AND SWAP1 SSTORE DUP14 DUP1 DUP1 PUSH2 0x83D JUMP JUMPDEST SWAP3 SWAP4 PUSH1 0x20 PUSH1 0x1 DUP2 SWAP3 DUP8 DUP7 ADD MLOAD DUP2 SSTORE ADD SWAP6 ADD SWAP4 ADD PUSH2 0x827 JUMP JUMPDEST SWAP1 SWAP2 POP DUP4 PUSH1 0x0 MSTORE PUSH1 0x20 PUSH1 0x0 KECCAK256 PUSH1 0x1F DUP5 ADD PUSH1 0x5 SHR DUP2 ADD SWAP2 PUSH1 0x20 DUP6 LT PUSH2 0x8C4 JUMPI JUMPDEST SWAP1 PUSH1 0x1F DUP6 SWAP5 SWAP4 SWAP3 ADD PUSH1 0x5 SHR ADD SWAP1 JUMPDEST DUP2 DUP2 LT PUSH2 0x8B5 JUMPI POP PUSH2 0x5E6 JUMP JUMPDEST PUSH1 0x0 DUP2 SSTORE DUP5 SWAP4 POP PUSH1 0x1 ADD PUSH2 0x8A8 JUMP JUMPDEST SWAP1 SWAP2 POP DUP2 SWAP1 PUSH2 0x89A JUMP JUMPDEST PUSH4 0x4E487B71 PUSH1 0xE0 SHL PUSH1 0x0 MSTORE PUSH1 0x11 PUSH1 0x4 MSTORE PUSH1 0x24 PUSH1 0x0 REVERT JUMPDEST CALLVALUE PUSH2 0x137 JUMPI PUSH1 0x0 CALLDATASIZE PUSH1 0x3 NOT ADD SLT PUSH2 0x137 JUMPI PUSH1 0x0 SLOAD PUSH1 0x40 MLOAD PUSH1 0x1 PUSH1 0x1 PUSH1 0xA0 SHL SUB SWAP1 SWAP2 AND DUP2 MSTORE PUSH1 0x20 SWAP1 RETURN JUMPDEST CALLVALUE PUSH2 0x137 JUMPI PUSH1 0x0 CALLDATASIZE PUSH1 0x3 NOT ADD SLT PUSH2 0x137 JUMPI PUSH2 0x926 PUSH2 0x104F JUMP JUMPDEST PUSH1 0x0 DUP1 SLOAD PUSH1 0x1 PUSH1 0x1 PUSH1 0xA0 SHL SUB NOT DUP2 AND DUP3 SSTORE PUSH1 0x1 PUSH1 0x1 PUSH1 0xA0 SHL SUB AND PUSH32 0x8BE0079C531659141344CD1FD0A4F28419497F9722A3DAAFE3B4186F6B6457E0 DUP3 DUP1 LOG3 STOP JUMPDEST CALLVALUE PUSH2 0x137 JUMPI PUSH1 0x60 CALLDATASIZE PUSH1 0x3 NOT ADD SLT PUSH2 0x137 JUMPI PUSH1 0x4 CALLDATALOAD PUSH1 0x24 CALLDATALOAD PUSH8 0xFFFFFFFFFFFFFFFF DUP2 GT PUSH2 0x137 JUMPI PUSH2 0x99A SWAP1 CALLDATASIZE SWAP1 PUSH1 0x4 ADD PUSH2 0xE3A JUMP JUMPDEST SWAP1 PUSH1 0x44 CALLDATALOAD SWAP2 DUP2 PUSH1 0x0 MSTORE PUSH1 0x4 PUSH1 0x20 MSTORE PUSH2 0x9B9 PUSH1 0xFF PUSH1 0x40 PUSH1 0x0 KECCAK256 SLOAD AND PUSH2 0xFBF JUMP JUMPDEST DUP2 PUSH1 0x0 MSTORE PUSH1 0x2 PUSH1 0x20 MSTORE PUSH1 0xFF PUSH1 0x6 PUSH1 0x40 PUSH1 0x0 KECCAK256 ADD SLOAD AND ISZERO PUSH2 0xBE7 JUMPI PUSH2 0x9E0 PUSH1 0x64 DUP5 GT ISZERO PUSH2 0x1004 JUMP JUMPDEST CALLER PUSH1 0x0 MSTORE PUSH1 0x3 PUSH1 0x20 MSTORE PUSH1 0x40 PUSH1 0x0 KECCAK256 PUSH1 0x40 MLOAD SWAP1 PUSH2 0x9FB DUP3 PUSH2 0xDDF JUMP JUMPDEST DUP4 DUP3 MSTORE PUSH1 0x20 DUP3 ADD SWAP5 CALLER DUP7 MSTORE PUSH1 0x40 DUP4 ADD SWAP6 DUP5 DUP8 MSTORE PUSH1 0x60 DUP5 ADD SWAP2 DUP3 MSTORE PUSH1 0x80 DUP5 ADD SWAP3 TIMESTAMP DUP5 MSTORE DUP1 SLOAD PUSH9 0x10000000000000000 DUP2 LT ISZERO PUSH2 0x7F5 JUMPI PUSH2 0xA3F SWAP2 PUSH1 0x1 DUP3 ADD DUP2 SSTORE PUSH2 0xF8D JUMP JUMPDEST SWAP5 SWAP1 SWAP5 PUSH2 0xBD1 JUMPI MLOAD DUP5 SSTORE PUSH1 0x1 DUP5 ADD SWAP1 PUSH1 0x1 DUP1 PUSH1 0xA0 SHL SUB SWAP1 MLOAD AND PUSH12 0xFFFFFFFFFFFFFFFFFFFFFFFF PUSH1 0xA0 SHL DUP3 SLOAD AND OR SWAP1 SSTORE PUSH1 0x2 DUP4 ADD SWAP6 MLOAD SWAP6 DUP7 MLOAD PUSH8 0xFFFFFFFFFFFFFFFF DUP2 GT PUSH2 0x7F5 JUMPI PUSH2 0xA90 DUP3 SLOAD PUSH2 0xEAF JUMP JUMPDEST PUSH1 0x1F DUP2 GT PUSH2 0xB89 JUMPI JUMPDEST POP PUSH1 0x20 PUSH1 0x1F DUP3 GT PUSH1 0x1 EQ PUSH2 0xB1E JUMPI DUP2 SWAP1 PUSH1 0x4 SWAP7 SWAP8 SWAP9 SWAP10 PUSH1 0x0 SWAP3 PUSH2 0xB13 JUMPI JUMPDEST POP POP DUP2 PUSH1 0x1 SHL SWAP2 PUSH1 0x0 NOT SWAP1 PUSH1 0x3 SHL SHR NOT AND OR SWAP1 SSTORE JUMPDEST MLOAD PUSH1 0x3 DUP5 ADD SSTORE MLOAD SWAP2 ADD SSTORE PUSH32 0x19DCCDCEE399FA238D1A65A301BF144AFDCB9B05FD65EB639CEADDF79B5C5030 PUSH1 0x40 MLOAD PUSH1 0x20 DUP2 MSTORE DUP1 PUSH2 0xB0E CALLER SWAP5 PUSH1 0x20 DUP4 ADD SWAP1 PUSH2 0xD9E JUMP JUMPDEST SUB SWAP1 LOG3 STOP JUMPDEST ADD MLOAD SWAP1 POP DUP10 DUP1 PUSH2 0xAB7 JUMP JUMPDEST PUSH1 0x1F NOT DUP3 AND SWAP9 DUP4 PUSH1 0x0 MSTORE DUP2 PUSH1 0x0 KECCAK256 SWAP10 PUSH1 0x0 JUMPDEST DUP2 DUP2 LT PUSH2 0xB71 JUMPI POP SWAP2 PUSH1 0x4 SWAP8 SWAP9 SWAP10 SWAP11 SWAP2 DUP5 PUSH1 0x1 SWAP6 SWAP5 LT PUSH2 0xB58 JUMPI JUMPDEST POP POP POP DUP2 SHL ADD SWAP1 SSTORE PUSH2 0xACC JUMP JUMPDEST ADD MLOAD PUSH1 0x0 NOT PUSH1 0xF8 DUP5 PUSH1 0x3 SHL AND SHR NOT AND SWAP1 SSTORE DUP10 DUP1 DUP1 PUSH2 0xB4B JUMP JUMPDEST DUP4 DUP4 ADD MLOAD DUP13 SSTORE PUSH1 0x1 SWAP1 SWAP12 ADD SWAP11 PUSH1 0x20 SWAP4 DUP5 ADD SWAP4 ADD PUSH2 0xB30 JUMP JUMPDEST DUP3 PUSH1 0x0 MSTORE PUSH1 0x20 PUSH1 0x0 KECCAK256 PUSH1 0x1F DUP4 ADD PUSH1 0x5 SHR DUP2 ADD SWAP2 PUSH1 0x20 DUP5 LT PUSH2 0xBC7 JUMPI JUMPDEST PUSH1 0x1F ADD PUSH1 0x5 SHR ADD SWAP1 JUMPDEST DUP2 DUP2 LT PUSH2 0xBBB JUMPI POP PUSH2 0xA99 JUMP JUMPDEST PUSH1 0x0 DUP2 SSTORE PUSH1 0x1 ADD PUSH2 0xBAE JUMP JUMPDEST SWAP1 SWAP2 POP DUP2 SWAP1 PUSH2 0xBA5 JUMP JUMPDEST PUSH4 0x4E487B71 PUSH1 0xE0 SHL PUSH1 0x0 MSTORE PUSH1 0x0 PUSH1 0x4 MSTORE PUSH1 0x24 PUSH1 0x0 REVERT JUMPDEST PUSH1 0x40 MLOAD PUSH3 0x461BCD PUSH1 0xE5 SHL DUP2 MSTORE PUSH1 0x20 PUSH1 0x4 DUP3 ADD MSTORE PUSH1 0x15 PUSH1 0x24 DUP3 ADD MSTORE PUSH21 0x56656869636C65206973206E6F7420616374697665 PUSH1 0x58 SHL PUSH1 0x44 DUP3 ADD MSTORE PUSH1 0x64 SWAP1 REVERT JUMPDEST CALLVALUE PUSH2 0x137 JUMPI PUSH1 0x20 CALLDATASIZE PUSH1 0x3 NOT ADD SLT PUSH2 0x137 JUMPI PUSH1 0x1 PUSH1 0x1 PUSH1 0xA0 SHL SUB PUSH2 0xC45 PUSH2 0xD88 JUMP JUMPDEST AND PUSH1 0x0 MSTORE PUSH1 0x3 PUSH1 0x20 MSTORE PUSH1 0x40 PUSH1 0x0 KECCAK256 DUP1 SLOAD PUSH8 0xFFFFFFFFFFFFFFFF DUP2 GT PUSH2 0x7F5 JUMPI PUSH2 0xC74 PUSH1 0x20 DUP3 PUSH1 0x5 SHL ADD DUP5 PUSH2 0xE18 JUMP JUMPDEST DUP1 DUP4 MSTORE PUSH1 0x20 DUP4 ADD DUP1 SWAP3 PUSH1 0x0 MSTORE PUSH1 0x20 PUSH1 0x0 KECCAK256 PUSH1 0x0 SWAP2 JUMPDEST DUP4 DUP4 LT PUSH2 0xD2F JUMPI DUP5 DUP7 PUSH1 0x40 MLOAD SWAP2 DUP3 SWAP2 PUSH1 0x20 DUP4 ADD SWAP1 PUSH1 0x20 DUP5 MSTORE MLOAD DUP1 SWAP2 MSTORE PUSH1 0x40 DUP4 ADD SWAP1 PUSH1 0x40 DUP2 PUSH1 0x5 SHL DUP6 ADD ADD SWAP3 SWAP2 PUSH1 0x0 SWAP1 JUMPDEST DUP3 DUP3 LT PUSH2 0xCC8 JUMPI POP POP POP POP SUB SWAP1 RETURN JUMPDEST SWAP2 SWAP4 PUSH1 0x1 SWAP2 SWAP4 SWAP6 POP PUSH1 0x20 DUP1 SWAP2 PUSH1 0x3F NOT DUP10 DUP3 SUB ADD DUP6 MSTORE DUP8 MLOAD SWAP1 DUP2 MLOAD DUP2 MSTORE DUP5 DUP1 PUSH1 0xA0 SHL SUB DUP4 DUP4 ADD MLOAD AND DUP4 DUP3 ADD MSTORE PUSH1 0x80 DUP1 PUSH2 0xD0F PUSH1 0x40 DUP6 ADD MLOAD PUSH1 0xA0 PUSH1 0x40 DUP7 ADD MSTORE PUSH1 0xA0 DUP6 ADD SWAP1 PUSH2 0xD9E JUMP JUMPDEST SWAP4 PUSH1 0x60 DUP2 ADD MLOAD PUSH1 0x60 DUP6 ADD MSTORE ADD MLOAD SWAP2 ADD MSTORE SWAP7 ADD SWAP3 ADD SWAP3 ADD DUP6 SWAP5 SWAP4 SWAP2 SWAP3 PUSH2 0xCB9 JUMP JUMPDEST PUSH1 0x5 PUSH1 0x20 PUSH1 0x1 SWAP3 PUSH1 0x40 MLOAD PUSH2 0xD42 DUP2 PUSH2 0xDDF JUMP JUMPDEST DUP6 SLOAD DUP2 MSTORE DUP5 DUP1 PUSH1 0xA0 SHL SUB DUP6 DUP8 ADD SLOAD AND DUP4 DUP3 ADD MSTORE PUSH2 0xD61 PUSH1 0x2 DUP8 ADD PUSH2 0xEE9 JUMP JUMPDEST PUSH1 0x40 DUP3 ADD MSTORE PUSH1 0x3 DUP7 ADD SLOAD PUSH1 0x60 DUP3 ADD MSTORE PUSH1 0x4 DUP7 ADD SLOAD PUSH1 0x80 DUP3 ADD MSTORE DUP2 MSTORE ADD SWAP3 ADD SWAP3 ADD SWAP2 SWAP1 PUSH2 0xC89 JUMP JUMPDEST PUSH1 0x4 CALLDATALOAD SWAP1 PUSH1 0x1 PUSH1 0x1 PUSH1 0xA0 SHL SUB DUP3 AND DUP3 SUB PUSH2 0x137 JUMPI JUMP JUMPDEST SWAP2 SWAP1 DUP3 MLOAD SWAP3 DUP4 DUP3 MSTORE PUSH1 0x0 JUMPDEST DUP5 DUP2 LT PUSH2 0xDCA JUMPI POP POP DUP3 PUSH1 0x0 PUSH1 0x20 DUP1 SWAP5 SWAP6 DUP5 ADD ADD MSTORE PUSH1 0x1F DUP1 NOT SWAP2 ADD AND ADD ADD SWAP1 JUMP JUMPDEST DUP1 PUSH1 0x20 DUP1 SWAP3 DUP5 ADD ADD MLOAD DUP3 DUP3 DUP7 ADD ADD MSTORE ADD PUSH2 0xDA9 JUMP JUMPDEST PUSH1 0xA0 DUP2 ADD SWAP1 DUP2 LT PUSH8 0xFFFFFFFFFFFFFFFF DUP3 GT OR PUSH2 0x7F5 JUMPI PUSH1 0x40 MSTORE JUMP JUMPDEST PUSH2 0x100 DUP2 ADD SWAP1 DUP2 LT PUSH8 0xFFFFFFFFFFFFFFFF DUP3 GT OR PUSH2 0x7F5 JUMPI PUSH1 0x40 MSTORE JUMP JUMPDEST SWAP1 PUSH1 0x1F DUP1 NOT SWAP2 ADD AND DUP2 ADD SWAP1 DUP2 LT PUSH8 0xFFFFFFFFFFFFFFFF DUP3 GT OR PUSH2 0x7F5 JUMPI PUSH1 0x40 MSTORE JUMP JUMPDEST DUP2 PUSH1 0x1F DUP3 ADD SLT ISZERO PUSH2 0x137 JUMPI DUP1 CALLDATALOAD SWAP1 PUSH8 0xFFFFFFFFFFFFFFFF DUP3 GT PUSH2 0x7F5 JUMPI PUSH1 0x40 MLOAD SWAP3 PUSH2 0xE6F PUSH1 0x1F DUP5 ADD PUSH1 0x1F NOT AND PUSH1 0x20 ADD DUP6 PUSH2 0xE18 JUMP JUMPDEST DUP3 DUP5 MSTORE PUSH1 0x20 DUP4 DUP4 ADD ADD GT PUSH2 0x137 JUMPI DUP2 PUSH1 0x0 SWAP3 PUSH1 0x20 DUP1 SWAP4 ADD DUP4 DUP7 ADD CALLDATACOPY DUP4 ADD ADD MSTORE SWAP1 JUMP JUMPDEST CALLVALUE PUSH2 0x137 JUMPI PUSH1 0x0 CALLDATASIZE PUSH1 0x3 NOT ADD SLT PUSH2 0x137 JUMPI PUSH1 0x20 PUSH1 0x1 SLOAD PUSH1 0x40 MLOAD SWAP1 DUP2 MSTORE RETURN JUMPDEST SWAP1 PUSH1 0x1 DUP3 DUP2 SHR SWAP3 AND DUP1 ISZERO PUSH2 0xEDF JUMPI JUMPDEST PUSH1 0x20 DUP4 LT EQ PUSH2 0xEC9 JUMPI JUMP JUMPDEST PUSH4 0x4E487B71 PUSH1 0xE0 SHL PUSH1 0x0 MSTORE PUSH1 0x22 PUSH1 0x4 MSTORE PUSH1 0x24 PUSH1 0x0 REVERT JUMPDEST SWAP2 PUSH1 0x7F AND SWAP2 PUSH2 0xEBE JUMP JUMPDEST SWAP1 PUSH1 0x40 MLOAD SWAP2 DUP3 PUSH1 0x0 DUP3 SLOAD SWAP3 PUSH2 0xEFD DUP5 PUSH2 0xEAF JUMP JUMPDEST DUP1 DUP5 MSTORE SWAP4 PUSH1 0x1 DUP2 AND SWAP1 DUP2 ISZERO PUSH2 0xF6B JUMPI POP PUSH1 0x1 EQ PUSH2 0xF24 JUMPI JUMPDEST POP PUSH2 0xF22 SWAP3 POP SUB DUP4 PUSH2 0xE18 JUMP JUMPDEST JUMP JUMPDEST SWAP1 POP PUSH1 0x0 SWAP3 SWAP2 SWAP3 MSTORE PUSH1 0x20 PUSH1 0x0 KECCAK256 SWAP1 PUSH1 0x0 SWAP2 JUMPDEST DUP2 DUP4 LT PUSH2 0xF4F JUMPI POP POP SWAP1 PUSH1 0x20 PUSH2 0xF22 SWAP3 DUP3 ADD ADD CODESIZE PUSH2 0xF15 JUMP JUMPDEST PUSH1 0x20 SWAP2 SWAP4 POP DUP1 PUSH1 0x1 SWAP2 SLOAD DUP4 DUP6 DUP10 ADD ADD MSTORE ADD SWAP2 ADD SWAP1 SWAP2 DUP5 SWAP3 PUSH2 0xF36 JUMP JUMPDEST SWAP1 POP PUSH1 0x20 SWAP3 POP PUSH2 0xF22 SWAP5 SWAP2 POP PUSH1 0xFF NOT AND DUP3 DUP5 ADD MSTORE ISZERO ISZERO PUSH1 0x5 SHL DUP3 ADD ADD CODESIZE PUSH2 0xF15 JUMP JUMPDEST DUP1 SLOAD DUP3 LT ISZERO PUSH2 0xFA9 JUMPI PUSH1 0x0 MSTORE PUSH1 0x5 PUSH1 0x20 PUSH1 0x0 KECCAK256 SWAP2 MUL ADD SWAP1 PUSH1 0x0 SWAP1 JUMP JUMPDEST PUSH4 0x4E487B71 PUSH1 0xE0 SHL PUSH1 0x0 MSTORE PUSH1 0x32 PUSH1 0x4 MSTORE PUSH1 0x24 PUSH1 0x0 REVERT JUMPDEST ISZERO PUSH2 0xFC6 JUMPI JUMP JUMPDEST PUSH1 0x40 MLOAD PUSH3 0x461BCD PUSH1 0xE5 SHL DUP2 MSTORE PUSH1 0x20 PUSH1 0x4 DUP3 ADD MSTORE PUSH1 0x16 PUSH1 0x24 DUP3 ADD MSTORE PUSH22 0x15995A1A58DB1948191BD95CC81B9BDD08195E1A5CDD PUSH1 0x52 SHL PUSH1 0x44 DUP3 ADD MSTORE PUSH1 0x64 SWAP1 REVERT JUMPDEST ISZERO PUSH2 0x100B JUMPI JUMP JUMPDEST PUSH1 0x64 PUSH1 0x40 MLOAD PUSH3 0x461BCD PUSH1 0xE5 SHL DUP2 MSTORE PUSH1 0x20 PUSH1 0x4 DUP3 ADD MSTORE PUSH1 0x20 PUSH1 0x24 DUP3 ADD MSTORE PUSH32 0x42617474657279206C6576656C2063616E6E6F74206578636565642031303025 PUSH1 0x44 DUP3 ADD MSTORE REVERT JUMPDEST PUSH1 0x0 SLOAD PUSH1 0x1 PUSH1 0x1 PUSH1 0xA0 SHL SUB AND CALLER SUB PUSH2 0x1063 JUMPI JUMP JUMPDEST PUSH4 0x118CDAA7 PUSH1 0xE0 SHL PUSH1 0x0 MSTORE CALLER PUSH1 0x4 MSTORE PUSH1 0x24 PUSH1 0x0 REVERT INVALID LOG2 PUSH5 0x6970667358 0x22 SLT KECCAK256 EXTCODESIZE PUSH2 0x1C74 0xAD DUP8 SLOAD SWAP8 CALLDATASIZE 0xB5 JUMPDEST DUP3 CREATE2 0x26 0xA5 MULMOD 0xE9 PUSH3 0x70AD14 0xEB 0xC0 CALLDATASIZE PUSH0 0x24 OR CREATE 0x29 SWAP14 0xE8 LOG3 PUSH5 0x736F6C6343 STOP ADDMOD SHR STOP CALLER "},"methodIdentifiers":{"addVehicle(string,string,uint256,uint256,uint256)":"aa4da66e","getCurrentVehicleId()":"c0049b2b","getTotalVehicles()":"69056b27","getUserVehicles(address)":"43b522b0","getVehicle(uint256)":"df7ebb7b","owner()":"8da5cb5b","registerUserVehicle(uint256,string,uint256)":"5ae11a8a","renounceOwnership()":"715018a6","transferOwnership(address)":"f2fde38b","updateBatteryLevel(uint256,uint256)":"db806449","userVehicles(address,uint256)":"cc63ab0e","vehicleExists(uint256)":"b19232fc","vehicles(uint256)":"b8ba95fa"}}}}}